S01300004261636B7061636B4C45442E737265632C
S11300008BC300000C94F7130C9428140C9459140B
S11300100C948A140C94BB140C94EC140C941D15BD
S11300200C944E15AAC30000A8C30000A6C3000088
S1130030A4C300000C949813A0C300009EC3000046
S11300409CC300009AC3000098C3000096C300003C
S11300500C947D0D92C3000090C300000C947F1596
S11300608CC300000C94220F0C94610F86C3000013
S113007084C3000082C3000080C300007EC300006C
S11300807CC300007AC3000078C3000076C300007C
S11300900C94D60F0C94151070C300006EC30000AE
S11300A06CC300006AC3000068C3000066C300009C
S11300B064C3000062C3000060C300005EC30000AC
S11300C05CC300005AC3000058C300000C948A109B
S11300D00C94C91052C300000C943E110C947D1171
S11300E04CC30000A316A716911697169D16EC167E
S11300F0AB16B116B716BD16C316C916CF16D5164C
S1130100EC16DB16E116E71600000000003E5B4F1C
S11301105B3E3E6B4F6B3E1C3E7C3E1C183C7E3C63
S1130120181C577D571C1C5E7F5E1C00183C180071
S1130130FFE7C3E7FF0018241800FFE7DBE7FF3001
S1130140483A060E2629792926407F050507407F6F
S113015005253F5A3CE73C5A7F3E1C1C08081C1CE2
S11301603E7F14227F22145F5F005F5F06097F01D8
S11301707F006689956A606060606094A2FFA294C3
S113018008047E040810207E201008082A1C080891
S11301901C2A08081E101010100C1E0C1E0C3038DF
S11301A03E3830060E3E0E06000000000000005FE0
S11301B000000007000700147F147F14242A7F2AFC
S11301C012231308646236495620500008070300BE
S11301D0001C2241000041221C002A1C7F1C2A080A
S11301E0083E08080080703000080808080800006D
S11301F060600020100804023E5149453E00427FE1
S1130200400072494949462141494D331814127F2F
S11302101027454545393C4A4949314121110907CF
S11302203649494936464949291E00001400000050
S11302304034000000081422411414141414004122
S113024022140802015909063E415D594E7C1211DF
S1130250127C7F494949363E414141227F41414117
S11302603E7F494949417F090909013E4141517392
S11302707F0808087F00417F41002040413F017F03
S1130280081422417F404040407F021C027F7F04CB
S113029008107F3E4141413E7F090909063E415114
S11302A0215E7F09192946264949493203017F0104
S11302B0033F4040403F1F2040201F3F4038403F05
S11302C0631408146303047804036159494D43001B
S11302D07F4141410204081020004141417F040252
S11302E001020440404040400003070800205454E9
S11302F078407F28444438384444442838444428C7
S11303007F385454541800087E090218A4A49C7819
S11303107F0804047800447D40002040403D007F75
S11303201028440000417F40007C047804787C0855
S11303300404783844444438FC1824241818242429
S113034018FC7C08040408485454542404043F440E
S1130350243C4040207C1C2040201C3C4030403C3D
S113036044281028444C9090907C4464544C44009D
S11303700836410000007700000041360800020101
S11303800204023C2623263C1EA1A161123A4040ED
S1130390207A38545455592155557941225454786A
S11303A042215554784020545579400C1E52721203
S11303B0395555555939545454593955545458008C
S11303C000457C410002457D420001457C407D1290
S11303D011127DF0282528F07C54554500205454F2
S11303E07C547C0A097F4932494949323A4444449D
S11303F03A324A4848303A4141217A3A42402078D8
S1130400009DA0A07D3D4242423D3D4040403D3CD8
S113041024FF2424487E4943662B2FFC2F2BFF09FD
S113042029F620C0887E09032054547941000044F1
S11304307D413048484A32384040227A007A0A0ADC
S1130440727D0D19317D2629292F2826292929264F
S113045030484D4020380808080808080808382F94
S113046010C8ACBA2F102834FA00007B000008141E
S11304702A142222142A1408AA005500AAAA55AA4A
S113048055AA000000FF00101010FF00141414FF00
S1130490001010FF00FF1010F010F0141414FC00F2
S11304A01414F700FF0000FF00FF1414F404FC14FC
S11304B01417101F10101F101F1414141F001010F5
S11304C010F0000000001F101010101F101010106A
S11304D0F010000000FF101010101010101010FF8A
S11304E010000000FF140000FF00FF00001F1017A1
S11304F00000FC04F414141710171414F404F4008A
S113050000FF00F714141414141414F700F714144F
S113051014171410101F101F141414F4141010F0D6
S113052010F000001F101F0000001F14000000FC4A
S1130530140000F010F01010FF10FF141414FF1436
S11305401010101F00000000F010FFFFFFFFFFF06D
S1130550F0F0F0F0FFFFFF0000000000FFFF0F0FBE
S11305600F0F0F3844443844FC4A4A4A347E02028E
S11305700606027E027E0263554941633844443CC8
S113058004407E201E2006027E020299A5E7A5995A
S11305901C2A492A1C4C7201724C304A4D4D303091
S11305A048784830BC625A463D3E494949007E017C
S11305B001017E2A2A2A2A2A44445F444440514A9B
S11305C0444040444A51400000FF0103E080FF00E2
S11305D00008086B6B083612362436060F090F061E
S11305E0000018180000001010003040FF01010046
S11305F01F01011E00191D1712003C3C3C3C000069
S11306000000000200000A0B02090C0D0E0807038B
S113061004010000000000000000000000000000D1
S113062000000000000000000000000000000000C6
S11306301211100000000000000000000000000083
S1130640000000000000000000000102102020084B
S11306500810204010204080020102010804020119
S11306600102040810204080804020100804020188
S113067080040201804020100804020108040201E1
S11306800102040810204080010204081020408068
S113069005050505070508080808020202020A0AFA
S11306A00808040404040101010101010101030318
S11306B0030303030303040707070C0C0C0C0C0CC3
S11306C00C0C0202020206060606060606060B0BC0
S11306D00B0B0B0B0B0B00002200250028002B003A
S11306E02E003100340002010000050108010B0155
S11306F000002100240027002A002D0030003300D0
S113070001010000040107010A01930F4710FB10C7
S1130710AF1136127021AA2111241FBECFEFD1E2EE
S1130720DEBFCDBF00E00CBF15E0A0E0B2E0E2EF19
S1130730FCE400E00BBF02C007900D92A433B107A4
S1130740D9F728E0A4E3B5E001C01D92A635B207AD
S1130750E1F717E0C6E1D7E000E006C022970109FF
S1130760FE010BBF0E940D24CA30D10780E00807A8
S1130770A9F70E94D6230C94682642CC2F923F926C
S11307804F925F926F927F928F929F92AF92BF929D
S1130790CF92DF92EF92FF920F931F93CF93DF9349
S11307A000D01F92CDB7DEB74C017C836B835A0116
S11307B03901C801841B950B9C0122F4222733279D
S11307C0281B390BA3018B819C81481B590BCA013F
S11307D0992324F488279927841B950B51E040E042
S11307E0821793070CF050E0452E542E4114510407
S11307F059F0962D872D3801092F182F9B818C8154
S1130800BC82AB82A92EB82EAB81BC816A167B0652
S11308105CF49A2D8B2D5801092F182F9B818C8104
S11308207C826B82692E782EF3012B813C81E21B42
S1130830F30BFA83E983C8018A199B091C0122F48A
S113084022243324281A390AC980DA80DD201CF4D2
S11308503FEFC31AD30AD594C794A016B1061CF46B
S113086001E010E002C00FEF1FEF8B819C8168163E
S1130870790674F14114510469F0D401ED91FC91AD
S11308800480F581E02D97014B815C81B501C401A1
S113089019950CC0D401ED91FC910480F581E02DF3
S11308A09701A5016B817C81C4011995C218D308F5
S11308B032F4A00EB11EE981FA81CE0EDF1E2B8127
S11308C03C812F5F3F4F3C832B836216730694F663
S11308D00F900F900F900F90DF91CF911F910F9178
S11308E0FF90EF90DF90CF90BF90AF909F908F904C
S11308F07F906F905F904F903F902F9008956F92EC
S11309007F928F929F92AF92BF92CF92DF92EF929B
S1130910FF920F931F93CF93DF93EC015B016A0166
S113092039014801E881F9810284F385E02D8701CA
S11309301995E881F981A601480D591D41505109C5
S11309400284F385E02D9301B501CE011995E88168
S1130950F9810084F185E02D9401A601B501CE0151
S11309601995E881F981A60CB71CB501615071098C
S11309700084F185E02D9401A601CE011995DF9143
S1130980CF911F910F91FF90EF90DF90CF90BF9088
S1130990AF909F908F907F906F900895EF92FF9209
S11309A00F931F93DC01ED91FC91240F351F21500F
S11309B031090680F781E02D780189019B011995A1
S11309C01F910F91FF90EF900895EF92FF920F9374
S11309D01F93DC01ED91FC91260F371F2150310943
S11309E00680F781E02D78018A0119951F910F91F6
S11309F0FF90EF9008956F927F928F929F92AF92A3
S1130A00BF92CF92DF92EF92FF920F931F93CF93F7
S1130A10DF936C01EB014A0158013B01620E731E26
S1130A206615770584F4D601ED91FC910084F18577
S1130A30E02D87019501A401BE01C60119952196F7
S1130A40C615D70584F3DF91CF911F910F91FF90C5
S1130A50EF90DF90CF90BF90AF909F908F907F905A
S1130A606F900895EF92FF920F931F93DC01ED9125
S1130A70FC9111971A960D911C911B9718962D9124
S1130A803C9119970684F785E02D7B0140E050E006
S1130A9060E070E019951F910F91FF90EF90089519
S1130AA00895FC01138212828BE092E0918380838B
S1130AB0758364835783468371876087538742872E
S1130AC0158A158614861786168621E0248B8FEFE7
S1130AD09FEF938B828B918B808B268B08952F9223
S1130AE03F924F925F926F927F928F929F92AF92BA
S1130AF0BF92CF92DF92EF92FF920F931F93CF9307
S1130B00DF93CDB7DEB72E970FB6F894DEBF0FBED6
S1130B10CDBF9A8389835A8749873E872D87FC8670
S1130B20EB86DC82CB8281E090E07C01E21AF30A5E
S1130B30C9019195819591091C01220C331C12164F
S1130B4013060CF09DC03A0121E0621A71084B842F
S1130B505C8433E0430E511CC12CD12C8824839433
S1130B60912C802F81708F83027008877E836D8320
S1130B70A980BA80FF2054F0ED85FE853197FE8769
S1130B80ED87F2E02F0E311CE20CF31C2FEFC21A9A
S1130B90D20A32E0830E911CE80CF91C8F81882361
S1130BA081F1D501ED91FC912D853E85220F331FF6
S1130BB02F5F3F4F8B859C85280F391F0084F1855B
S1130BC0E02D0B811C8149855A85AD85BE854A1B64
S1130BD05B0B6D817E816C0D7D1DC5011995D50161
S1130BE0ED91FC910084F185E02D0B811C81920133
S1130BF0A3016D817E818D859E85680F791FC50156
S1130C0019959885992381F1D501ED91FC912D8554
S1130C103E85220F331F2F5F3F4F8B859C85280F06
S1130C20391F0084F185E02D0B811C8149855A858B
S1130C30AD85BE854A1B5B0B6D817E816C197D0978
S1130C40C5011995D501ED91FC910084F185E02D44
S1130C500B811C819201A3016D817E818D859E850E
S1130C60681B790BC501199591E0691A7108A2E016
S1130C704A0E511CED85FE85CE16DF060CF47ACFA4
S1130C802E960FB6F894DEBF0FBECDBFDF91CF9185
S1130C901F910F91FF90EF90DF90CF90BF90AF9096
S1130CA09F908F907F906F905F904F903F902F9088
S1130CB008956F927F928F929F92AF92BF92CF923C
S1130CC0DF92EF92FF920F931F93CF93DF93EC0188
S1130CD04B013A0159016801E881F981220F331F60
S1130CE02F5F3F4F4A195B090084F185E02D199568
S1130CF0E12CF12C03E09501A301B401CE01EFDE58
S1130D00DF91CF911F910F91FF90EF90DF90CF90E3
S1130D10BF90AF909F908F907F906F9008952F9287
S1130D203F924F925F926F927F928F929F92AF9277
S1130D30BF92CF92DF92EF92FF920F931F93CF93C4
S1130D40DF93CDB7DEB760970FB6F894DEBF0FBE62
S1130D50CDBF4C011A830983FD82EC82CB82DC0176
S1130D6018968D919C911997681779070CF0C6C055
S1130D701A968D919C911B97481759070CF0BEC089
S1130D806C2C712CC301880F991F860D971D880F39
S1130D90991F860F971F019799230CF4AFC0C301C5
S1130DA0880F991F880F991F880F991F840F951F0B
S1130DB0019799230CF4A2C030E0C901880F991F50
S1130DC0880F991F280F391F13017F836E8379873A
S1130DD068871A86285F3E4FF901E61BF70BFE87EA
S1130DE0ED874B875C87FA85F53009F477C0ED858C
S1130DF0FE852E813F81E20FF31F049170C090FEA7
S1130E0025C03B81313081F4AF85B889ED91FC91E7
S1130E1011970480F581E02D29813A81A5016E8125
S1130E207F81CD0119953DC0AF85B889ED91FC91C5
S1130E3011970684F785E02DE980FA8083019301F8
S1130E40A601682D742DCD0119952BC0EC81FD816F
S1130E5029813A81E217F30721F13B81313081F492
S1130E60AF85B889ED91FC9111970480F581E02D4F
S1130E702C813D81A5016E817F81CD01199511C021
S1130E80AF85B889ED91FC9111970684F785E02D23
S1130E90EC80FD8083019301A601682D742DCD01A2
S1130EA0199596945A94C20CD31CBFEFAB1ABB0A83
S1130EB05110A5CF8F849888EA85EF5FEA8728854B
S1130EC03985220D331D398728878E819F810196AC
S1130ED09F838E83E63009F086CF10C000E018852A
S1130EE04984CB84DC84AC2CBD2C6894552453F801
S1130EF0C401902E812E988B8F8781CF60960FB678
S1130F00F894DEBF0FBECDBFDF91CF911F910F913B
S1130F10FF90EF90DF90CF90BF90AF909F908F9015
S1130F207F906F905F904F903F902F900895CF9255
S1130F30EF92FF920F931F93CF93DF93EC016A30EC
S1130F4069F42C898E859F8538E0239F800D911D3F
S1130F5011249F878E871D861C863CC06D30D1F17D
S1130F60EA88FB88088919894E855F858C859D856B
S1130F70CC88262FBC01CE01D2DE2C8930E0C901F9
S1130F80880F991F820F931F880F991F4C855D85C9
S1130F90840F951F9D878C874E894423D9F04AEF8F
S1130FA04203B001439F700D112448855985460FB3
S1130FB0571F4817590774F4220F331F220F331F8A
S1130FC0220F331F8E859F85280F391F3F872E8759
S1130FD01D861C8681E090E0DF91CF911F910F91D7
S1130FE0FF90EF90CF900895FC0175876487578731
S1130FF046870895611101C061E0FC01648B089586
S1131000FC01738B628B718B608B08958F929F921E
S1131010AF92BF92CF92DF92EF92FF920F931F9302
S1131020CF93DF93FC0177230CF41FC18085918556
S1131030681779070CF019C155230CF416C1A28561
S1131040B3854A175B070CF010C1A589A23061F083
S1131050A330C9F0A130F1F4A481B5811197A41B88
S1131060B50BAB01BD0116C0A481B5811197ED018B
S1131070C61BD70BBE01A681B7811197ED01C41B16
S1131080D50BAE0107C0A681B7811197A61BB70B7C
S1131090BA01AD01A32EA694A694A694A694DA2C24
S11310A04901880C892C881C99089194D82DDF70EB
S11310B0CD2E36952795A22FAF70BA2EC38DD0E0D2
S11310C04C175D070CF06BC0048D10E0000F111F6E
S11310D00E0F1F1FE480F5804E9DE0014F9DD00D43
S11310E05E9DD00D1124AE01440F551FC40FD51FB2
S11310F06C0F7D1FE8014F89588DEA01C60FD71F79
S1131100880F991F8C0F9D1FDC014C914C7F4C93D1
S1131110A0FE0AC080859185880F991F8C0F9D1FA2
S1131120DC014C9141604C9380FE09C0A085B185DF
S1131130AA0FBB1FAC0FBD1F8C9182608C9320FF44
S113114008C0A085B185AC0FBD1F8C9181608C93C4
S113115084C0A085B185AC0FBD1F8C918E7F8C930C
S11311607CC02881237E342F3D2111F4288302C0C2
S113117024602883242F2C2119F0288128602883B7
S1131180242F2B2119F02881206128832481358183
S1131190C20FD31F440F0197009719F766C0048D3F
S11311A010E0000F111F0E0F1F1F4C1B5D0BC4819D
S11311B0D5814C9FC0014D9F900D5C9F900D1124D3
S11311C0EC01CC0FDD1F8C0F9D1F680F791FD80118
S11311D05796CD91DC915897C60FD71F88818C7F85
S11311E08883A0FE09C0808591858C0F9D1FDC013A
S11311F04C9142604C9308C0808591858C0F9D1F53
S1131200DC014C914D7F4C9380FE03C0888181604A
S1131210888320FF26C088818260888322C0288139
S11312202F71342F3D2111F4288302C020622883BA
S1131230242F2C2119F0288120642883242F2B218A
S113124019F028812068288324813581C20FD31F97
S1131250440F0197009719F708C083E090E042E03B
S113126080CF83E090E042E0DACFDF91CF911F910D
S11312700F91FF90EF90DF90CF90BF90AF909F9031
S11312808F9008952F923F924F925F926F927F9228
S11312908F92AF92CF92EF92FF920F931F93CF93BF
S11312A0DF93CDB7DEB73C01F42E122FDC015B9641
S11312B06C932B88269EB00111241B01220C331C35
S11312C0260E371E882021F02101440C551C01C034
S11312D02101C2010E941124F301908F878B009792
S11312E009F4B3C0A20160E070E00E9431268820B6
S11312F041F0D30157968D919C915897280E391E31
S113130003C0F3012788308CD3015A963C922E9265
S11313105997D496FC92D497D5961C93D597D69684
S11313200C93D697D196EC92D197D296CC92D29731
S1131330D396AC92EE2DF0E0E65BF94FE491D30145
S11313409A96EC938C2D90E0FC01E057F94FE491D0
S1131350F0E0EE0FFF1FEA52F94F25913491F301AB
S1131360378F268FFC01E65BF94F8491D3019B965E
S11313708C938A2D90E0FC01E057F94FE491F0E062
S1131380EE0FFF1FEA52F94F25913491F30131A377
S113139020A3FC01E65BF94F8491D3019C968C93C6
S11313A08F2D90E0FC01E057F94FE491F0E0EE0F4F
S11313B0FF1FEA52F94F25913491F30133A322A37D
S11313C0FC01E65BF94F8491D3019D968C93812FA8
S11313D090E0FC01E057F94FE491F0E0EE0FFF1FBD
S11313E0EA52F94F25913491F30135A324A3FC016A
S11313F0E65BF94F8491D3019E968C9310E0F8013B
S1131400E057F94FE491F0E0EE0FFF1FEA52F94F75
S113141085919491F30197A386A3F801E65BF94FB4
S11314200491D3019F960C939F9783E0D9968C9354
S1131430D9975B968C915B978150D8968C93D8976B
S11314405D961C925D975C961C92DF91CF911F91E3
S11314500F91FF90EF90CF90AF908F907F906F900F
S11314605F904F903F902F9008956F927F928F924C
S11314709F92AF92BF92CF92DF92EF92FF920F931F
S11314801F93CF93DF93CDB7DEB73C01D62EB42E96
S1131490922E102FFA886F2D70E040E250E001DBAD
S11314A083E292E0F30191838083FF92092D2B2D37
S11314B04D2D60E1C301E6DEF30117AB012F10E00F
S11314C0F801E057F94FE491F0E0EE0FFF1FEA5204
S11314D0F94F85919491F30191A780A7F801E65BF8
S11314E0F94F0491F30100AB0F90DF91CF911F915D
S11314F00F91FF90EF90DF90CF90BF90AF909F90AF
S11315008F907F906F900895CF93DF93EC011C8EA2
S11315108C8DE1E0F0E0E81BF109EE0FFF1FEC0F0A
S1131520FD1F8789908D9BAF8AAFD0933505C093FB
S1131530340561E089A90E94ED1695B18AA58095CC
S1131540892385B961E08AA90E94ED16EE8DFF8D8D
S113155090818BA580958923808361E08BA90E946B
S1131560ED16E8A1F9A190818CA5892B808361E017
S11315708CA90E94ED16EAA1FBA190818DA580950E
S11315808923808361E08DA90E94ED16ECA1FDA161
S113159090818EA580958923808361E08EA90E9425
S11315A0ED16EEA1FFA190818FA5809589238083FC
S11315B08B8D893058F061E08FA90E94ED16E8A563
S11315C0F9A5908188A98095892380838CEF81B9BE
S11315D012B882E08093800089E18093810084E6E0
S11315E090E09093870080938600EFE6F0E080819E
S11315F0816080837894DF91CF910895822F8670E3
S113160090E095958795277030E0220F331F220FC5
S1131610331F822B932B262F30E0322F2227329533
S1131620330F307E822B932B242F2770922B20E2B2
S1131630429FA00111245527842B952B667070E0DE
S1131640762F6627770F770F862B972B08950F93A6
S11316501F93CF93DF93DC019096ED91FC919197CA
S113166090819C968C919C97892B80835E96ED91BA
S1131670FC915F9790819B968C919B97892B80839B
S11316805B963C915B97393018F088EC90E002C08F
S113169080E991E0D9962C91D99788589F4F02C040
S11316A0880F991F2A95E2F7CC97D9962C91D99750
S11316B02F5FD9962C93D997243090F1D9961C9208
S11316C0D997D8962C91D8972F5FD8962C93D897E2
S11316D0231708F49CC0D8961C92D8975D962C9139
S11316E05D97222359F05C963C915C9721E0231B83
S11316F05C962C935C975D961C925D975C962C91FE
S11317005C97E1E0F0E0E21BF109EE0FFF1FEA0F46
S1131710FB1F2789308DDB963C932E93DA9777C095
S1131720D9962C91D997213009F071C0D8962C9173
S1131730D89720FF0BC09296ED91FC91939730813E
S11317409D962C919D97232B20830BC09296ED910F
S1131750FC91939730819D962C919D9720952323FE
S11317602083D8962C91D89721FF0BC09496ED91A5
S1131770FC91959730819E962C919E97232B2083E4
S11317800BC09496ED91FC91959730819E962C9187
S11317909E97209523232083D8962C91D89722FFB7
S11317A00BC09696ED91FC91979730819F962C9162
S11317B09F97232B20830BC09696ED91FC919797CE
S11317C030819F962C919F972095232320835B96AD
S11317D02C915B972930D8F0D8962C91D89723FF79
S11317E00BC09896ED91FC9199973081D0962C91ED
S11317F0D097232B20830BC09896ED91FC91999759
S11318003081D0962C91D097209523232083DA968B
S1131810ED91FC91DB979093870080938600109262
S11318208500109284009096CD91DC9191979881D7
S11318309C968C919C978095892388835E96CD9104
S1131840DC915F9798819B968C919B9780958923D7
S1131850888365B19A967C919A97762BD9968C91C8
S1131860D997811109C018968D919C9119971816D2
S113187019060CF40EC13CC1019002B875B965B9E2
S1131880019002B875B965B9019002B875B965B926
S1131890019002B875B965B9019002B875B965B916
S11318A0019002B875B965B9019002B875B965B906
S11318B0019002B875B965B9019002B875B965B9F6
S11318C0019002B875B965B9019002B875B965B9E6
S11318D0019002B875B965B9019002B875B965B9D6
S11318E0019002B875B965B9019002B875B965B9C6
S11318F0019002B875B965B9019002B875B965B9B6
S1131900019002B875B965B9019002B875B965B9A5
S1131910019002B875B965B9019002B875B965B995
S1131920019002B875B965B9019002B875B965B985
S1131930019002B875B965B9019002B875B965B975
S1131940019002B875B965B9019002B875B965B965
S1131950019002B875B965B9019002B875B965B955
S1131960019002B875B965B9019002B875B965B945
S1131970019002B875B965B918968D919C91199723
S11319808034910509F080C0019002B875B965B939
S1131990019002B875B965B9019002B875B965B915
S11319A0019002B875B965B9019002B875B965B905
S11319B0019002B875B965B9019002B875B965B9F5
S11319C0019002B875B965B9019002B875B965B9E5
S11319D0019002B875B965B9019002B875B965B9D5
S11319E0019002B875B965B9019002B875B965B9C5
S11319F0019002B875B965B9019002B875B965B9B5
S1131A00019002B875B965B9019002B875B965B9A4
S1131A10019002B875B965B9019002B875B965B994
S1131A20019002B875B965B9019002B875B965B984
S1131A30019002B875B965B9019002B875B965B974
S1131A40019002B875B965B9019002B875B965B964
S1131A50019002B875B965B9019002B875B965B954
S1131A60019002B875B965B9019002B875B965B944
S1131A70019002B875B965B9019002B875B965B934
S1131A80019002B875B965B9DB96FC93EE93DA97C9
S1131A902FC020E030E010E0280F391FEF01C20F03
S1131AA0D31F4881C0E14C9FA0011124042F00736F
S1131AB0EF01C10FD11D4881C0E44C9FA001112446
S1131AC0402B8E0F9F1FEC01C20FD31F8881880FFC
S1131AD0880F8C70482B42B975B965B91F5F212FE7
S1131AE030E018968D919C91199728173907A4F224
S1131AF0DF91CF911F910F9108951F920F920FB60E
S1131B000F9211240BB60F922F933F934F935F9331
S1131B106F937F938F939F93AF93BF93EF93FF93B1
S1131B20809134059091350592DD86B386BBFF9193
S1131B30EF91BF91AF919F918F917F916F915F9141
S1131B404F913F912F910F900BBE0F900FBE0F90AE
S1131B501F9018959B01215031092E3F3F4F08F1EA
S1131B60DC015C96EC915C975B96FC915B97189614
S1131B704D915C911997F49F9001F59F300D1124BC
S1131B80A901440F551F420F531F2E2F30E0220F7F
S1131B90331FFC01E20FF31F8789908D0C943126CB
S1131BA008950C94320508950E941C26FC01818D31
S1131BB0228D90E0805C9F4F821B91098F7399273F
S1131BC00895FC01918D828D981731F0828DE80F74
S1131BD0F11D858D90E008958FEF9FEF0895FC012E
S1131BE0918D828D981761F0828DDF01A80FB11D50
S1131BF05D968C91928D9F5F9F73928F90E0089574
S1131C008FEF9FEF08958AE89FE0892B41F080E0F1
S1131C1090E0892B21F07ED181110E9400008EE397
S1131C2090E1892B41F080E090E0892B21F026D2CD
S1131C3081110E94000082EF90E1892B41F080E045
S1131C4090E0892B21F0CED281110E94000086EA17
S1131C5091E1892B41F080E090E0892B21F076D34B
S1131C6081110E9400000895FC01848DDF01A80FFA
S1131C70B11DA35ABF4F2C91848D90E001968F73B0
S1131C809078848FA689B7892C93A089B1898C9187
S1131C9080648C93938D848D981306C00288F38995
S1131CA0E02D80818F7D80830895CF93DF93EC01B5
S1131CB0888D81110AC01AC00FB607FC08C0808144
S1131CC085FF05C00DC0CE01CFDFEA89FB89808185
S1131CD085FDF2CFA889B9898C9186FFEDCF06C026
S1131CE0A889B9898C9185FFF2CFEDCFDF91CF918F
S1131CF008950F931F93CF93DF93EC01162F9B8DC1
S1131D008C8D981323C0E889F989808185FD25C0CD
S1131D101DC00FB607FC07C0E889F989808185FFDB
S1131D2002C0CE01A1DF9C8D091799F38B8DFE01B2
S1131D30E80FF11DE35AFF4F10830B8FEA89FB89EB
S1131D4080818062808381E0888F0FC08B8D90E0DA
S1131D5001968F739078082FE6CFEE89FF89608310
S1131D60E889F98980818064808381E090E0DF9153
S1131D70CF911F910F910895CF92DF92EF92FF922E
S1131D801F93CF93DF93EC016A017B01122FE88943
S1131D90F98982E08083411581EE58076105710558
S1131DA0B1F060E079E08DE390E0A70196010E9434
S1131DB0E523BA01A90141505109610971097695D8
S1131DC0679557954795411580E15807A8F0E8892C
S1131DD0F989108260E874E88EE190E0A701960129
S1131DE00E94E523BA01A901415051096109710911
S1131DF07695679557954795EC85FD855083EE85D7
S1131E00FF854083188EEC89FD891083EA89FB895C
S1131E10808180618083EA89FB89808188608083F6
S1131E20EA89FB89808180688083EA89FB898081D3
S1131E308F7D8083DF91CF911F91FF90EF90DF9092
S1131E40CF9008951F920F920FB60F9211240BB6E4
S1131E500F922F938F939F93AF93BF93EF93FF931F
S1131E60E0914605F0914705808182FD17C0E0911D
S1131E704C05F0914D05208180914F058F5F8F7344
S1131E8090915005891779F0EFE4F5E0A081B0E076
S1131E90AA5CBA4F5D962C93808305C0E0914C05F3
S1131EA0F0914D058081FF91EF91BF91AF919F918A
S1131EB08F912F910F900BBE0F900FBE0F901F901C
S1131EC018951F920F920FB60F9211240BB60F9212
S1131ED02F933F934F935F936F937F938F939F932E
S1131EE0AF93BF93EF93FF9386E395E0BDDEFF913D
S1131EF0EF91BF91AF919F918F917F916F915F917E
S1131F004F913F912F910F900BBE0F900FBE0F90EA
S1131F101F90189586E395E049DE21E0892B09F4AA
S1131F2020E0822F0895109239051092380588EE2A
S1131F3093E0A0E0B0E080933A0590933B05A09332
S1131F403C05B0933D058BE392E090933705809375
S1131F50360585EC90E0909343058093420584EC2C
S1131F6090E0909345058093440580EC90E0909335
S1131F7047058093460581EC90E090934905809352
S1131F80480582EC90E090934B0580934A0586ECDB
S1131F9090E090934D0580934C0510924F0510925C
S1131FA05005109251051092520508951F920F92F8
S1131FB00FB60F9211240BB60F922F938F939F930A
S1131FC0AF93BF93EF93FF93E091E305F091E405A2
S1131FD0808182FD17C0E091E905F091EA05208136
S1131FE08091EC058F5F8F739091ED05891779F0DF
S1131FF0ECEEF5E0A081B0E0AD52BA4F5D962C93C3
S1132000808305C0E091E905F091EA058081FF91A4
S1132010EF91BF91AF919F918F912F910F900BBE34
S11320200F900FBE0F901F9018951F920F920FB62E
S11320300F9211240BB60F922F933F934F935F93FC
S11320406F937F938F939F93AF93BF93EF93FF937C
S113205083ED95E009DEFF91EF91BF91AF919F91E0
S11320608F917F916F915F914F913F912F910F903D
S11320700BBE0F900FBE0F901F90189583ED95E047
S113208095DD21E0892B09F420E0822F0895109238
S1132090D6051092D50588EE93E0A0E0B0E08093D9
S11320A0D7059093D805A093D905B093DA058BE3AF
S11320B092E09093D4058093D3058DEC90E09093B7
S11320C0E0058093DF058CEC90E09093E20580932B
S11320D0E10588EC90E09093E4058093E30589ECB6
S11320E090E09093E6058093E5058AEC90E0909368
S11320F0E8058093E7058EEC90E09093EA058093E1
S1132100E9051092EC051092ED051092EE0510927F
S1132110EF0508951F920F920FB60F9211240BB67C
S11321200F922F938F939F93AF93BF93EF93FF934C
S1132130E0918006F0918106808182FD17C0E091D4
S11321408606F09187062081809189068F5F8F73C0
S113215090918A06891779F0E9E8F6E0A081B0E069
S1132160A059B94F5D962C93808305C0E0918606F3
S1132170F09187068081FF91EF91BF91AF919F917C
S11321808F912F910F900BBE0F900FBE0F901F9049
S113219018951F920F920FB60F9211240BB60F923F
S11321A02F933F934F935F936F937F938F939F935B
S11321B0AF93BF93EF93FF9380E796E055DDFF91D4
S11321C0EF91BF91AF919F918F917F916F915F91AB
S11321D04F913F912F910F900BBE0F900FBE0F9018
S11321E01F90189580E796E0E1DC21E0892B09F443
S11321F020E0822F0895109273061092720688EEE2
S113220093E0A0E0B0E08093740690937506A093E9
S11322107606B09377068BE392E0909371068093F1
S1132220700685ED90E090937D0680937C0684EDA6
S113223090E090937F0680937E0680ED90E09093EB
S113224081068093800681ED90E0909383068093CD
S1132250820682ED90E0909385068093840686ED55
S113226090E09093870680938606109289061092D8
S11322708A0610928B0610928C0608951F920F9274
S11322800FB60F9211240BB60F922F938F939F9337
S1132290AF93BF93EF93FF93E0911D07F0911E0757
S11322A0808182FD17C0E0912307F09124072081EB
S11322B0809126078F5F8F7390912707891779F094
S11322C0E6E2F7E0A081B0E0A35FB84F5D962C93FF
S11322D0808305C0E0912307F09124078081FF915A
S11322E0EF91BF91AF919F918F912F910F900BBE62
S11322F00F900FBE0F901F9018951F920F920FB65C
S11323000F9211240BB60F922F933F934F935F9329
S11323106F937F938F939F93AF93BF93EF93FF93A9
S11323208DE097E0A1DCFF91EF91BF91AF919F9178
S11323308F917F916F915F914F913F912F910F906A
S11323400BBE0F900FBE0F901F9018958DE097E075
S11323502DDC21E0892B09F420E0822F08951092CE
S1132360100710920F0788EE93E0A0E0B0E080938E
S1132370110790931207A0931307B09314078BE3EC
S113238092E090930E0780930D0785E391E090937C
S11323901A078093190784E391E090931C078093B4
S11323A01B0780E391E090931E0780931D0781E350
S11323B091E09093200780931F0782E391E090932C
S11323C022078093210786E391E09093240780936A
S11323D023071092260710922707109228071092BD
S11323E0290708950895AF92BF92CF92DF92EF929A
S11323F0FF920F931F93CF93DF935C017B01C0E0A7
S1132400D0E000E010E0F501EC0FFD1F4AE050E0E1
S11324106281C70141D16C016EE2C7018AD08C0D83
S11324209D1D080F191F2196C330D10561F74AE09D
S113243050E0F5016581C7012FD1800F911FDF9115
S1132440CF911F910F91FF90EF90DF90CF90BF90AD
S1132450AF9008950F93FC018BE492E09183808305
S113246062834383248305830F9108950F9300E0CF
S113247020E040E060E08AEA97E0ECDF0F91089505
S11324800C94112408950C94A9240895CF92DF92FA
S1132490EF92FF920F931F93CF93DF936C0141153B
S11324A05105B1F0062F172FEA01E12CF12CD801C8
S11324B06D918D01D601ED91FC910190F081E02D9B
S11324C0C6011995E80EF91E2197209781F702C0DD
S11324D0E12CF12CC701DF91CF911F910F91FF9057
S11324E0EF90DF90CF900895DC01ED91FC91DB013A
S11324F014964D915C9115976D917C910280F381B6
S1132500E02D199508956115710581F0FB01019085
S11325100020E9F73197AF01461B570BDC01ED9121
S1132520FC910280F381E02D1995089580E090E0FC
S11325300895DC01ED91FC910190F081E02D199555
S113254008950F931F93CF93DF93EC016DE0F1DFB8
S11325508C016AE0CE01EDDF800F911FDF91CF91F6
S11325601F910F9108950F931F93CF93DF93EC0165
S1132570CADF8C01CE01E5DF800F911FDF91CF917F
S11325801F910F9108956F927F928F929F92AF92B5
S1132590BF92CF92DF92EF92FF920F931F93CF934C
S11325A0DF93CDB7DEB7A1970FB6F894DEBF0FBEA9
S11325B0CDBF6C01742E352F862F972F622E19A252
S11325C021E0261520F00F2EFAE06F2EF02D7E016B
S11325D0A1E2EA0EF11C862C912CA12CB12C672DC2
S11325E0732FA50194010E94E523E22F732F022F7C
S11325F0132F242F352FF72D6E9EF0191124B1E0DF
S1132600EB1AF108FA3010F4F05D01C0F95CD7015F
S1132610FC93012B022B032B29F07E2E372F842FC2
S1132620952FDDCFE114F10491F0F7010190002022
S1132630E9F73197AF014E195F09D601ED91FC918D
S11326400280F381E02DB701C601199502C080E034
S113265090E0A1960FB6F894DEBF0FBECDBFDF9118
S1132660CF911F910F91FF90EF90DF90CF90BF908B
S1132670AF909F908F907F906F90089521153105B2
S113268049F4DC01ED91FC910190F081E02D642F7F
S11326901995089578CF08959A01462F50E060E087
S11326A070E0ECCF08958230A9F028F4882349F033
S11326B0813051F00895843009F1E8F0853009F152
S11326C0089510926E000895EFE6F0E080818D7F0A
S11326D080830895E0E7F0E080818D7F808381E04E
S11326E08093B000E1EBF0E08081887F8460808398
S11326F01092B30008951092710008951092720020
S11327000895109273000895CF93C82F8091060204
S11327108C1307C0E3E0F6E084919FEF90930602E8
S113272001C08FEFC0DF60E08C2F95D3CF91089567
S11327301F920F920FB60F9211240BB60F922F9384
S11327403F934F935F936F937F938F939F93AF9335
S1132750BF93EF93FF938091B3079091B407A09137
S1132760B507B091B607892B8A2B8B2B51F1809139
S1132770B007E091B107F091B20790818927808377
S11327808091B3079091B407A091B507B091B607B3
S1132790181619061A061B06BCF48091B30790910B
S11327A0B407A091B507B091B6070197A109B10983
S11327B08093B3079093B407A093B507B093B6077B
S11327C003C080910602A0DFFF91EF91BF91AF910A
S11327D09F918F917F916F915F914F913F912F9135
S11327E00F900BBE0F900FBE0F901F9018951F9265
S11327F00F920FB60F9211240BB60F922F933F93A3
S11328004F935F936F937F938F939F93AF93BF93F4
S1132810EF93FF938091BB079091BC07892B29F01C
S1132820E091BB07F091BC071995FF91EF91BF911F
S1132830AF919F918F917F916F915F914F913F9154
S11328402F910F900BBE0F900FBE0F901F901895F5
S11328501F920F920FB60F9211240BB60F922F9363
S11328603F934F935F936F937F938F939F93AF9314
S1132870BF93EF93FF938091BD079091BE07892B7F
S113288029F0E091BD07F091BE071995FF91EF91F2
S1132890BF91AF919F918F917F916F915F914F9174
S11328A03F912F910F900BBE0F900FBE0F901F9072
S11328B018951F920F920FB60F9211240BB60F9218
S11328C02F933F934F935F936F937F938F939F9334
S11328D0AF93BF93EF93FF938091BF079091C0078D
S11328E0892B29F0E091BF07F091C0071995FF915A
S11328F0EF91BF91AF919F918F917F916F915F9174
S11329004F913F912F910F900BBE0F900FBE0F90E0
S11329101F9018951F920F920FB60F9211240BB6A9
S11329200F922F933F934F935F936F937F938F9364
S11329309F93AF93BF93EF93FF938091C1079091BF
S1132940C207892B29F0E091C107F091C2071995BC
S1132950FF91EF91BF91AF919F918F917F916F9173
S11329605F914F913F912F910F900BBE0F900FBE2F
S11329700F901F9018951F920F920FB60F9211246B
S11329800BB60F922F933F934F935F936F937F9365
S11329908F939F93AF93BF93EF93FF938091B70768
S11329A09091B807892B29F0E091B707F091B80707
S11329B01995FF91EF91BF91AF919F918F917F9165
S11329C06F915F914F913F912F910F900BBE0F909C
S11329D00FBE0F901F9018951F920F920FB60F9273
S11329E011240BB60F922F933F934F935F936F93E2
S11329F07F938F939F93AF93BF93EF93FF938091B4
S1132A00B9079091BA07892B29F0E091B907F091A1
S1132A10BA071995FF91EF91BF91AF919F918F9153
S1132A207F916F915F914F913F912F910F900BBECA
S1132A300F900FBE0F901F9018951F920F920FB614
S1132A400F9211240BB60F922F933F934F935F93E2
S1132A506F937F938F939F93AF93BF93EF93FF9362
S1132A608091C3079091C407892B29F0E091C30793
S1132A70F091C4071995FF91EF91BF91AF919F9188
S1132A808F917F916F915F914F913F912F910F9013
S1132A900BBE0F900FBE0F901F9018951F920F92B0
S1132AA00FB60F9211240BB60F922F933F934F93AF
S1132AB05F936F937F938F939F93AF93BF93EF93A2
S1132AC0FF938091C5079091C607892B29F0E09167
S1132AD0C507F091C6071995FF91EF91BF91AF918A
S1132AE09F918F917F916F915F914F913F912F9122
S1132AF00F900BBE0F900FBE0F901F9018951F9252
S1132B000F920FB60F9211242F933F938F939F939D
S1132B10AF93BF938091C8079091C907A091CA074A
S1132B20B091CB073091C70723E0230F2D3720F452
S1132B300196A11DB11D05C026E8230F0296A11D13
S1132B40B11D2093C7078093C8079093C907A0932A
S1132B50CA07B093CB078091CC079091CD07A09181
S1132B60CE07B091CF070196A11DB11D8093CC076C
S1132B709093CD07A093CE07B093CF07BF91AF91A9
S1132B809F918F913F912F910F900FBE0F901F90A7
S1132B9018952FB7F8946091C8077091C907809170
S1132BA0CA079091CB072FBF08953FB7F89480913F
S1132BB0CC079091CD07A091CE07B091CF0726B551
S1132BC0A89B05C02F3F19F00196A11DB11D3FBF61
S1132BD0BA2FA92F982F8827820F911DA11DB11DEF
S1132BE0BC01CD01660F771F881F991F660F771FE1
S1132BF0881F991F0895CF92DF92EF92FF92CF938F
S1132C00DF936B017C01D1DFEB01C114D104E1043A
S1132C10F10499F0E7DBC9DF6C1B7D0B683E734060
S1132C2038F081E0C81AD108E108F108C851DC4F36
S1132C30C114D104E104F10469F7DF91CF91FF904D
S1132C40EF90DF90CF900895789484B5826084BD2E
S1132C5084B5816084BD85B5826085BD85B581609C
S1132C6085BDEEE6F0E0808181608083E1E8F0E0FC
S1132C701082808182608083808181608083E0E82B
S1132C80F0E0808181608083E1EBF0E0808184600A
S1132C908083E0EBF0E0808181608083E1E9F0E013
S1132CA0808182608083808181608083E0E9F0E0BC
S1132CB0808181608083E1EAF0E0808182608083AA
S1132CC0808181608083E0EAF0E08081816080839C
S1132CD0E1E2F1E080818260808380818160808391
S1132CE0E0E2F1E0808181608083EAE7F0E08081C6
S1132CF0846080838081826080838081816080831E
S1132D008081806880831092C100089590E0FC0166
S1132D103197E231F10508F05FC0EE58FF4F0C9493
S1132D200724E0E8F0E080818F7780830895E0E86D
S1132D30F0E080818F7D80830895E0E8F0E0808179
S1132D40877F8083089584B58F7784BD089584B583
S1132D508F7D84BD0895E0EBF0E080818F778083E0
S1132D600895E0EBF0E080818F7D80830895E0E9B1
S1132D70F0E080818F7780830895E0E9F0E080813E
S1132D808F7D80830895E0E9F0E08081877F8083F0
S1132D900895E0EAF0E080818F7780830895E0EA87
S1132DA0F0E080818F7D80830895E0EAF0E0808107
S1132DB0877F80830895E0E2F1E080818F778083CC
S1132DC00895E0E2F1E080818F7D80830895E0E260
S1132DD0F1E08081877F80830895CF93DF9390E033
S1132DE0FC01E65BF94F2491FC01E057F94F849113
S1132DF0882371F190E0880F991FFC01E051F94F8D
S1132E00A591B4918A52994FFC01C591D491611155
S1132E100BC08FB7F8949C91209592239C93E881E2
S1132E202E2328838FBF14C0623061F48FB7F894C7
S1132E303C91922F909593239C93E8812E2B288389
S1132E408FBF06C08FB7F894EC912E2B2C938FBFB5
S1132E50DF91CF9108951F93CF93DF93C62F282F2F
S1132E6030E0F901EC5FF94F8491F901E65BF94F29
S1132E701491F901E057F94FD491DD23C1F0811188
S1132E8045DF2D2F30E0F901EE0FFF1FEA52F94F15
S1132E90A591B4918FB7F894C11105C0EC91109528
S1132EA01E231C9303C0EC911E2B1C938FBFDF9138
S1132EB0CF911F910895FC01808191810C94A924E4
S1132EC00895CF93DF93EC0188819981009711F0E5
S1132ED00E94A924198218821D821C821B821A82D4
S1132EE0DF91CF9108950F931F93CF93DF93EC015C
S1132EF08B016F5F7F4F888199810E9438250097ED
S1132F0031F0998388831B830A8381E001C080E0C8
S1132F10DF91CF911F910F910895CF93DF93EC012F
S1132F2088819981892B29F08A819B81861797074B
S1132F3068F4CE01D8DF882361F08C819D81892BD0
S1132F4039F4E881F981108281E003C081E001C095
S1132F5081E0DF91CF910895EF92FF920F931F9339
S1132F60CF93DF93EC017B018A01BA01D6DF811193
S1132F7003C0CE01A6DF07C01D830C83B70188817F
S1132F8099810E944126CE01DF91CF911F910F912B
S1132F90FF90EF900895FC01118210821382128237
S1132FA0158214826115710549F0FB01019000201E
S1132FB0E9F73197AF01461B570BCECF0895CF9356
S1132FC0DF93EC01FB018617970751F06081718153
S1132FD06115710521F044815581BEDF01C071DFA7
S1132FE0CE01DF91CF910895FC01118210821382EA
S1132FF0128215821482E3CF0895CF93DF93EC01FC
S11330006115710551F0FB0101900020E9F731973A
S1133010AF01461B570BA0DF01C053DFCE01DF9188
S1133020CF910895EF92FF920F931F93CF93DF9365
S1133030EC018B016C817D8101151105B9F04115FD
S11330405105B1F07A01E60EF71EB70166DF882359
S113305081F0288139818C819D81B801820F931F71
S11330600E944126FD82EC8281E003C080E001C021
S113307081E0DF91CF911F910F91FF90EF90089520
S11330806115710551F0FB0101900020E9F73197BA
S1133090AF01461B570BC6CF089580E00895CF9328
S11330A0DF931F921F92CDB7DEB769831A8241E086
S11330B050E0BE016F5F7F4FB5DF0F900F90DF913F
S11330C0CF910895CF93DF93EC01FB0144815581A7
S11330D060817181A7DF811102C0CE01F2DECE01D1
S11330E0DF91CF910895CF93DF93EC0161157105C2
S11330F059F0FB0101900020E9F73197AF01461B1D
S1133100570B90DF811102C0CE01DBDECE01DF91CF
S1133110CF910895FC01CA01DB0114964D915C9195
S1133120159724813581241B350B2817390798F00E
S1133130208131812115310581F06D917C916115DA
S1133140710569F0820F931F0E94482621E0892BA4
S113315039F020E005C020E003C020E001C020E0F9
S1133160822F0895FC0144815581FB01248135811E
S11331704217530720F040E050E0CCCF089580E0A0
S11331800895FC0144815581FB0124813581421756
S11331905307B0F0FC0180819181009799F0FB0105
S11331A0608171816115710579F0421B530B840FA5
S11331B0951F0E94382621E0892B39F020E005C0B4
S11331C020E003C020E001C020E0822F0895FC012C
S11331D0248135816217730748F4808191810097B7
S11331E039F0FC01E60FF71F8081089580E008950F
S11331F080E00895ECCF08950F931F93CF93DF934E
S1133200EB0141155105F9F02097E9F0FC016481C7
S113321075812617370710F0188215C0621B730BCF
S11332208A01015011096017710708F48B01FC0130
S113323060817181620F731FA801CE010E9456261E
S1133240C00FD11F1882DF91CF911F910F91089564
S1133250CF93DF93EC01CB012C813D81621773077F
S113326010F541155105F9F0B901681B790B4617A2
S1133270570708F4BA01E881F981261B370B3D830F
S11332802C83A901481B590B680F791F6E0F7F1FF0
S11332908E0F9F1F0E945626E881F9818C819D81A3
S11332A0E80FF91F1082DF91CF910895AF92BF927A
S11332B0CF92DF92EF92FF920F931F93CF93DF93FE
S11332C06C01DC01AD90BC901197A114B104D9F14B
S11332D01496CD91DC9115972097A9F1750187017A
S11332E0BFEFEB1AFB0AF801808190E00E942026D0
S11332F0892BA9F72197CA0DDB1D01C0219788816D
S113330090E00E942026892B19F0C017D107B0F74E
S11333102196AE01401B510BD60115965C934E933A
S11333201497A016B10620F4B801C5010E942826FE
S1133330D601ED91FC91119714968D919C9115975E
S1133340E80FF91F1082DF91CF911F910F91FF9029
S1133350EF90DF90CF90BF90AF9008950F931F939D
S1133360CF93DF9300D000D0CDB7DEB78C016DE4EE
S113337072E0CE0101960FDEBE016F5F7F4FC80180
S113338083D1182FCE01019696DD812F26960FB694
S1133390F894DEBF0FBECDBFDF91CF911F910F9187
S11333A00895BF92CF92DF92EF92FF920F931F93F3
S11333B0CF93DF93CDB7DEB76E970FB6F894DEBF29
S11333C00FBECDBF8C016EE572E0CE014996E3DD00
S11333D06CE572E0CE014396DEDDC801C0D065E83D
S11333E072E0D80191968D919C9192978CD8F801B6
S11333F081A192A1DC01ED91FC910284F385E02D81
S11334001995C7DB6B017C016EE572E0CE0149962C
S1133410F4DDB8E8CB0EB3E1DB1EE11CF11C5AC0AD
S1133420F80181A192A1DC01ED91FC910480F58168
S1133430E02D19951816190674F4F80181A192A1CA
S1133440DC01ED91FC910680F781E02D1995682F40
S1133450CE01499624DEBE016D5E7F4FCE014996B2
S113346090DE882309F436C06DE772E0CE010D9634
S113347092DDBE01635F7F4FCE01499673DEB82EA5
S1133480CE010D9618DDB1102EC06AE872E0CE01AF
S1133490079681DDBE01695F7F4FCE01499662DEEA
S11334A0B82ECE01079607DDBB2079F06EE872E0F6
S11334B0CE01019670DDBE016F5F7F4FC801E4D07D
S11334C0CE010196F8DC11E00FC06EE572E0CE018A
S11334D0499693DD5EDB6C157D058E059F0508F42A
S11334E09FCF1EEF01C01FEFCE014396E4DCCE0157
S11334F04996E1DC812F6E960FB6F894DEBF0FBEBD
S1133500CDBFDF91CF911F910F91FF90EF90DF908E
S1133510CF90BF900895CF92DF92EF92FF920F93D6
S11335201F93CF93DF937C016B01EC0122968C01F6
S1133530005E1F4F6EE572E0CE012DDD2696C017AA
S1133540D107C1F7F701D2A2C1A210A2DF91CF9196
S11335501F910F91FF90EF90DF90CF9008958F927D
S11335609F92AF92BF92CF92DF92EF92FF920F930E
S11335701F93CF93DF93CDB7DEB762970FB6F8945E
S1133580DEBF0FBECDBF8C016CE572E0CE010D969F
S113359002DD6EE572E0CE010796FDDC6DE572E0BA
S11335A0D80191968D919C9192970E948312F80173
S11335B081A192A1DC01ED91FC910284F385E02DBF
S11335C01995E7DA6B017C012CC0F80181A192A165
S11335D0DC01ED91FC910480F581E02D199518161C
S11335E019068CF4F80181A192A1DC01ED91FC9102
S11335F00680F781E02D1995682FCE0107964FDDDF
S1133600C8DA6B017C01C5DA46015701B8EE8B0EAE
S1133610B3E09B1EA11CB11C86169706A806B9062A
S1133620C0F0BE01635F7F4FCE010796AADD8130F3
S113363061F66DE772E0CE010196ADDCBE016F5F0D
S11336407F4FCE0107968EDDCE01019634DC11E06A
S113365001C01EEFCE0107962EDCCE010D962BDCA9
S1133660812F62960FB6F894DEBF0FBECDBFDF91F7
S1133670CF911F910F91FF90EF90DF90CF90BF906B
S1133680AF909F908F900895BF92CF92DF92EF9268
S1133690FF920F931F93CF93DF93CDB7DEB7689755
S11336A00FB6F894DEBF0FBECDBF8C017B016EE573
S11336B072E0CE0143966FDC6CE572E0CE010D96AC
S11336C06ADCC8014CDFB701D80191968D919C91B9
S11336D092970E9474126DE572E0F80181A192A1A3
S11336E00E948312D80191968D919C919297DC014E
S11336F0ED91FC910284F385E02D19954ADA6B0172
S11337007C01B8EBCB0EBBE0DB1EE11CF11C4AC014
S1133710F80181A192A1DC01ED91FC910480F58175
S1133720E02D19951816190674F4F80181A192A1D7
S1133730DC01ED91FC910680F781E02D1995682F4D
S1133740CE014396ACDCBE01635F7F4FCE0143964E
S113375018DD882339F16CE672E0CE0107961BDC94
S1133760BE01695F7F4FCE014396FCDCB82ECE01CB
S11337700796A1DBB1101FC061EA72E0CE01019689
S11337800ADCBE016F5F7F4FCE014396EBDCB82E9F
S1133790CE01019690DBB11010C06EE572E0CE014F
S11337A043962BDCF6D96C157D058E059F0508F430
S11337B0AFCF1EEF03C01FEF01C011E0CE010D9685
S11337C07ADBCE01439677DB812F68960FB6F894A7
S11337D0DEBF0FBECDBFDF91CF911F910F91FF9040
S11337E0EF90DF90CF90BF9008950F931F93CF93E6
S11337F0DF9300D000D0CDB7DEB78C0164EA72E06D
S1133800CE010196C8DBBE016F5F7F4FC8013CDF6C
S1133810182FCE0101964FDB812F26960FB6F89410
S1133820DEBF0FBECDBFDF91CF911F910F910895E1
S11338300F931F93CF93DF9300D000D0CDB7DEB7A3
S11338408C0168EA72E0CE010196A5DBBE016F5FD0
S11338507F4FC80119DF182FCE0101962CDB812F71
S113386026960FB6F894DEBF0FBECDBFDF91CF9181
S11338701F910F910895BF92CF92DF92EF92FF9222
S11338800F931F93CF93DF93CDB7DEB76E970FB629
S1133890F894DEBF0FBECDBF8C016EE572E0CE01A1
S11338A0499679DB6CE572E0CE01439674DBC8017E
S11338B056DE69ED72E0D80191968D919C919297B4
S11338C00E9483126DE572E0F80181A192A10E9429
S11338D08312D80191968D919C919297DC01ED9180
S11338E0FC910284F385E02D199553D96B017C0179
S11338F0B0E7CB0EB7E1DB1EE11CF11C76C0F8018A
S113390081A192A1DC01ED91FC910480F581E02D6F
S113391019951816190674F4F80181A192A1DC0115
S1133920ED91FC910680F781E02D1995682FCE0169
S11339304996B5DBBE016D5E7F4FCE01499621DC11
S1133940882309F452C06CE672E0CE010D9623DBA5
S1133950BE01635F7F4FCE01499604DCB82ECE01D1
S11339600D96A9DAB1104AC06DED72E0CE0107964A
S113397012DBBE01695F7F4FCE014996F3DBB82E9F
S1133980CE01079698DABB2059F16EE872E0CE01B9
S1133990019601DBBE016F5F7F4FC80175DECE016A
S11339A0019689DA64EF71E080E090E024D90AC0DE
S11339B0F80181A192A1DC01ED91FC910680F781CF
S11339C0E02D1995F80181A192A1DC01ED91FC9102
S11339D00480F581E02D1995892B51F711E00FC072
S11339E06EE572E0CE01499608DBD3D86C157D05EF
S11339F08E059F0508F483CF1EEF01C01FEFCE0193
S1133A00439659DACE01499656DA812F6E960FB64F
S1133A10F894DEBF0FBECDBFDF91CF911F910F9100
S1133A20FF90EF90DF90CF90BF9008958F929F9278
S1133A30AF92BF92CF92DF92EF92FF920F931F93B8
S1133A40CF93DF93CDB7DEB76E970FB6F894DEBF92
S1133A500FBECDBF8C017B016EE572E0CE014996AD
S1133A609ADA6CE572E0CE01439695DAC80177DD07
S1133A7060EE72E0D80191968D919C9192970E948C
S1133A808312F80181A192A1DC01ED91FC910284E1
S1133A90F385E02D19957DD84B015C01B8EB8B0EB5
S1133AA0BBE09B1EA11CB11CDD24D39468C0F801AB
S1133AB081A192A1DC01ED91FC910480F581E02DBE
S1133AC019951816190674F4F80181A192A1DC0164
S1133AD0ED91FC910680F781E02D1995682FCE01B8
S1133AE04996DDDABE016D5E7F4FCE01499649DB12
S1133AF0882309F444C06CE672E0CE010D964BDADB
S1133B00BE01635F7F4FCE0149962CDBC82ECE01E8
S1133B100D96D1D9C1103CC061EA72E0CE0107967E
S1133B203ADABE01695F7F4FCE0149961BDBC82E8E
S1133B30CE010796C0D9C1102DC065EE72E0CE014A
S1133B40019629DABE016F5F7F4FCE0149960ADBE9
S1133B50C82ECE010196AFD9CC2061F064E070E0AC
S1133B60CE01499647DB833419F4F701D08202C0B1
S1133B70D7011C926EE572E0CE0149963EDA09D86F
S1133B80681579058A059B0508F491CF1EEF03C0DB
S1133B901FEF01C011E0CE0143968DD9CE014996A5
S1133BA08AD9812F6E960FB6F894DEBF0FBECDBFB3
S1133BB0DF91CF911F910F91FF90EF90DF90CF9005
S1133BC0BF90AF909F908F9008958F929F92AF92E5
S1133BD0BF92CF92DF92EF92FF920F931F93CF93F6
S1133BE0DF93CDB7DEB769970FB6F894DEBF0FBE8B
S1133BF0CDBF7C018B01842E6CE572E0CE0143962F
S1133C00CAD9BE01675E7F4FC70110DF898D882343
S1133C1029F00F2EF4E1AF2EF02D04C00F2EFDE796
S1133C20AF2EF02D882009F449C0982CD12C9A1479
S1133C3008F4A92C9A186EE572E0CE010D96ABD962
S1133C40AA2081F0BA2CBD0CCC24C394CD0CF8016D
S1133C50ED0DF11D6081CE010D9621DACB1419F022
S1133C60DC2CF2CFBD2C69EE72E0CE01079693D91D
S1133C70BE01635F7F4FCE01079624DA6DE572E0E3
S1133C8032DABC01CE010D969AD9CE01079613D92A
S1133C90BE01635F7F4FCE010196A6D9BE016F5F5F
S1133CA07F4FC701F1DCD82ECE01019604D9CE0195
S1133CB00D9601D9B81420F4DB2CB9CFDD24D394AC
S1133CC0CE014396F8D88D2D69960FB6F894DEBFD1
S1133CD00FBECDBFDF91CF911F910F91FF90EF9059
S1133CE0DF90CF90BF90AF909F908F900895CF9228
S1133CF0DF92EF92FF920F931F93CF93DF936C01A8
S1133D007B01FB01048115810F5F1F4FC8010E94D5
S1133D104012EC0120E030E0A801BC01C7016CDADC
S1133D20402FBE01C60151DF182FCE010E9443125D
S1133D30812FDF91CF911F910F91FF90EF90DF9032
S1133D40CF900895EF92FF920F931F93CF93DF9339
S1133D5084E098E00E94840A61E084E098E00E9494
S1133D60FA0727E047E067E084E098E00E94FE0A53
S1133D70BC0184E098E00E9400084CE050E061E05F
S1133D8070E084E098E00E94F4076EEE72E084E054
S1133D9098E00E94831268EB7BE080E090E00E9450
S1133DA0FB15E0910408F0910508C685D78520E04D
S1133DB040E060E084E098E00E94FE0A7C010FE1AC
S1133DC010E02FE130E040E050E060E070E084E09B
S1133DD098E0FE01199564EF71E080E090E00E94A4
S1133DE0FB15DF91CF911F910F91FF90EF900895F4
S1133DF0EF92FF920F931F93CF93DF93CAE0D0E02B
S1133E00E12CF12C00E011E081EE97E034DD81300B
S1133E1099F481EE97E0E9DC8130B9F481EE97E022
S1133E2007DD8130E1F481EE97E025DD813049F151
S1133E30E12EF12E012F1EC0011108C064EF72E0C3
S1133E4086E395E00E94B31223C0012FF11009C04C
S1133E5068E073E086E395E00E94B31219C0F12E86
S1133E60012FE11007C06EE173E086E395E00E9444
S1133E70B3120EC069E373E086E395E00E94B312C7
S1133E8007C064E573E086E395E00E94B3120BC0BB
S1133E902197209709F0B8CF69E773E086E395E0AE
S1133EA00E94B312FFCFDF91CF911F910F91FF902A
S1133EB0EF90089526E040E855E260E070E086E384
S1133EC095E00E94BC0E26E040E855E260E070E018
S1133ED083ED95E00E94BC0E67EB73E086E395E00A
S1133EE00E94B31268EE73E080E090E00E94FB153C
S1133EF029DF7EDF6DEC73E086E395E00E94B31268
S1133F0068EE73E080E090E00C94FB150895EF9266
S1133F10FF920F931F93CF93DF93EC018091D5070A
S1133F2081117EC10E94C9150091D1071091D20759
S1133F302091D3073091D407AB01BC01401B510B36
S1133F40620B730B453F51406105710508F464C170
S1133F508091D007811153C1C230D10509F459C0F1
S1133F60C330D10509F4A7C0219709F0D9C0E09165
S1133F700408F0910508C681D78125E047E064E094
S1133F8084E098E00E94FE0A7C010FE010E025E046
S1133F9030E04FE050E06BE170E084E098E0FE0137
S1133FA01995E0910408F0910508C681D78125E0B0
S1133FB047E064E084E098E00E94FE0A7C010EE0A1
S1133FC010E026E030E044E050E060E170E084E09E
S1133FD098E0FE011995E0910408F0910508C68166
S1133FE0D78125E047E064E084E098E00E94FE0A7F
S1133FF07C0100E110E026E030E04AE150E060E1BD
S113400070E084E098E0FE01199581E08093D00788
S1134010F6C0E0910408F0910508C681D78125E037
S113402047E064E084E098E00E94FE0A7C010FE02F
S113403010E02BE130E04FE050E065E070E084E018
S113404098E0FE011995E0910408F0910508C681F5
S1134050D78125E047E064E084E098E00E94FE0A0E
S11340607C010EE010E02AE130E044E050E060E141
S113407070E084E098E0FE011995E0910408F09165
S11340800508C681D78125E047E064E084E098E034
S11340900E94FE0A7C0100E110E02AE130E04AE1DE
S11340A050E060E170E084E098E0FE01199581E061
S11340B08093D007A4C020E040E067E084E098E06B
S11340C00E94FE0A8C012FE030E04FE050E06FE0E8
S11340D070E084E098E00E9459064CE050E064E00F
S11340E070E084E098E00E94F40761E084E098E0E6
S11340F00E94FA0720E040E060E084E098E00E943B
S1134100FE0ABC0184E098E00E9400086EEE73E0B1
S113411084E098E00E94831281E08093D0076FC00E
S113412022E046E063E084E098E00E94FE0A8C010D
S113413023E030E048E050E068E070E084E098E09C
S11341400E94590622E046E063E084E098E00E9481
S1134150FE0A8C0123E030E048E050E068E170E0C2
S113416084E098E00E945906E0910408F091050863
S1134170C085D18522E046E063E084E098E00E94B7
S1134180FE0A8C0124E030E042E150E064E070E09B
S113419084E098E0FE011995E0910408F091050887
S11341A0C285D38522E046E063E084E098E00E9483
S11341B0FE0A8C0126E130E046E150E065E070E063
S11341C084E098E0FE011995E0910408F091050857
S11341D0C085D18522E046E063E084E098E00E9457
S11341E0FE0A8C0124E030E042E150E06BE170E033
S11341F084E098E0FE01199581E08093D00781E086
S11342008093D5070E94C9156093D1077093D20794
S11342108093D3079093D4078091D5078823E9F13D
S11342200E94C9150091D1071091D2072091D3079C
S11342303091D407DC01CB01801B910BA20BB30B93
S1134240893C9105A105B10540F1E0910408F09184
S11342500508C685D78520E040E060E084E098E06A
S11342600E94FE0A7C010FE110E02FE130E040E003
S113427050E060E070E084E098E0FE01199510924F
S1134280D0071092D5070E94C9156093D107709387
S1134290D2078093D3079093D407DF91CF911F91D6
S11342A00F91FF90EF9008958091D807882321F013
S11342B081E090E02CCE08958091D707882321F0E7
S11342C082E090E024CE08958091D607882321F0DF
S11342D083E090E01CCE08958FEF9FEF18CE0895F1
S11342E08F92AF92CF92EF920F936EE572E08CE4CF
S11342F098E00E94CB176EE572E086E498E00E9495
S1134300CB176EE572E080E498E00E94CB1780E260
S11343108F93812C0F2EF9E0AF2EF02D0F2EFCE0A1
S1134320CF2EF02D0F2EFBE0EF2EF02D09E328E326
S113433047E366E384E098E00E94350A63ED75E0A4
S113434081EE97E0E8D80F900F91EF90CF90AF9067
S11343508F900895CF93DF9383EE97E0892B51F0EC
S1134360C1E0D8E02697CE010E945B1787E0C33EE8
S1134370D807C1F780E498E00E945B1786E498E0D0
S11343800E945B178CE498E00E945B17DF91CF9149
S113439008951F93CF93DF93CDB7DEB7E6970FB69B
S11343A0F894DEBF0FBECDBF0FC083ED95E00E9431
S11343B0EF0D682F86E498E00E944F1862E370E0E6
S11343C080E090E00E94FB1583ED95E00E94D60DFD
S11343D01816190654F36CE572E0CE01C1960E94DA
S11343E0CB17BE016F5C7F4F86E498E00E94C11832
S11343F0182FCE01C1960E945B17112341F169E188
S113440074E0CE018B960E94CB17BE01655D7F4F91
S113441086E498E00E94B218182FCE018B960E9471
S11344205B17112369F086E498E00E94561944E072
S113443050E060E070E086E498E00E9428190DC026
S11344406EE572E086E498E00E94FD1706C06EE512
S113445072E086E498E00E94FD176EE174E0CE01FC
S113446085960E94CB17BE016B5D7F4F86E498E072
S11344700E94B218182FCE0185960E945B17112353
S1134480F9F062E274E086E395E00E94B31281E001
S11344908093D8071092D7071092D60765E474E08A
S11344A080E498E00E94FD1760E478E081EE97E0F4
S11344B01EDC6EE572E080E498E00E94FD172AC1DC
S11344C069E474E0CE014F960E94CB17BE01615E91
S11344D07F4F86E498E00E94B218182FCE014F96C1
S11344E00E945B171123F9F06DE474E086E395E014
S11344F00E94B31281E08093D7071092D8071092DC
S1134500D60761E774E080E498E00E94FD1760E458
S113451078E081EE97E0EBDB6EE572E080E498E012
S11345200E94FD17F7C065E774E0CE0149960E942A
S1134530CB17BE01675E7F4F86E498E00E94B218F5
S1134540182FCE0149960E945B171123F1F069E7F9
S113455074E086E395E00E94B3121092D80710929B
S1134560D7071092D6076CE974E080E498E00E94C3
S1134570401860E478E081EE97E0B9DB6EE572E024
S113458080E498E00E94FD17C5C060EA74E0CE01A3
S113459043960E94CB17BE016D5E7F4F86E498E080
S11345A00E94B218182FCE0143960E945B17112364
S11345B0F1F064EA74E086E395E00E94B31210928D
S11345C0D8071092D7071092D60765EC74E080E400
S11345D098E00E94FD1760E478E081EE97E087DBC5
S11345E06EE572E080E498E00E94FD1793C069ECE8
S11345F074E0CE010D960E94CB17BE01635F7F4F1E
S113460086E498E00E94B218182FCE010D960E94FD
S11346105B171123F9F06DEC74E086E395E00E94DA
S1134620B3121092D8071092D70781E08093D6076F
S113463069EE74E080E498E00E94FD1760E478E09D
S113464081EE97E054DB6EE572E080E498E00E942E
S1134650FD1760C06DEE74E0CE0107960E94CB1783
S1134660BE01695F7F4F86E498E00E94B218182F5C
S1134670CE0107960E945B171123F1F061EF74E0FD
S113468086E395E00E94B3121092D8071092D707E0
S11346901092D60763E175E080E498E00E94FD176C
S11346A060E478E081EE97E022DB6EE572E080E47E
S11346B098E00E94FD172EC067E175E0CE010196D7
S11346C00E94CB17BE016F5F7F4F86E498E00E9483
S11346D0B218182FCE0101960E945B171123D1F056
S11346E06BE175E086E395E00E94B3121092D8075F
S11346F01092D7071092D60781EE97E00E94D11945
S113470064E670E080E090E00E94FB1581EE97E0A3
S11347100E94AE19E6960FB6F894DEBF0FBECDBF69
S1134720DF91CF911F9108950F931F930E94C91594
S11347300091DD071091DE072091DF073091E0073B
S113474008511C4F2F4F3F4F0617170728073907EB
S113475058F41FDE0E94C9156093DD077093DE07CD
S11347608093DF079093E0070E94C9150091D90751
S11347701091DA072091DB073091DC0708511C4FB8
S11347802F4F3F4F061717072807390758F48CDDBA
S11347900E94C9156093D9077093DA078093DB07E9
S11347A09093DC071F910F91089508950E94241699
S11347B0FCDF80DBB9DF83E09EE0892B21F00E94DF
S11347C0030EB2DFFCCFB0DFFECFA1E21A2EAA1B8C
S11347D0BB1BFD010DC0AA1FBB1FEE1FFF1FA217AD
S11347E0B307E407F50720F0A21BB30BE40BF50BAA
S11347F0661F771F881F991F1A9469F76095709533
S1134800809590959B01AC01BD01CF010895EE0FF9
S1134810FF1F0590F491E02D19940790F691E02D77
S11348201994CF93DF938230910510F482E090E0E5
S1134830E0915408F091550820E030E0A0E0B0E0A9
S1134840309739F14081518148175907B8F048171A
S1134850590771F482819381109729F013969C93E0
S11348608E9312972CC0909355088093540827C0B8
S11348702115310531F04217530718F0A901DB0166
S113488001C0EF019A01BD01DF010280F381E02D37
S1134890D7CF21153105F9F0281B390B2430310508
S11348A080F48A819B816115710521F0FB0193835A
S11348B0828304C09093550880935408FE01329675
S11348C044C0FE01E20FF31F8193919322503109FA
S11348D0398328833AC02091520830915308232BFE
S11348E041F4209102023091030230935308209343
S11348F0520820910002309101022115310541F442
S11349002DB73EB74091040250910502241B350B8C
S1134910E0915208F0915308E217F307A0F42E1B1C
S11349203F0B2817390778F0AC014E5F5F4F24170F
S1134930350748F04E0F5F1F5093530840935208B9
S11349408193919302C0E0E0F0E0CF01DF91CF9139
S11349500895CF93DF93009709F487C0FC01329741
S113496013821282C0915408D0915508209781F483
S113497020813181280F391F80915208909153086A
S11349808217930779F5F0935308E09352086DC0AA
S1134990DE0120E030E0AE17BF0750F412964D91CF
S11349A05C9113979D014115510509F1DA01F3CF8B
S11349B0B383A28340815181840F951F8A179B077B
S11349C071F48D919C911197840F951F0296918398
S11349D0808312968D919C911397938382832115E2
S11349E0310529F4F0935508E09354083EC0D901E9
S11349F01396FC93EE9312974D915D91A40FB51FFE
S1134A00EA17FB0779F480819181840F951F029640
S1134A10D90111969C938E938281938113969C93D2
S1134A208E931297E0E0F0E08A819B81009719F061
S1134A30FE01EC01F9CFCE01029628813981820F63
S1134A40931F20915208309153082817390769F4AD
S1134A50309729F4109255081092540802C013821A
S1134A601282D0935308C0935208DF91CF910895D6
S1134A706F927F928F929F92AF92BF92CF92DF926A
S1134A80EF92FF920F931F93CF93DF93EC01CB012F
S1134A90209779F4DF91CF911F910F91FF90EF90C0
S1134AA0DF90CF90BF90AF909F908F907F906F904A
S1134AB0B8CEFE01E60FF71F9E0122503109E2171E
S1134AC0F30708F4A8C0D9010D911C91119706179A
S1134AD01707B0F00530110508F49BC0A801445035
S1134AE051094617570708F494C002501109061BD0
S1134AF0170B019311936D937C93CF012ADF89C027
S1134B005B01A01AB10A4E01800E911EA0915408B7
S1134B10B0915508612C712C60E070E0109709F495
S1134B2049C0A815B905C9F5ED90FC901197670126
S1134B3042E0C40ED11CCA14DB0478F147018A1880
S1134B409B08640142E0C40ED11C1296BC901297DB
S1134B501396AC91B5E0CB16D10440F0B282A38396
S1134B6091828082D9018D939C9309C00E5F1F4F5F
S1134B700E0D1F1DF90111830083EB2DFA2F611512
S1134B80710531F0DB011396FC93EE93129741C04B
S1134B90F0935508E09354083CC06D917C911197B3
S1134BA06616770608F43B01BD0112960D90BC9180
S1134BB0A02DB4CF609152087091530868157905FF
S1134BC0E9F468167906D0F440910002509101028C
S1134BD04115510541F44DB75EB7609104027091DF
S1134BE00502461B570BE417F507A8F4F093530886
S1134BF0E0935208F901918380830BC012DE7C019B
S1134C00009749F0A801BE0123D0CE01A2DEC7015E
S1134C1004C0CE0102C080E090E0DF91CF911F91EB
S1134C200F91FF90EF90DF90CF90BF90AF909F9047
S1134C308F907F906F90089581E090E0F89448C041
S1134C40911143C0803219F089508550D0F70895EE
S1134C50FB01DC0102C001900D9241505040D8F795
S1134C600895DC0101C06D9341505040E0F7089570
S1134C70FB01DC018D91019080190110D9F3990B8E
S1134C800895FB01DC0101900D920020E1F70895E5
S1134C90FB01DC014150504030F08D9101908019AE
S1134CA019F40020B9F7881B990B0895FB01DC0166
S1134CB04150504048F001900D920020C9F701C0C6
S1134CC01D9241505040E0F7089599278827089590
S1134CD017E0C6E1D7E000E005C022970109FE0114
S1134CE00BBF9BDDC831D10780E00807B1F7F8940A
S1054CF0FFCFF0
S1134CF2000056082000FF0000000097074612D467
S1134D020DBE03CE04E5047F04FB04320550050006
S1134D12000000970746120608BE03CE04E5047F8E
S1134D2204FB04AA0D500500000000790E4612D6B9
S1134D320DEF0DE10D550E00000000F31141445634
S1134D42204F4E00414456204F4646000A0D005360
S1134D52434E540053434E204F4E0D0045520053D0
S1134D6243007800434F4E200020300D004552523C
S1134D72005250440044434E0D0044434E005343FA
S1134D824E204F4646005645520D00426C756574DE
S1134D92004F4B0052545200575254005345542072
S1134DA20030303041003030323800303034450089
S1134DB230303945003030454200554152540043A9
S1134DC2454E540047455420005253540052450066
S1134DD25354530D0053545300534E442000425233
S1134DE2414B45004D6F64756C6520726573657443
S1134DF2206572726F7221004D6F64756C6520724A
S1134E026573746F7265206572726F7221004D6FE3
S1134E1264756C6520777269746520636F6E666968
S1134E2267206572726F7221005365636F6E64202E
S1134E326D6F64756C65207265736574206572723A
S1134E426F72210052657365742F526573746F72A9
S1134E52652F577269746520436F6E6669672050C7
S1134E6241535345442E2E2E0052657365742F52BE
S1134E726573746F72652F577269746520436F6E20
S1134E82666967204641494C4544203130205449E3
S1134E924D45532E2053544F5020455845435554A5
S1134EA2494F4E2E2E2E0053657269616C20686143
S1134EB27320737461727465642E2E2E00526573AE
S1134EC265742F526573746F72652F5772697465B6
S1134ED220436F6E66696720444F4E452100535448
S1134EE24F500043434F4E004641535400414456F1
S1134EF2500041445654003030303030303030307D
S1134F023030300041444452005243563D00424C3A
S1134F123100544F204241434B5041434B3A2053BA
S1134F22484F57204C454654205455524E2053491D
S1134F32474E414C004C42310042523200544F2001
S1134F424241434B5041434B3A2053484F5720521E
S1134F5249474854205455524E205349474E414CD8
S1134F620052423200424C3400544F204241434BDF
S1134F725041434B3A2053544F502053484F5749C2
S1134F824E4720414E595448494E47004C42340042
S1134F9242523400544F204241434B5041434B3A16
S1134FA22053544F502053484F57494E47204152A3
S1134FB2524F5753005242340042503300544F2050
S1134FC24241434B5041434B3A2053484F5720539D
S1134FD2544F50205349474E0050423300425034FC
S1134FE200544F204241434B5041434B3A20444FDB
S1134FF24E27542053484F572053544F502053495F
S1135002474E005042340042503500544F20424132
S1135012434B5041434B3A20444953434F4E4E4530
S107502243540000EF
S9030000FC
