:100000007EC300000C94C5120C94F6120C942713B6
:100010000C9458130C9489130C94BA130C94EB138E
:100020000C941C149DC300009BC3000099C30000E6
:1000300097C300000C94661293C3000091C30000A4
:100040008FC300008DC300008BC3000089C3000074
:100050000C94F60C85C3000083C300000C944D146F
:100060007FC300000C94040E0C94430E79C300006F
:1000700077C3000075C3000073C3000071C30000A4
:100080006FC300006DC300006BC3000069C30000B4
:100090000C94AF0E0C94EE0E63C3000061C300001D
:1000A0005FC300005DC300005BC3000059C30000D4
:1000B00057C3000055C3000053C3000051C30000E4
:1000C0004FC300004DC300004BC300000C945A0FF7
:1000D0000C94990F45C300000C9405100C94441027
:1000E0003FC300000F151315FD140315091558150E
:1000F00017151D15231529152F1535153B154115F8
:10010000581547154D15531500000000003E5B4F74
:100110005B3E3E6B4F6B3E1C3E7C3E1C183C7E3C67
:10012000181C577D571C1C5E7F5E1C00183C180075
:10013000FFE7C3E7FF0018241800FFE7DBE7FF3005
:10014000483A060E2629792926407F050507407F73
:1001500005253F5A3CE73C5A7F3E1C1C08081C1CE6
:100160003E7F14227F22145F5F005F5F06097F01DC
:100170007F006689956A606060606094A2FFA294C7
:1001800008047E040810207E201008082A1C080895
:100190001C2A08081E101010100C1E0C1E0C3038E3
:1001A0003E3830060E3E0E06000000000000005FE4
:1001B00000000007000700147F147F14242A7F2A00
:1001C00012231308646236495620500008070300C2
:1001D000001C2241000041221C002A1C7F1C2A080E
:1001E000083E080800807030000808080808000071
:1001F00060600020100804023E5149453E00427FE5
:10020000400072494949462141494D331814127F33
:100210001027454545393C4A4949314121110907D3
:100220003649494936464949291E00001400000054
:100230004034000000081422411414141414004126
:1002400022140802015909063E415D594E7C1211E3
:10025000127C7F494949363E414141227F4141411B
:100260003E7F494949417F090909013E4141517396
:100270007F0808087F00417F41002040413F017F07
:10028000081422417F404040407F021C027F7F04CF
:1002900008107F3E4141413E7F090909063E415118
:1002A000215E7F09192946264949493203017F0108
:1002B000033F4040403F1F2040201F3F4038403F09
:1002C000631408146303047804036159494D43001F
:1002D0007F4141410204081020004141417F040256
:1002E00001020440404040400003070800205454ED
:1002F00078407F28444438384444442838444428CB
:100300007F385454541800087E090218A4A49C781D
:100310007F0804047800447D40002040403D007F79
:100320001028440000417F40007C047804787C0859
:100330000404783844444438FC182424181824242D
:1003400018FC7C08040408485454542404043F4412
:10035000243C4040207C1C2040201C3C4030403C41
:1003600044281028444C9090907C4464544C4400A1
:100370000836410000007700000041360800020105
:100380000204023C2623263C1EA1A161123A4040F1
:10039000207A38545455592155557941225454786E
:1003A00042215554784020545579400C1E52721207
:1003B0003955555559395454545939555454580090
:1003C00000457C410002457D420001457C407D1294
:1003D00011127DF0282528F07C54554500205454F6
:1003E0007C547C0A097F4932494949323A444444A1
:1003F0003A324A4848303A4141217A3A42402078DC
:10040000009DA0A07D3D4242423D3D4040403D3CDC
:1004100024FF2424487E4943662B2FFC2F2BFF0901
:1004200029F620C0887E09032054547941000044F5
:100430007D413048484A32384040227A007A0A0AE0
:10044000727D0D19317D2629292F28262929292653
:1004500030484D4020380808080808080808382F98
:1004600010C8ACBA2F102834FA00007B0000081422
:100470002A142222142A1408AA005500AAAA55AA4E
:1004800055AA000000FF00101010FF00141414FF04
:10049000001010FF00FF1010F010F0141414FC00F6
:1004A0001414F700FF0000FF00FF1414F404FC1400
:1004B0001417101F10101F101F1414141F001010F9
:1004C00010F0000000001F101010101F101010106E
:1004D000F010000000FF101010101010101010FF8E
:1004E00010000000FF140000FF00FF00001F1017A5
:1004F0000000FC04F414141710171414F404F4008E
:1005000000FF00F714141414141414F700F7141453
:1005100014171410101F101F141414F4141010F0DA
:1005200010F000001F101F0000001F14000000FC4E
:10053000140000F010F01010FF10FF141414FF143A
:100540001010101F00000000F010FFFFFFFFFFF071
:10055000F0F0F0F0FFFFFF0000000000FFFF0F0FC2
:100560000F0F0F3844443844FC4A4A4A347E020292
:100570000606027E027E0263554941633844443CCC
:1005800004407E201E2006027E020299A5E7A5995E
:100590001C2A492A1C4C7201724C304A4D4D303095
:1005A00048784830BC625A463D3E494949007E0180
:1005B00001017E2A2A2A2A2A44445F444440514A9F
:1005C000444040444A51400000FF0103E080FF00E6
:1005D0000008086B6B083612362436060F090F0622
:1005E000000018180000001010003040FF0101004A
:1005F0001F01011E00191D1712003C3C3C3C00006D
:100600000000000200000A0B02090C0D0E0807038F
:1006100004010000000000000000000000000000D5
:1006200000000000000000000000000000000000CA
:100630001211100000000000000000000000000087
:10064000000000000000000000000102102020084F
:10065000081020401020408002010201080402011D
:10066000010204081020408080402010080402018C
:1006700080040201804020100804020108040201E5
:10068000010204081020408001020408102040806C
:1006900005050505070508080808020202020A0AFE
:1006A000080804040404010101010101010103031C
:1006B000030303030303040707070C0C0C0C0C0CC7
:1006C0000C0C0202020206060606060606060B0BC4
:1006D0000B0B0B0B0B0B00002200250028002B003E
:1006E0002E003100340002010000050108010B0159
:1006F0006C0E170FC20F6D10F4107521AF2111246D
:100700001FBECFEFD1E2DEBFCDBF00E00CBF13E0D4
:10071000A0E0B2E0E6EAFBE400E00BBF02C0079015
:100720000D92A23EB107D9F726E0A2EEB3E001C0D8
:100730001D92A53FB207E1F716E0CCEFD6E000E04E
:1007400006C022970109FE010BBF0E94F922C03F9B
:10075000D10780E00807A9F70E94D0220C94C22597
:100760004FCC2F923F924F925F926F927F928F92D7
:100770009F92AF92BF92CF92DF92EF92FF920F9330
:100780001F93CF93DF9300D01F92CDB7DEB74C01FC
:100790007C836B835A013901C801841B950B9C0132
:1007A00022F422273327281B390BA3018B819C813C
:1007B000481B590BCA01992324F488279927841BC5
:1007C000950B51E040E0821793070CF050E0452E66
:1007D000542E4114510459F0962D872D3801092FBC
:1007E000182F9B818C81BC82AB82A92EB82EAB8145
:1007F000BC816A167B065CF49A2D8B2D5801092F5B
:10080000182F9B818C817C826B82692E782EF3015C
:100810002B813C81E21BF30BFA83E983C8018A191F
:100820009B091C0122F422243324281A390AC98086
:10083000DA80DD201CF43FEFC31AD30AD594C794A5
:10084000A016B1061CF401E010E002C00FEF1FEF8C
:100850008B819C816816790674F14114510469F00A
:10086000D401ED91FC910480F581E02D97014B813D
:100870005C81B501C40119950CC0D401ED91FC91C6
:100880000480F581E02D9701A5016B817C81C40175
:100890001995C218D30832F4A00EB11EE981FA816D
:1008A000CE0EDF1E2B813C812F5F3F4F3C832B837D
:1008B0006216730694F60F900F900F900F90DF91D1
:1008C000CF911F910F91FF90EF90DF90CF90BF904D
:1008D000AF909F908F907F906F905F904F903F90E0
:1008E0002F9008956F927F928F929F92AF92BF92B6
:1008F000CF92DF92EF92FF920F931F93CF93DF93EC
:10090000EC015B016A0139014801E881F981028447
:10091000F385E02D87011995E881F981A601480D3D
:10092000591D415051090284F385E02D9301B50111
:10093000CE011995E881F9810084F185E02D9401BB
:10094000A601B501CE011995E881F981A60CB71C65
:10095000B501615071090084F185E02D9401A60173
:10096000CE011995DF91CF911F910F91FF90EF90DC
:10097000DF90CF90BF90AF909F908F907F906F90BF
:100980000895EF92FF920F931F93DC01ED91FC917C
:10099000240F351F215031090680F781E02D7801A1
:1009A00089019B0119951F910F91FF90EF90089578
:1009B000EF92FF920F931F93DC01ED91FC91260FB4
:1009C000371F215031090680F781E02D78018A0117
:1009D00019951F910F91FF90EF9008956F927F925C
:1009E0008F929F92AF92BF92CF92DF92EF92FF923F
:1009F0000F931F93CF93DF936C01EB014A015801D2
:100A00003B01620E731E6615770584F4D601ED91E5
:100A1000FC910084F185E02D87019501A401BE01C0
:100A2000C60119952196C615D70584F3DF91CF919C
:100A30001F910F91FF90EF90DF90CF90BF90AF90FC
:100A40009F908F907F906F900895EF92FF920F93F9
:100A50001F93DC01ED91FC9111971A960D911C9159
:100A60001B9718962D913C9119970684F785E02DD8
:100A70007B0140E050E060E070E019951F910F911C
:100A8000FF90EF9008950895FC01138212828BE08D
:100A900092E0918380837583648357834683718753
:100AA000608753874287158A1586148617861686AF
:100AB00021E0248B8FEF9FEF938B828B918B808B28
:100AC000268B08952F923F924F925F926F927F9262
:100AD0008F929F92AF92BF92CF92DF92EF92FF924E
:100AE0000F931F93CF93DF93CDB7DEB72E970FB63B
:100AF000F894DEBF0FBECDBF9A8389835A8749879A
:100B00003E872D87FC86EB86DC82CB8281E090E0FD
:100B10007C01E21AF30AC9019195819591091C01A2
:100B2000220C331C121613060CF09DC03A0121E072
:100B3000621A71084B845C8433E0430E511CC12C53
:100B4000D12C88248394912C802F81708F83027004
:100B500008877E836D83A980BA80FF2054F0ED85DD
:100B6000FE853197FE87ED87F2E02F0E311CE20CF7
:100B7000F31C2FEFC21AD20A32E0830E911CE80C4C
:100B8000F91C8F81882381F1D501ED91FC912D8590
:100B90003E85220F331F2F5F3F4F8B859C85280F8B
:100BA000391F0084F185E02D0B811C8149855A8510
:100BB000AD85BE854A1B5B0B6D817E816C0D7D1DF5
:100BC000C5011995D501ED91FC910084F185E02DC9
:100BD0000B811C819201A3016D817E818D859E8593
:100BE000680F791FC50119959885992381F1D50161
:100BF000ED91FC912D853E85220F331F2F5F3F4FD6
:100C00008B859C85280F391F0084F185E02D0B8191
:100C10001C8149855A85AD85BE854A1B5B0B6D815C
:100C20007E816C197D09C5011995D501ED91FC9165
:100C30000084F185E02D0B811C819201A3016D815F
:100C40007E818D859E85681B790BC501199591E084
:100C5000691A7108A2E04A0E511CED85FE85CE1678
:100C6000DF060CF47ACF2E960FB6F894DEBF0FBED7
:100C7000CDBFDF91CF911F910F91FF90EF90DF904B
:100C8000CF90BF90AF909F908F907F906F905F902C
:100C90004F903F902F9008956F927F928F929F92E6
:100CA000AF92BF92CF92DF92EF92FF920F931F937A
:100CB000CF93DF93EC014B013A0159016801E881C0
:100CC000F981220F331F2F5F3F4F4A195B090084C0
:100CD000F185E02D1995E12CF12C03E09501A3019C
:100CE000B401CE01EFDEDF91CF911F910F91FF9004
:100CF000EF90DF90CF90BF90AF909F908F907F90BC
:100D00006F9008952F923F924F925F926F927F92D1
:100D10008F929F92AF92BF92CF92DF92EF92FF920B
:100D20000F931F93CF93DF93CDB7DEB760970FB6C6
:100D3000F894DEBF0FBECDBF4C011A830983FD823C
:100D4000EC82CB82DC0118968D919C9119976817E3
:100D500079070CF0C6C01A968D919C911B97481785
:100D600059070CF0BEC06C2C712CC301880F991F61
:100D7000860D971D880F991F860F971F019799233E
:100D80000CF4AFC0C301880F991F880F991F880FFB
:100D9000991F840F951F019799230CF4A2C030E08E
:100DA000C901880F991F880F991F280F391F130138
:100DB0007F836E83798768871A86285F3E4FF901A3
:100DC000E61BF70BFE87ED874B875C87FA85F530CE
:100DD00009F477C0ED85FE852E813F81E20FF31F78
:100DE000049170C090FE25C03B81313081F4AF8505
:100DF000B889ED91FC9111970480F581E02D29814E
:100E00003A81A5016E817F81CD0119953DC0AF85E5
:100E1000B889ED91FC9111970684F785E02DE98062
:100E2000FA8083019301A601682D742DCD011995D7
:100E30002BC0EC81FD8129813A81E217F30721F172
:100E40003B81313081F4AF85B889ED91FC911197E8
:100E50000480F581E02D2C813D81A5016E817F818B
:100E6000CD01199511C0AF85B889ED91FC9111970D
:100E70000684F785E02DEC80FD8083019301A601B7
:100E8000682D742DCD01199596945A94C20CD31CDB
:100E9000BFEFAB1ABB0A5110A5CF8F849888EA85A3
:100EA000EF5FEA8728853985220D331D398728872A
:100EB0008E819F8101969F838E83E63009F086CFD5
:100EC00010C000E018854984CB84DC84AC2CBD2C98
:100ED0006894552453F8C401902E812E988B8F87E7
:100EE00081CF60960FB6F894DEBF0FBECDBFDF9105
:100EF000CF911F910F91FF90EF90DF90CF90BF9017
:100F0000AF909F908F907F906F905F904F903F90A9
:100F10002F900895CF92EF92FF920F931F93CF934C
:100F2000DF93EC016A3069F42C898E859F8538E067
:100F3000239F800D911D11249F878E871D861C86FF
:100F40003CC06D30D1F1EA88FB88088919894E854B
:100F50005F858C859D85CC88262FBC01CE01D2DE95
:100F60002C8930E0C901880F991F820F931F880FC9
:100F7000991F4C855D85840F951F9D878C874E89B1
:100F80004423D9F04AEF4203B001439F700D11246E
:100F900048855985460F571F4817590774F4220F83
:100FA000331F220F331F220F331F8E859F85280F7B
:100FB000391F3F872E871D861C8681E090E0DF91D8
:100FC000CF911F910F91FF90EF90CF900895FC016A
:100FD00075876487578746870895611101C061E06E
:100FE000FC01648B0895FC01738B628B718B608BA9
:100FF00008958F929F92AF92BF92CF92DF92EF921D
:10100000FF920F931F93CF93DF93FC0177230CF490
:101010001FC180859185681779070CF019C1552388
:101020000CF416C1A285B3854A175B070CF010C1FA
:10103000A589A23061F0A330C9F0A130F1F4A481F8
:10104000B5811197A41BB50BAB01BD0116C0A481DE
:10105000B5811197ED01C61BD70BBE01A681B781E3
:101060001197ED01C41BD50BAE0107C0A681B78156
:101070001197A61BB70BBA01AD01A32EA694A69497
:10108000A694A694DA2C4901880C892C881C99080E
:101090009194D82DDF70CD2E36952795A22FAF7065
:1010A000BA2EC38DD0E04C175D070CF06BC0048DD9
:1010B00010E0000F111F0E0F1F1FE480F5804E9DE2
:1010C000E0014F9DD00D5E9DD00D1124AE01440F67
:1010D000551FC40FD51F6C0F7D1FE8014F89588D18
:1010E000EA01C60FD71F880F991F8C0F9D1FDC01C7
:1010F0004C914C7F4C93A0FE0AC080859185880F4F
:10110000991F8C0F9D1FDC014C9141604C9380FE18
:1011100009C0A085B185AA0FBB1FAC0FBD1F8C9164
:1011200082608C9320FF08C0A085B185AC0FBD1FE5
:101130008C9181608C9384C0A085B185AC0FBD1F5C
:101140008C918E7F8C937CC02881237E342F3D210F
:1011500011F4288302C024602883242F2C2119F045
:10116000288128602883242F2B2119F028812061D1
:10117000288324813581C20FD31F440F0197009724
:1011800019F766C0048D10E0000F111F0E0F1F1F0E
:101190004C1B5D0BC481D5814C9FC0014D9F900DB0
:1011A0005C9F900D1124EC01CC0FDD1F8C0F9D1F57
:1011B000680F791FD8015796CD91DC915897C60FCB
:1011C000D71F88818C7F8883A0FE09C08085918588
:1011D0008C0F9D1FDC014C9142604C9308C08085B0
:1011E00091858C0F9D1FDC014C914D7F4C9380FEAF
:1011F00003C088818160888320FF26C08881826047
:10120000888322C028812F71342F3D2111F4288337
:1012100002C020622883242F2C2119F02881206409
:101220002883242F2B2119F02881206828832481EA
:101230003581C20FD31F440F0197009719F708C0DB
:1012400083E090E042E080CF83E090E042E0DACFBC
:10125000DF91CF911F910F91FF90EF90DF90CF9092
:10126000BF90AF909F908F9008952F923F924F9292
:101270005F926F927F928F92AF92CF92EF92FF9296
:101280000F931F93CF93DF93CDB7DEB73C01F42EBE
:10129000122FDC015B966C932B88269EB0011124E3
:1012A0001B01220C331C260E371E882021F0210141
:1012B000440C551C01C02101C2010E94FD22F30112
:1012C000908F878B009709F4B3C0A20160E070E0B3
:1012D0000E944325882041F0D30157968D919C911F
:1012E0005897280E391E03C0F3012788308CD3018C
:1012F0005A963C922E925997D496FC92D497D596B2
:101300001C93D597D6960C93D697D196EC92D197FD
:10131000D296CC92D297D396AC92EE2DF0E0E65BCB
:10132000F94FE491D3019A96EC938C2D90E0FC0157
:10133000E057F94FE491F0E0EE0FFF1FEA52F94F4A
:1013400025913491F301378F268FFC01E65BF94F2D
:101350008491D3019B968C938A2D90E0FC01E057F9
:10136000F94FE491F0E0EE0FFF1FEA52F94F25919B
:101370003491F30131A320A3FC01E65BF94F849182
:10138000D3019C968C938F2D90E0FC01E057F94F90
:10139000E491F0E0EE0FFF1FEA52F94F25913491EE
:1013A000F30133A322A3FC01E65BF94F8491D3013F
:1013B0009D968C93812F90E0FC01E057F94FE491CA
:1013C000F0E0EE0FFF1FEA52F94F25913491F3013F
:1013D00035A324A3FC01E65BF94F8491D3019E96CB
:1013E0008C9310E0F801E057F94FE491F0E0EE0F34
:1013F000FF1FEA52F94F85919491F30197A386A3B9
:10140000F801E65BF94F0491D3019F960C939F97E7
:1014100083E0D9968C93D9975B968C915B9781509A
:10142000D8968C93D8975D961C925D975C961C928B
:10143000DF91CF911F910F91FF90EF90CF90AF90E0
:101440008F907F906F905F904F903F902F90089576
:101450006F927F928F929F92AF92BF92CF92DF92C4
:10146000EF92FF920F931F93CF93DF93CDB7DEB729
:101470003C01D62EB42E922E102FFA886F2D70E0DC
:1014800040E250E001DB83E292E0F301918380834C
:10149000FF92092D2B2D4D2D60E1C301E6DEF301F6
:1014A00017AB012F10E0F801E057F94FE491F0E09D
:1014B000EE0FFF1FEA52F94F85919491F30191A726
:1014C00080A7F801E65BF94F0491F30100AB0F90A0
:1014D000DF91CF911F910F91FF90EF90DF90CF9010
:1014E000BF90AF909F908F907F906F900895822FC4
:1014F000867090E095958795277030E0220F331F16
:10150000220F331F822B932B262F30E0322F2227DE
:101510003295330F307E822B932B242F2770922B02
:1015200020E2429FA00111245527842B952B667041
:1015300070E0762F6627770F770F862B972B08950D
:101540000F931F93CF93DF93DC019096ED91FC9165
:10155000919790819C968C919C97892B80835E9625
:10156000ED91FC915F9790819B968C919B97892B35
:1015700080835B963C915B97393018F088EC90E063
:1015800002C080E991E0D9962C91D99788589F4F55
:1015900002C0880F991F2A95E2F7CC97D9962C9113
:1015A000D9972F5FD9962C93D997243090F1D9965B
:1015B0001C92D997D8962C91D8972F5FD8962C93B8
:1015C000D897231708F49CC0D8961C92D8975D969C
:1015D0002C915D97222359F05C963C915C9721E019
:1015E000231B5C962C935C975D961C925D975C9692
:1015F0002C915C97E1E0F0E0E21BF109EE0FFF1F98
:10160000EA0FFB1F2789308DDB963C932E93DA97E8
:1016100077C0D9962C91D997213009F071C0D8960E
:101620002C91D89720FF0BC09296ED91FC91939747
:1016300030819D962C919D97232B20830BC09296F1
:10164000ED91FC91939730819D962C919D972095DB
:1016500023232083D8962C91D89721FF0BC09496F2
:10166000ED91FC91959730819E962C919E97232B1E
:1016700020830BC09496ED91FC91959730819E96B6
:101680002C919E97209523232083D8962C91D89730
:1016900022FF0BC09696ED91FC91979730819F9613
:1016A0002C919F97232B20830BC09696ED91FC9154
:1016B000979730819F962C919F9720952323208385
:1016C0005B962C915B972930D8F0D8962C91D897BF
:1016D00023FF0BC09896ED91FC9199973081D0969D
:1016E0002C91D097232B20830BC09896ED91FC91E1
:1016F00099973081D0962C91D097209523232083E1
:10170000DA96ED91FC91DB979093870080938600A9
:1017100010928500109284009096CD91DC91919763
:1017200098819C968C919C978095892388835E965E
:10173000CD91DC915F9798819B968C919B9780953A
:101740008923888365B19A967C919A97762BD9964E
:101750008C91D997811109C018968D919C911997F8
:10176000181619060CF40EC13CC1019002B875B9E7
:1017700065B9019002B875B965B9019002B875B93B
:1017800065B9019002B875B965B9019002B875B92B
:1017900065B9019002B875B965B9019002B875B91B
:1017A00065B9019002B875B965B9019002B875B90B
:1017B00065B9019002B875B965B9019002B875B9FB
:1017C00065B9019002B875B965B9019002B875B9EB
:1017D00065B9019002B875B965B9019002B875B9DB
:1017E00065B9019002B875B965B9019002B875B9CB
:1017F00065B9019002B875B965B9019002B875B9BB
:1018000065B9019002B875B965B9019002B875B9AA
:1018100065B9019002B875B965B9019002B875B99A
:1018200065B9019002B875B965B9019002B875B98A
:1018300065B9019002B875B965B9019002B875B97A
:1018400065B9019002B875B965B9019002B875B96A
:1018500065B9019002B875B965B9019002B875B95A
:1018600065B9019002B875B965B918968D919C91CA
:1018700019978034910509F080C0019002B875B9BC
:1018800065B9019002B875B965B9019002B875B92A
:1018900065B9019002B875B965B9019002B875B91A
:1018A00065B9019002B875B965B9019002B875B90A
:1018B00065B9019002B875B965B9019002B875B9FA
:1018C00065B9019002B875B965B9019002B875B9EA
:1018D00065B9019002B875B965B9019002B875B9DA
:1018E00065B9019002B875B965B9019002B875B9CA
:1018F00065B9019002B875B965B9019002B875B9BA
:1019000065B9019002B875B965B9019002B875B9A9
:1019100065B9019002B875B965B9019002B875B999
:1019200065B9019002B875B965B9019002B875B989
:1019300065B9019002B875B965B9019002B875B979
:1019400065B9019002B875B965B9019002B875B969
:1019500065B9019002B875B965B9019002B875B959
:1019600065B9019002B875B965B9019002B875B949
:1019700065B9019002B875B965B9DB96FC93EE9331
:10198000DA972FC020E030E010E0280F391FEF0178
:10199000C20FD31F4881C0E14C9FA0011124042F26
:1019A0000073EF01C10FD11D4881C0E44C9FA0011D
:1019B0001124402B8E0F9F1FEC01C20FD31F888173
:1019C000880F880F8C70482B42B975B965B91F5FB5
:1019D000212F30E018968D919C911997281739077F
:1019E000A4F2DF91CF911F910F9108951F920F9252
:1019F0000FB60F9211240BB60F922F933F934F9374
:101A00005F936F937F938F939F93AF93BF93EF9366
:101A1000FF938091E2039091E30392DD86B386BB4E
:101A2000FF91EF91BF91AF919F918F917F916F91B6
:101A30005F914F913F912F910F900BBE0F900FBE72
:101A40000F901F9018959B01215031092E3F3F4F59
:101A500008F1DC015C96EC915C975B96FC915B97DE
:101A600018964D915C911997F49F9001F59F300D58
:101A70001124A901440F551F420F531F2E2F30E090
:101A8000220F331FFC01E20FF31F8789908D0C9406
:101A9000432508950C94250508950E940825FC010E
:101AA000818D228D90E0805C9F4F821B91098F7306
:101AB00099270895FC01918D828D981731F0828DC0
:101AC000E80FF11D858D90E008958FEF9FEF089549
:101AD000FC01918D828D981761F0828DDF01A80F36
:101AE000B11D5D968C91928D9F5F9F73928F90E058
:101AF00008958FEF9FEF0895FC01848DDF01A80FFB
:101B0000B11DA35ABF4F2C91848D90E001968F7325
:101B10009078848FA689B7892C93A089B1898C91FC
:101B200080648C93938D848D981306C00288F3890A
:101B3000E02D80818F7D80830895CF93DF93EC012A
:101B4000888D81110AC01AC00FB607FC08C08081B9
:101B500085FF05C00DC0CE01CFDFEA89FB898081FA
:101B600085FDF2CFA889B9898C9186FFEDCF06C09B
:101B7000A889B9898C9185FFF2CFEDCFDF91CF9104
:101B800008950F931F93CF93DF93EC01162F9B8D36
:101B90008C8D981323C0E889F989808185FD25C043
:101BA0001DC00FB607FC07C0E889F989808185FF51
:101BB00002C0CE01A1DF9C8D091799F38B8DFE0128
:101BC000E80FF11DE35AFF4F10830B8FEA89FB8961
:101BD00080818062808381E0888F0FC08B8D90E050
:101BE00001968F739078082FE6CFEE89FF89608386
:101BF000E889F98980818064808381E090E0DF91C9
:101C0000CF911F910F9108951F920F920FB60F92CF
:101C100011240BB60F922F938F939F93AF93BF9383
:101C2000EF93FF93E091F403F091F503808182FD3F
:101C300017C0E091FA03F091FB0320818091FD032E
:101C40008F5F8F739091FE03891779F0EDEFF3E0CA
:101C5000A081B0E0AC51BC4F5D962C93808305C051
:101C6000E091FA03F091FB038081FF91EF91BF9126
:101C7000AF919F918F912F910F900BBE0F900FBE40
:101C80000F901F9018951F920F920FB60F9211246C
:101C90000BB60F922F933F934F935F936F937F9366
:101CA0008F939F93AF93BF93EF93FF9384EE93E053
:101CB00023DFFF91EF91BF91AF919F918F917F9122
:101CC0006F915F914F913F912F910F900BBE0F90AD
:101CD0000FBE0F901F9018951092E7031092E60325
:101CE00088EE93E0A0E0B0E08093E8039093E903EE
:101CF000A093EA03B093EB038BE392E09093E503A8
:101D00008093E40385EC90E09093F1038093F003DB
:101D100084EC90E09093F3038093F20380EC90E0E6
:101D20009093F5038093F40381EC90E09093F70394
:101D30008093F60382EC90E09093F9038093F8038C
:101D400086EC90E09093FB038093FA031092FD03DE
:101D50001092FE031092FF031092000408951F9248
:101D60000F920FB60F9211240BB60F922F938F93F1
:101D70009F93AF93BF93EF93FF93E0919104F09102
:101D80009204808182FD17C0E0919704F09198043D
:101D9000208180919A048F5F8F7390919B048917A3
:101DA00079F0EAE9F4E0A081B0E0AF57BB4F5D966F
:101DB0002C93808305C0E0919704F0919804808172
:101DC000FF91EF91BF91AF919F918F912F910F90C4
:101DD0000BBE0F900FBE0F901F9018951F920F9281
:101DE0000FB60F9211240BB60F922F933F934F9380
:101DF0005F936F937F938F939F93AF93BF93EF9373
:101E0000FF9381E894E078DEFF91EF91BF91AF916D
:101E10009F918F917F916F915F914F913F912F9102
:101E20000F900BBE0F900FBE0F901F901895109241
:101E300084041092830488EE93E0A0E0B0E08093E5
:101E4000850490938604A0938704B09388048BE361
:101E500092E090938204809381048DEC90E09093C3
:101E60008E0480938D048CEC90E09093900480938A
:101E70008F0488EC90E0909392048093910489EC15
:101E800090E090939404809393048AEC90E0909374
:101E90009604809395048EEC90E090939804809340
:101EA000970410929A0410929B0410929C04109232
:101EB0009D0408951F920F920FB60F9211240BB636
:101EC0000F922F938F939F93AF93BF93EF93FF93B3
:101ED000E0912E05F0912F05808182FD17C0E091E1
:101EE0003405F09135052081809137058F5F8F7320
:101EF00090913805891779F0E7E3F5E0A081B0E02B
:101F0000A25EBA4F5D962C93808305C0E0913405A4
:101F1000F09135058081FF91EF91BF91AF919F9135
:101F20008F912F910F900BBE0F900FBE0F901F90AF
:101F300018951F920F920FB60F9211240BB60F92A5
:101F40002F933F934F935F936F937F938F939F93C1
:101F5000AF93BF93EF93FF938EE195E0CDDDFF91BB
:101F6000EF91BF91AF919F918F917F916F915F9111
:101F70004F913F912F910F900BBE0F900FBE0F907E
:101F80001F901895109221051092200588EE93E07D
:101F9000A0E0B0E08093220590932305A093240550
:101FA000B09325058BE392E090931F0580931E0567
:101FB00085ED90E090932B0580932A0584ED90E0C9
:101FC00090932D0580932C0580ED90E090932F0544
:101FD00080932E0581ED90E090933105809330053C
:101FE00082ED90E0909333058093320586ED90E08A
:101FF000909335058093340510923705109238057B
:102000001092390510923A0508951F920F920FB65B
:102010000F9211240BB60F922F938F939F93AF9330
:10202000BF93EF93FF93E091CB05F091CC058081B6
:1020300082FD17C0E091D105F091D20520818091F9
:10204000D4058F5F8F739091D505891779F0E4EDF2
:10205000F5E0A081B0E0A554BA4F5D962C93808343
:1020600005C0E091D105F091D2058081FF91EF91FB
:10207000BF91AF919F918F912F910F900BBE0F90B9
:102080000FBE0F901F9018951F920F920FB60F92D0
:1020900011240BB60F922F933F934F935F936F933F
:1020A0007F938F939F93AF93BF93EF93FF938BEBAC
:1020B00095E022DDFF91EF91BF91AF919F918F91BC
:1020C0007F916F915F914F913F912F910F900BBE38
:1020D0000F900FBE0F901F9018951092BE05109292
:1020E000BD0588EE93E0A0E0B0E08093BF0590933B
:1020F000C005A093C105B093C2058BE392E0909315
:10210000BC058093BB0585E391E09093C80580935F
:10211000C70584E391E09093CA058093C90580E3E5
:1021200091E09093CC058093CB0581E391E090936F
:10213000CE058093CD0582E391E09093D005809306
:10214000CF0586E391E09093D2058093D10510925C
:10215000D4051092D5051092D6051092D705089592
:102160000895AF92BF92CF92DF92EF92FF920F93BA
:102170001F93CF93DF935C017B01C0E0D0E000E0D0
:1021800010E0F501EC0FFD1F4AE050E06281C7014D
:1021900051D16C016EE2C7018AD08C0D9D1D080FD4
:1021A000191F2196C330D10561F74AE050E0F501CF
:1021B0006581C7013FD1800F911FDF91CF911F91A2
:1021C0000F91FF90EF90DF90CF90BF90AF90089568
:1021D0000F93FC018BE492E09183808362834383BD
:1021E000248305830F9108950F9300E020E040E0E1
:1021F00060E088E596E0ECDF0F9108950C94FD22F5
:1022000008950C9495230895CF92DF92EF92FF9258
:102210000F931F93CF93DF936C0141155105B1F0DC
:10222000062F172FEA01E12CF12CD8016D918D01B9
:10223000D601ED91FC910190F081E02DC601199538
:10224000E80EF91E2197209781F702C0E12CF12CAE
:10225000C701DF91CF911F910F91FF90EF90DF9019
:10226000CF900895DC01ED91FC91DB0114964D9126
:102270005C9115976D917C910280F381E02D199509
:1022800008956115710581F0FB0101900020E9F7C7
:102290003197AF01461B570BDC01ED91FC91028099
:1022A000F381E02D1995089580E090E00895DC0118
:1022B000ED91FC910190F081E02D199508950F9317
:1022C0001F93CF93DF93EC016DE0F1DF8C016AE0A7
:1022D000CE01EDDF800F911FDF91CF911F910F9104
:1022E00008950F931F93CF93DF93EC01BBDF8C0115
:1022F000CE01E5DF800F911FDF91CF911F910F91EC
:1023000008950F931F93CF93DF93EC01BADF8C01F5
:10231000CE01D5DF800F911FDF91CF911F910F91DB
:1023200008956F927F928F929F92AF92BF92CF92B9
:10233000DF92EF92FF920F931F93CF93DF93CDB76E
:10234000DEB7A1970FB6F894DEBF0FBECDBF6C010C
:10235000742E352F862F972F622E19A221E0261575
:1023600020F00F2EFAE06F2EF02D7E01A1E2EA0E92
:10237000F11C862C912CA12CB12C672D732FA5015B
:1023800094010E94D122E22F732F022F132F242FAA
:10239000352FF72D6E9EF0191124B1E0EB1AF108DC
:1023A000FA3010F4F05D01C0F95CD701FC93012B09
:1023B000022B032B29F07E2E372F842F952FDDCF74
:1023C000E114F10491F0F70101900020E9F7319751
:1023D000AF014E195F09D601ED91FC910280F381A6
:1023E000E02DB701C601199502C080E090E0A196EA
:1023F0000FB6F894DEBF0FBECDBFDF91CF911F9116
:102400000F91FF90EF90DF90CF90BF90AF909F9093
:102410008F907F906F9008952115310549F4DC016C
:10242000ED91FC910190F081E02D642F19950895B4
:1024300078CF08959A01462F50E060E070E0ECCF2D
:1024400008958230A9F028F4882349F0813051F0B2
:102450000895843009F1E8F0853009F1089510926B
:102460006E000895EFE6F0E080818D7F808308950F
:10247000E0E7F0E080818D7F808381E08093B00091
:10248000E1EBF0E08081887F846080831092B3006C
:10249000089510927100089510927200089510929C
:1024A00073000895CF93C82F809106028C1307C044
:1024B000E3E0F6E084919FEF9093060201C08FEF76
:1024C000C0DF60E08C2FF5D2CF9108951F920F925C
:1024D0000FB60F9211240BB60F922F933F934F9389
:1024E0005F936F937F938F939F93AF93BF93EF937C
:1024F000FF938091610690916206A0916306B0916E
:102500006406892B8A2B8B2B51F180915E06E0911A
:102510005F06F09160069081892780838091610633
:1025200090916206A0916306B09164061816190690
:102530001A061B06BCF48091610690916206A09178
:102540006306B09164060197A109B1098093610601
:1025500090936206A0936306B093640603C08091D3
:102560000602A0DFFF91EF91BF91AF919F918F91F4
:102570007F916F915F914F913F912F910F900BBE83
:102580000F900FBE0F901F9018951F920F920FB6CD
:102590000F9211240BB60F922F933F934F935F939B
:1025A0006F937F938F939F93AF93BF93EF93FF931B
:1025B0008091690690916A06892B29F0E09169065D
:1025C000F0916A061995FF91EF91BF91AF919F919C
:1025D0008F917F916F915F914F913F912F910F90CC
:1025E0000BBE0F900FBE0F901F9018951F920F9269
:1025F0000FB60F9211240BB60F922F933F934F9368
:102600005F936F937F938F939F93AF93BF93EF935A
:10261000FF9380916B0690916C06892B29F0E091D5
:102620006B06F0916C061995FF91EF91BF91AF91F8
:102630009F918F917F916F915F914F913F912F91DA
:102640000F900BBE0F900FBE0F901F9018951F920A
:102650000F920FB60F9211240BB60F922F933F9348
:102660004F935F936F937F938F939F93AF93BF939A
:10267000EF93FF9380916D0690916E06892B29F060
:10268000E0916D06F0916E061995FF91EF91BF9163
:10269000AF919F918F917F916F915F914F913F91FA
:1026A0002F910F900BBE0F900FBE0F901F9018959B
:1026B0001F920F920FB60F9211240BB60F922F9309
:1026C0003F934F935F936F937F938F939F93AF93BA
:1026D000BF93EF93FF9380916F0690917006892BC3
:1026E00029F0E0916F06F09170061995FF91EF9136
:1026F000BF91AF919F918F917F916F915F914F911A
:102700003F912F910F900BBE0F900FBE0F901F9017
:1027100018951F920F920FB60F9211240BB60F92BD
:102720002F933F934F935F936F937F938F939F93D9
:10273000AF93BF93EF93FF938091650690916606E8
:10274000892B29F0E0916506F09166061995FF91B5
:10275000EF91BF91AF919F918F917F916F915F9119
:102760004F913F912F910F900BBE0F900FBE0F9086
:102770001F9018951F920F920FB60F9211240BB64F
:102780000F922F933F934F935F936F937F938F930A
:102790009F93AF93BF93EF93FF93809167069091C0
:1027A0006806892B29F0E0916706F0916806199573
:1027B000FF91EF91BF91AF919F918F917F916F9119
:1027C0005F914F913F912F910F900BBE0F900FBED5
:1027D0000F901F9018951F920F920FB60F92112411
:1027E0000BB60F922F933F934F935F936F937F930B
:1027F0008F939F93AF93BF93EF93FF938091710655
:1028000090917206892B29F0E0917106F091720681
:102810001995FF91EF91BF91AF919F918F917F910A
:102820006F915F914F913F912F910F900BBE0F9041
:102830000FBE0F901F9018951F920F920FB60F9218
:1028400011240BB60F922F933F934F935F936F9387
:102850007F938F939F93AF93BF93EF93FF93809159
:10286000730690917406892B29F0E0917306F0911C
:1028700074061995FF91EF91BF91AF919F918F9140
:102880007F916F915F914F913F912F910F900BBE70
:102890000F900FBE0F901F9018951F920F920FB6BA
:1028A0000F9211242F933F938F939F93AF93BF93D6
:1028B0008091760690917706A0917806B09179067E
:1028C0003091750623E0230F2D3720F40196A11DCA
:1028D000B11D05C026E8230F0296A11DB11D20934E
:1028E00075068093760690937706A0937806B0934A
:1028F000790680917A0690917B06A0917C06B09132
:102900007D060196A11DB11D80937A0690937B06EA
:10291000A0937C06B0937D06BF91AF919F918F915C
:102920003F912F910F900FBE0F901F9018952FB7CA
:10293000F894609176067091770680917806909170
:1029400079062FBF08953FB7F89480917A06909149
:102950007B06A0917C06B0917D0626B5A89B05C09C
:102960002F3F19F00196A11DB11D3FBFBA2FA92F0E
:10297000982F8827820F911DA11DB11DBC01CD018B
:10298000660F771F881F991F660F771F881F991F73
:102990000895CF92DF92EF92FF92CF93DF936B0176
:1029A0007C01D1DFEB01C114D104E104F10499F001
:1029B000D7DBC9DF6C1B7D0B683E734038F081E0CC
:1029C000C81AD108E108F108C851DC4FC114D1047C
:1029D000E104F10469F7DF91CF91FF90EF90DF9070
:1029E000CF90089590E0FC013197E231F10508F0B5
:1029F0005FC0EE58FF4F0C94F322E0E8F0E08081D6
:102A00008F7780830895E0E8F0E080818F7D808378
:102A10000895E0E8F0E08081877F8083089584B5A1
:102A20008F7784BD089584B58F7D84BD0895E0EBD4
:102A3000F0E080818F7780830895E0EBF0E0808183
:102A40008F7D80830895E0E9F0E080818F77808337
:102A50000895E0E9F0E080818F7D80830895E0E9CA
:102A6000F0E08081877F80830895E0EAF0E0808154
:102A70008F7780830895E0EAF0E080818F7D808306
:102A80000895E0EAF0E08081877F80830895E0E2A6
:102A9000F1E080818F7780830895E0E2F1E080812A
:102AA0008F7D80830895E0E2F1E08081877F8083DD
:102AB00008951F93CF93DF93C62F282F30E0F9019D
:102AC000EC5FF94F8491F901E65BF94F1491F9013C
:102AD000E057F94FD491DD23C1F0811183DF2D2F11
:102AE00030E0F901EE0FFF1FEA52F94FA591B491C2
:102AF0008FB7F894C11105C0EC9110951E231C935B
:102B000003C0EC911E2B1C938FBFDF91CF911F91BF
:102B10000895FC01808191810C9495230895CF93B1
:102B2000DF93EC0188819981009711F00E94952331
:102B3000198218821D821C821B821A82DF91CF911A
:102B400008950F931F93CF93DF93EC018B016F5F79
:102B50007F4F888199810E942424009731F09983C6
:102B600088831B830A8381E001C080E0DF91CF91DD
:102B70001F910F910895CF93DF93EC018881998184
:102B8000892B29F08A819B818617970768F4CE01EB
:102B9000D8DF882361F08C819D81892B39F4E8810D
:102BA000F981108281E003C081E001C081E0DF9102
:102BB000CF910895EF92FF920F931F93CF93DF93DE
:102BC000EC017B018A01BA01D6DF811103C0CE017D
:102BD000A6DF07C01D830C83B701888199810E94FD
:102BE0005325CE01DF91CF911F910F91FF90EF9070
:102BF0000895FC01118210821382128215821482C0
:102C00006115710549F0FB0101900020E9F731974A
:102C1000AF01461B570BCECF0895CF93DF93EC0146
:102C2000FB018617970751F060817181611571056D
:102C300021F044815581BEDF01C071DFCE01DF91FB
:102C4000CF910895FC0111821082138212821582A5
:102C50001482E3CF0895CF93DF93EC0161157105E2
:102C600051F0FB0101900020E9F73197AF01461BBD
:102C7000570BA0DF01C053DFCE01DF91CF91089544
:102C80000F931F93CF93DF93CDB7DEB761970FB646
:102C9000F894DEBF0FBECDBF8C01CB01F8011182CD
:102CA0001082138212821582148250E0BE016F5F7F
:102CB0007F4F0E948C25BE016F5F7F4FC801CBDF25
:102CC00061960FB6F894DEBF0FBECDBFDF91CF91F6
:102CD0001F910F910895EF92FF920F931F93CF933F
:102CE000DF93EC018B016C817D8101151105B9F039
:102CF00041155105B1F07A01E60EF71EB7013BDF31
:102D0000882381F0288139818C819D81B801820FCF
:102D1000931F0E945325FD82EC8281E003C080E076
:102D200001C081E0DF91CF911F910F91FF90EF9053
:102D30000895CF93DF931F921F92CDB7DEB76983BB
:102D40001A8241E050E0BE016F5F7F4FC4DF0F90F9
:102D50000F90DF91CF910895CF93DF93EC01FB01AA
:102D60004481558160817181B6DF811102C0CE013D
:102D7000D6DECE01DF91CF910895CF93DF93EC01A2
:102D80006115710559F0FB0101900020E9F73197B9
:102D9000AF01461B570B9FDF811102C0CE01BFDE82
:102DA000CE01DF91CF910895DC01ED91FC91309738
:102DB00039F0DB016D917C9161157105E9F412C068
:102DC000DB01ED91FC9111973097D1F014968D9124
:102DD0009C911597892BB9F0808190E09195819510
:102DE00091090895DC0114968D919C911597892B7A
:102DF00069F0808190E00895CF010C944A250895F0
:102E000080E090E0089580E090E0089580E090E018
:102E10000895FC0144815581FB01248135814217CD
:102E2000530739F4C1DF21E0892B09F020E0822F1C
:102E3000089580E00895DC0114962D913C9115973A
:102E4000232B61F46115710539F021E0FB018081CC
:102E50008823C9F020E017C021E015C06115710575
:102E600049F4DC01ED91FC9121E08081882359F047
:102E700020E009C0FC01808191810E944A2521E067
:102E8000892B09F020E0822F0895FC01CA01DB01A3
:102E900014964D915C91159724813581241B350B37
:102EA0002817390798F0208131812115310581F0EB
:102EB0006D917C916115710569F0820F931F0E94DD
:102EC0005A2521E0892B39F020E005C020E003C01D
:102ED00020E001C020E0822F0895FC01448155814B
:102EE000FB01248135814217530720F040E050E078
:102EF000CCCF089580E00895FC0144815581FB0109
:102F00002481358142175307B0F0FC018081918103
:102F1000009799F0FB01608171816115710579F06D
:102F2000421B530B840F951F0E944A2521E0892BD9
:102F300039F020E005C020E003C020E001C020E01F
:102F4000822F0895FC01248135816217730748F4AC
:102F500080819181009739F0FC01E60FF71F808195
:102F6000089580E0089580E00895ECCF08950F93D0
:102F70001F93CF93DF93EB0141155105F9F0209793
:102F8000E9F0FC01648175812617370710F018827B
:102F900015C0621B730B8A0101501109601771077C
:102FA00008F48B01FC0160817181620F731FA8011D
:102FB000CE010E946825C00FD11F1882DF91CF91EA
:102FC0001F910F910895BF92CF92DF92EF92FF92DF
:102FD0000F931F93CF93DF938C016B01EA0179016B
:102FE0002417350720F48D2FE901E42EF82E6EE525
:102FF00072E0C801FEDDD60114968D919C91159763
:10300000C817D907C8F48E159F0508F47C01D601AE
:10301000ED91FC911197EE0DFF1DB08010826D9126
:103020007C916C0F7D1FC80116DEF60180819181B5
:10303000FC01EE0DFF1DB082C801DF91CF911F9101
:103040000F91FF90EF90DF90CF90BF900895CF93B6
:10305000DF93EC01CB012C813D816217730710F5E2
:1030600041155105F9F0B901681B790B461757074F
:1030700008F4BA01E881F981261B370B3D832C83C4
:10308000A901481B590B680F791F6E0F7F1F8E0F08
:103090009F1F0E946825E881F9818C819D81E80F3E
:1030A000F91F1082DF91CF910895AF92BF92CF9216
:1030B000DF92EF92FF920F931F93CF93DF936C01F8
:1030C000DC01AD90BC901197A114B104D9F1149614
:1030D000CD91DC9115972097A9F175018701BFEF7C
:1030E000EB1AFB0AF801808190E00E943225892BBF
:1030F000A9F72197CA0DDB1D01C02197888190E0B7
:103100000E943225892B19F0C017D107B0F72196FC
:10311000AE01401B510BD60115965C934E9314974C
:10312000A016B10620F4B801C5010E943A25D601C7
:10313000ED91FC91119714968D919C911597E80F44
:10314000F91F1082DF91CF911F910F91FF90EF90A7
:10315000DF90CF90BF90AF900895FC018081918166
:10316000009719F00C940C25089560E070E0CB01F5
:1031700008956F927F928F929F92AF92BF92CF925B
:10318000DF92EF92FF920F931F93CF93DF93CDB710
:10319000DEB7E6970FB6F894DEBF0FBECDBF8C0149
:1031A0007B016EE572E0CE01C19623DD6EE572E033
:1031B000CE018B961EDD6CE572E0CE01859619DDA1
:1031C0004AE0B701CE014F965BDDBE01615E7F4FE5
:1031D000CE01499637DD6FE572E0CE01439609DDF9
:1031E000AE01475E5F4FBE016D5E7F4FC801AAD33F
:1031F000CE0143968EDCCE0149968BDCC12CD12CBE
:10320000580182E0A80EB11C6EE572E0C5018C0D7C
:103210009D1D21DDA6E0CA0ED11CBEE1CB16D10456
:1032200099F7F80110A2C80147D264E672E0D8010C
:1032300091968D919C91929724D8F80181A192A1A9
:10324000DC01ED91FC910284F385E02D19956FDB93
:1032500044E155E0E49E9001E59E300DF49E300D72
:1032600011240F2EFBEFDF2EF02D4B015C01820E9F
:10327000931EA11CB11C7801B2E0EB0EF11C772467
:103280007394C12CB9C0F80181A192A1DC01ED9128
:10329000FC910480F581E02D19951816190674F437
:1032A000F80181A192A1DC01ED91FC910680F781EA
:1032B000E02D1995682FCE01C1963BDDBE016B5DF7
:1032C0007F4FCE01C19618DE882309F495C06CE6C5
:1032D00072E0CE010D968DDCBE01635F7F4FCE01A3
:1032E000C196FBDD682ECE010D9613DC61108DC0FA
:1032F0006FE672E0CE0107967CDCBE01695F7F4F0E
:10330000CE01C196EADD682ECE01079602DC66206A
:1033100009F46DC022E130E046E050E0BE016F5C90
:103320007F4FCE0101964FDEBE016F5F7F4FCE0112
:103330008B9673DCCE010196ECDB6EE572E0CE017C
:10334000C19689DCF80180A1882311F06C2C0EC095
:10335000BE01655D7F4FC70160DCD80190968C91FE
:1033600090978F5F90968C93D72C46C0862D90E0D7
:10337000BC01660F771F860F971FBC01660F771F72
:103380006E5F7F4F600F711FCE018B9642DD8823E9
:1033900031F062E772E0CE018B965DDC05C063948C
:1033A000F80180A1681610F362E772E0CE018B96F7
:1033B00042DD811117C0D80190968C91909791E0D1
:1033C000980F90969C9390E09C01220F331F820FE0
:1033D000931F880F991F0296BE01655D7F4F800F76
:1033E000911F1BDCF80180A1853031F410C06EE51F
:1033F00072E0CE01C1962FDC9ADA681579058A054C
:103400009B0508F440CF1D2D03C01FEF01C011E044
:10341000CE014F967EDBCE0185967BDBCE018B966F
:1034200078DBCE01C19675DB812FE6960FB6F89456
:10343000DEBF0FBECDBFDF91CF911F910F91FF90E7
:10344000EF90DF90CF90BF90AF909F908F907F9044
:103450006F900895BF92CF92DF92EF92FF920F93F9
:103460001F93CF93DF93CDB7DEB768970FB6F8946D
:10347000DEBF0FBECDBF8C017B01DB0114968D91A9
:103480009C9115970C9709F0A1C06EE572E0CE01F2
:103490004396AFDB6CE572E0CE010D96AADBC80166
:1034A0000BD164E672E0F80181A192A10E94411162
:1034B00064E772E0D80191968D919C9192970E9459
:1034C0004111B701F80181A192A10E94321169E76F
:1034D00072E0D80191968D919C9192970E94411132
:1034E000F80181A192A1DC01ED91FC910284F385A8
:1034F000E02D19951CDA6B017C016EE572E0CE01BE
:103500004396A9DBB8E8CB0EB3E1DB1EE11CF11C4E
:103510004AC0F80181A192A1DC01ED91FC910480E7
:10352000F581E02D19951816190674F4F80181A19A
:1035300092A1DC01ED91FC910680F781E02D1995B7
:10354000682FCE014396F5DBBE01635F7F4FCE014E
:103550004396D2DC882339F16DE772E0CE010796FD
:1035600048DBBE01695F7F4FCE014396B6DCB82EC3
:10357000CE010796CEDAB1101FC061E872E0CE012D
:10358000019637DBBE016F5F7F4FCE014396A5DC0E
:10359000B82ECE010196BDDAB11010C06EE572E012
:1035A000CE01439658DBC3D96C157D058E059F056A
:1035B00008F4AFCF1EEF03C01FEF01C011E0CE0132
:1035C0000D96A7DACE014396A4DA01C01DEF812F34
:1035D00068960FB6F894DEBF0FBECDBFDF91CF91D6
:1035E0001F910F91FF90EF90DF90CF90BF900895C3
:1035F0000F931F93CF93DF9300D000D0CDB7DEB7EA
:10360000FC018A01262F30E0A9014F5F5F4F80A1A6
:1036100090E0841795077CF46EE572E0CE01019688
:10362000E8DABE016F5F7F4FC801F7DACE0101967D
:1036300070DA8DEF0FC0B901660F771F260F371FA5
:10364000B901660F771F6E5F7F4F6E0F7F1FC80136
:10365000E4DA81E026960FB6F894DEBF0FBECDBF48
:10366000DF91CF911F910F910895FC0180A10895E2
:10367000CF92DF92EF92FF920F931F93CF93DF933E
:103680007C016B01EC0122968C01005E1F4F6EE500
:1036900072E0CE01AEDA2696C017D107C1F7F70166
:1036A000D2A2C1A210A2DF91CF911F910F91FF90E2
:1036B000EF90DF90CF9008958F929F92AF92BF923C
:1036C000CF92DF92EF92FF920F931F93CF93DF93EE
:1036D000CDB7DEB762970FB6F894DEBF0FBECDBF91
:1036E0008C016CE572E0CE010D9683DA6EE572E036
:1036F000CE0107967EDA6DE572E0D80191968D9144
:103700009C9192970E944111F80181A192A1DC0144
:10371000ED91FC910284F385E02D199508D96B0198
:103720007C012CC0F80181A192A1DC01ED91FC91FA
:103730000480F581E02D1995181619068CF4F8010E
:1037400081A192A1DC01ED91FC910680F781E02D31
:103750001995682FCE010796ECDAE9D86B017C0148
:10376000E6D846015701B8EE8B0EB3E09B1EA11CB4
:10377000B11C86169706A806B906C0F0BE01635FA5
:103780007F4FCE010796B8DB813061F66DE772E0BE
:10379000CE0101962EDABE016F5F7F4FCE010796F4
:1037A0009CDBCE010196B5D911E001C01EEFCE0120
:1037B0000796AFD9CE010D96ACD9812F62960FB680
:1037C000F894DEBF0FBECDBFDF91CF911F910F9157
:1037D000FF90EF90DF90CF90BF90AF909F908F9031
:1037E0000895BF92CF92DF92EF92FF920F931F93B3
:1037F000CF93DF93CDB7DEB768970FB6F894DEBFEF
:103800000FBECDBF8C017B016EE572E0CE01439609
:10381000F0D96CE572E0CE010D96EBD9C8014CDF12
:10382000B701D80191968D919C9192970E94321187
:103830006DE572E0F80181A192A10E944111D801C9
:1038400091968D919C919297DC01ED91FC9102846F
:10385000F385E02D19956BD86B017C01B8EBCB0E8D
:10386000BBE0DB1EE11CF11C4AC0F80181A192A162
:10387000DC01ED91FC910480F581E02D199518167D
:10388000190674F4F80181A192A1DC01ED91FC917B
:103890000680F781E02D1995682FCE01439649DA0D
:1038A000BE01635F7F4FCE01439626DB882339F14B
:1038B0006CE672E0CE0107969CD9BE01695F7F4F2E
:1038C000CE0143960ADBB82ECE01079622D9B1105D
:1038D0001FC061EA72E0CE0101968BD9BE016F5F15
:1038E0007F4FCE014396F9DAB82ECE01019611D959
:1038F000B11010C06EE572E0CE014396ACD917D876
:103900006C157D058E059F0508F4AFCF1EEF03C033
:103910001FEF01C011E0CE010D96FBD8CE014396FA
:10392000F8D8812F68960FB6F894DEBF0FBECDBFD2
:10393000DF91CF911F910F91FF90EF90DF90CF908B
:10394000BF900895BF92CF92DF92EF92FF920F93B4
:103950001F93CF93DF93CDB7DEB768970FB6F89478
:10396000DEBF0FBECDBF8C016B017A016EE572E048
:10397000CE0143963ED96CE572E0CE010D9639D961
:10398000C8019ADE6CEA72E0D80191968D919C9103
:1039900092970E944111B601F80181A192A10E9463
:1039A00032116FED73E0D80191968D919C919297B1
:1039B0000E944111B701F80181A192A10E94321128
:1039C0006DE572E0D80191968D919C9192970E943D
:1039D0004111F80181A192A1DC01ED91FC910284D9
:1039E000F385E02D19950E9497146B017C01B0EDD1
:1039F000CB0EB7E0DB1EE11CF11C4AC0F80181A12F
:103A000092A1DC01ED91FC910480F581E02D1995E6
:103A10001816190674F4F80181A192A1DC01ED9148
:103A2000FC910680F781E02D1995682FCE01439611
:103A300080D9BE01635F7F4FCE0143965DDA882354
:103A400039F16CE672E0CE010796D3D8BE01695F0A
:103A50007F4FCE01439641DAB82ECE01079659D852
:103A6000B11020C061EA72E0CE010196C2D8BE0159
:103A70006F5F7F4FCE01439630DAB82ECE010196AC
:103A800048D8B11011C06EE572E0CE014396E3D87C
:103A90000E9497146C157D058E059F0508F4AECF26
:103AA0001EEF03C01FEF01C011E0CE010D9631D80B
:103AB000CE0143962ED8812F68960FB6F894DEBFBC
:103AC0000FBECDBFDF91CF911F910F91FF90EF906F
:103AD000DF90CF90BF9008958F929F92AF92BF9248
:103AE000CF92DF92EF92FF920F931F93CF93DF93CA
:103AF000CDB7DEB76E970FB6F894DEBF0FBECDBF61
:103B00008C017B016EE572E0CE01499672D86CE5BE
:103B100072E0CE0143966DD8C801CEDD60EE72E052
:103B2000D80191968D919C9192970E944111F80134
:103B300081A192A1DC01ED91FC910284F385E02D3D
:103B400019950E9497144B015C01B8EB8B0EBBE0FA
:103B50009B1EA11CB11CDD24D3946CC0F80181A173
:103B600092A1DC01ED91FC910480F581E02D199585
:103B70001816190674F4F80181A192A1DC01ED91E7
:103B8000FC910680F781E02D1995682FCE014996AA
:103B9000D0D8BE016D5E7F4FCE014996ADD9882346
:103BA00009F448C06CE672E0CE010D9622D8BE0141
:103BB000635F7F4FCE01499690D9C82ECE010D96F6
:103BC0000E948915C11040C061EA72E0CE010796DB
:103BD00010D8BE01695F7F4FCE0149967ED9C82EAD
:103BE000CE0107960E948915C11030C065EE72E0C3
:103BF000CE0101960E94F915BE016F5F7F4FCE0185
:103C000049966BD9C82ECE0101960E948915CC2009
:103C100061F064E070E0CE014996A7D9833419F4CD
:103C2000F701D08202C0D7011C926EE572E0CE018E
:103C3000499611D80E949714681579058A059B0545
:103C400008F48CCF1EEF03C01FEF01C011E0CE01BE
:103C500043960E948915CE0149960E948915812FAD
:103C60006E960FB6F894DEBF0FBECDBFDF91CF9139
:103C70001F910F91FF90EF90DF90CF90BF90AF908A
:103C80009F908F9008958F929F92AF92BF92CF9204
:103C9000DF92EF92FF920F931F93CF93DF93CDB7F5
:103CA000DEB769970FB6F894DEBF0FBECDBF7C01BB
:103CB0008B01842E6CE572E0CE0143960E94F915CB
:103CC000BE01675E7F4FC70107DF898D882329F01A
:103CD0000F2EF4E1AF2EF02D04C00F2EFDE7AF2E16
:103CE000F02D882009F450C0982CD12C9A1408F497
:103CF000A92C9A186EE572E0CE010D960E94F91576
:103D0000AA2081F0BA2CBD0CCC24C394CD0CF801B0
:103D1000ED0DF11D6081CE010D960BD8CB1419F07D
:103D2000DC2CF2CFBD2C69EE72E0CE0107960E942A
:103D3000F915BE01635F7F4FCE0107960DD86DE583
:103D400072E01BD8BC01CE010D960E940D16CE016B
:103D500007960E948915BE01635F7F4FCE010196D1
:103D60000E942216BE016F5F7F4FC7013ADDD82E39
:103D7000CE0101960E948915CE010D960E948915EB
:103D8000B81420F4DB2CB2CFDD24D394CE014396BB
:103D90000E9489158D2D69960FB6F894DEBF0FBE6F
:103DA000CDBFDF91CF911F910F91FF90EF90DF90EA
:103DB000CF90BF90AF909F908F900895CF92DF9259
:103DC000EF92FF920F931F93CF93DF936C017B01D0
:103DD000FB01048115810F5F1F4FC8010E94FE1077
:103DE000EC0120E030E0A801BC01C701C0D8402FA1
:103DF000BE01C60148DF182FCE010E940111812F9C
:103E0000DF91CF911F910F91FF90EF90DF90CF90B6
:103E100008950F931F93CF93DF9300D000D0CDB7B9
:103E2000DEB78C01CE0101960E94F915BE016F5FCD
:103E30007F4FC801C3DF182FCE0101960E9489155C
:103E4000812F26960FB6F894DEBF0FBECDBFDF914F
:103E5000CF911F910F910895EF92FF920F931F93AF
:103E6000CF93DF938130910509F4B5C0823091057D
:103E700009F436C1892B09F0B8C110927F0610925F
:103E80007E0640E050E067E070E083EA96E00E9442
:103E9000E70761E083EA96E00E94ED0727E047E04C
:103EA00067E083EA96E00E94770ABC0183EA96E025
:103EB0000E94F3076CE573E083EA96E00E944111EB
:103EC0006EE573E083EA96E00E94411160E673E0DC
:103ED00083EA96E00E94411149E050E061E070E021
:103EE00083EA96E00E94E7076AED73E083EA96E0D2
:103EF0000E94411162E673E083EA96E00E9441115C
:103F00006CE872E083EA96E00E94411164E673E097
:103F100083EA96E00E94411162E672E083EA96E04D
:103F20000E94411142E150E061E070E083EA96E0D6
:103F30000E94E7076EEE72E083EA96E00E9441116C
:103F400060EF72E083EA96E00E94411162E672E05F
:103F500083EA96E00E94411166E673E083EA96E008
:103F60000E9441116EEB72E083EA96E00E944111DB
:103F700068EE73E080E090E00E94C914E091A3062F
:103F8000F091A406C685D78520E040E060E083EA92
:103F900096E00E94770A7C010FE110E02FE130E00B
:103FA00040E050E060E070E083EA96E0FE011995A1
:103FB00064EF71E080E090E00E94C91480917E0679
:103FC00090917F06019690937F0680937E060397DB
:103FD0000CF457CF83C110927F0610927E06E091B9
:103FE000A306F091A406C681D78125E047E064E0EE
:103FF00083EA96E00E94770A7C010FE010E025E05A
:1040000030E04FE050E06BE170E083EA96E0FE01C3
:104010001995E091A306F091A406C681D78125E009
:1040200047E064E083EA96E00E94770A7C010EE0B4
:1040300010E026E030E044E050E060E170E083EA28
:1040400096E0FE011995E091A306F091A406C681C1
:10405000D78125E047E064E083EA96E00E94770A92
:104060007C0100E110E026E030E04AE150E060E150
:1040700070E083EA96E0FE01199564EF71E080E05C
:1040800090E00E94C914E091A306F091A406C685B1
:10409000D78520E040E060E083EA96E00E94770A5E
:1040A0007C010FE110E02FE130E040E050E060E003
:1040B00070E083EA96E0FE01199564EF71E080E01C
:1040C00090E00E94C91480917E0690917F0601962F
:1040D00090937F0680937E0603970CF480CFFEC0FA
:1040E00010927F0610927E06E091A306F091A4063E
:1040F000C681D78125E047E064E083EA96E00E942C
:10410000770A7C010FE010E02BE130E04FE050E057
:1041100065E070E083EA96E0FE011995E091A30660
:10412000F091A406C681D78125E047E064E083EAE8
:1041300096E00E94770A7C010EE010E02AE130E070
:1041400044E050E060E170E083EA96E0FE011995FA
:10415000E091A306F091A406C681D78125E047E04F
:1041600064E083EA96E00E94770A7C0100E110E0B7
:104170002AE130E04AE150E060E170E083EA96E055
:10418000FE01199564EF71E080E090E00E94C9148F
:10419000E091A306F091A406C685D78520E040E013
:1041A00060E083EA96E00E94770A7C010FE110E06C
:1041B0002FE130E040E050E060E070E083EA96E01C
:1041C000FE01199564EF71E080E090E00E94C9144F
:1041D00080917E0690917F06019690937F06809352
:1041E0007E0603970CF480CF79C010927F06109260
:1041F0007E0620E040E067E083EA96E00E94770ACE
:104200008C012FE030E04FE050E06FE070E083EA97
:1042100096E00E944C064CE050E064E070E083EAD7
:1042200096E00E94E70761E083EA96E00E94ED07CE
:1042300020E040E060E083EA96E00E94770ABC015B
:1042400083EA96E00E94F30767EE72E083EA96E065
:104250000E94411162E672E083EA96E00E944111F9
:1042600062E673E083EA96E00E9441116CE573E038
:1042700083EA96E00E94411168EB7BE080E090E0E9
:104280000E94C914E091A306F091A406C685D785C3
:1042900020E040E060E083EA96E00E94770A7C013B
:1042A0000FE110E02FE130E040E050E060E070E02E
:1042B00083EA96E0FE01199564EF71E080E090E0FA
:1042C0000E94C91480917E0690917F06019690937A
:1042D0007F0680937E0603970CF48BCFDF91CF91FE
:1042E0001F910F91FF90EF9008958F92AF92CF9210
:1042F000EF920F936EE572E08BEE96E00E94F91557
:104300006EE572E085EE96E00E94F9156EE572E0CA
:104310008FED96E00E94F91580E28F93812C0F2E8D
:10432000F9E0AF2EF02D0F2EFCE0CF2EF02D0F2E4A
:10433000FBE0EF2EF02D09E328E347E366E383EA91
:1043400096E00E94280A61E874E080E896E090D93F
:104350000F900F91EF90CF90AF908F900895CF93E3
:10436000DF9382E896E0892B51F0C0EAD6E02697E9
:10437000CE010E94891586E0C238D807C1F78FEDBB
:1043800096E00E94891585EE96E00E9489158BEED5
:1043900096E00E948915DF91CF910895CF93DF9326
:1043A000CDB7DEB7A4970FB6F894DEBF0FBECDBF72
:1043B00062E070E080E896E00E94B918813039F53B
:1043C00068E673E084EE93E00E94811180E896E055
:1043D0004CD9F82E6EE572E0CE014F960E94F91589
:1043E00061E773E084EE93E00E9441114AE050E0FF
:1043F0006F2D84EE93E00E941A126BE773E084EE57
:1044000093E00E948111F11014C000E048C08B3F7E
:1044100039F469E873E084EE93E00E948111C8CF1B
:104420008F3F31F667E973E084EE93E00E948111DB
:10443000BFCF10E000E0AE01415E5F4F612F80E82A
:1044400096E0D6D866EB73E0CE0149960E94F91546
:10445000BE01615E7F4FCE0149960E94AC16BC0141
:1044600084EE93E00E947111CE0149960E94891555
:1044700066EC73E0CE0143960E94F915BE016D5EB5
:104480007F4FCE014F960E946D17E82ECE014396C6
:104490000E948915E110012F1F5F1F11CCCFAE01C3
:1044A000415E5F4F602F80E896E0A2D8BE01615E5A
:1044B0007F4FCE010D960E942216BE01635F7F4F93
:1044C00080E896E00E942A1ACE010D960E94891576
:1044D0006DEC73E080E896E09CDC6DEC73E080E8C6
:1044E00096E097DC0FC081E894E00E94680D682F89
:1044F00085EE96E00E9499166AE070E080E090E018
:104500000E94C91481E894E00E944F0D1816190604
:1045100054F365EE76E084EE93E00E9471116CE551
:1045200072E0CE0107960E94F915BE01695F7F4FC8
:1045300085EE96E00E947C17182FCE0107960E9408
:104540008915112331F16CED73E0CE0101960E94C3
:10455000F915BE016F5F7F4F85EE96E00E946D17E3
:10456000182FCE0101960E948915112391F085EE36
:1045700096E00E94551844E050E060E070E085EE5F
:1045800096E00E94271885EE96E00E94AD18CB01B8
:1045900063DC6EE572E085EE96E00E942B16B2CFEA
:1045A000FDDEA1E21A2EAA1BBB1BFD010DC0AA1F36
:1045B000BB1FEE1FFF1FA217B307E407F50720F08C
:1045C000A21BB30BE40BF50B661F771F881F991F07
:1045D0001A9469F760957095809590959B01AC0150
:1045E000BD01CF010895EE0FFF1F0590F491E02D5E
:1045F00019940790F691E02D1994CF93DF938230B0
:10460000910510F482E090E0E091F306F091F40659
:1046100020E030E0A0E0B0E0309739F140815181F6
:1046200048175907B8F04817590771F482819381E8
:10463000109729F013969C938E9312972CC0909309
:10464000F4068093F30627C02115310531F0421797
:10465000530718F0A901DB0101C0EF019A01BD0168
:10466000DF010280F381E02DD7CF21153105F9F06C
:10467000281B390B2430310580F48A819B81611518
:10468000710521F0FB019383828304C09093F406AB
:104690008093F306FE01329644C0FE01E20FF31F41
:1046A0008193919322503109398328833AC0209114
:1046B000F1063091F206232B41F420910202309151
:1046C00003023093F2062093F1062091000230910C
:1046D00001022115310541F42DB73EB74091040286
:1046E00050910502241B350BE091F106F091F20682
:1046F000E217F307A0F42E1B3F0B2817390778F0B9
:10470000AC014E5F5F4F2417350748F04E0F5F1F17
:104710005093F2064093F1068193919302C0E0E03A
:10472000F0E0CF01DF91CF910895CF93DF93009711
:1047300009F487C0FC01329713821282C091F306FC
:10474000D091F406209781F420813181280F391F00
:104750008091F1069091F2068217930779F5F09314
:10476000F206E093F1066DC0DE0120E030E0AE1706
:10477000BF0750F412964D915C9113979D0141151E
:10478000510509F1DA01F3CFB383A283408151814E
:10479000840F951F8A179B0771F48D919C91119737
:1047A000840F951F02969183808312968D919C9120
:1047B0001397938382832115310529F4F093F4062E
:1047C000E093F3063EC0D9011396FC93EE93129743
:1047D0004D915D91A40FB51FEA17FB0779F4808115
:1047E0009181840F951F0296D90111969C938E9307
:1047F0008281938113969C938E931297E0E0F0E070
:104800008A819B81009719F0FE01EC01F9CFCE015E
:10481000029628813981820F931F2091F1063091F1
:10482000F2062817390769F4309729F41092F40634
:104830001092F30602C013821282D093F206C09344
:10484000F106DF91CF9108956F927F928F929F92A0
:10485000AF92BF92CF92DF92EF92FF920F931F938E
:10486000CF93DF93EC01CB01209779F4DF91CF91C7
:104870001F910F91FF90EF90DF90CF90BF90AF907E
:104880009F908F907F906F90B8CEFE01E60FF71F3C
:104890009E0122503109E217F30708F4A8C0D9019C
:1048A0000D911C91119706171707B0F005301105EF
:1048B00008F49BC0A801445051094617570708F453
:1048C00094C002501109061B170B019311936D93AD
:1048D0007C93CF012ADF89C05B01A01AB10A4E0187
:1048E000800E911EA091F306B091F406612C712CFC
:1048F00060E070E0109709F449C0A815B905C9F542
:10490000ED90FC901197670142E0C40ED11CCA14CF
:10491000DB0478F147018A189B08640142E0C40E69
:10492000D11C1296BC9012971396AC91B5E0CB16A1
:10493000D10440F0B282A38391828082D9018D9309
:104940009C9309C00E5F1F4F0E0D1F1DF9011183AF
:104950000083EB2DFA2F6115710531F0DB01139601
:10496000FC93EE93129741C0F093F406E093F306A4
:104970003CC06D917C9111976616770608F43B0157
:10498000BD0112960D90BC91A02DB4CF6091F1069F
:104990007091F20668157905E9F468167906D0F485
:1049A00040910002509101024115510541F44DB76B
:1049B0005EB76091040270910502461B570BE41725
:1049C000F507A8F4F093F206E093F106F90191835C
:1049D00080830BC012DE7C01009749F0A801BE0164
:1049E00049D0CE01A2DEC70104C0CE0102C080E0E2
:1049F00090E0DF91CF911F910F91FF90EF90DF90AA
:104A0000CF90BF90AF909F908F907F906F900895C0
:104A100081E090E0F894B6C01F93FC0199278827A5
:104A2000BC01E89411911032E9F3193010F01E30F6
:104A3000C8F31B3249F01D3241F4689405C057D0C9
:104A4000610F711D811D911D119110531A30B8F322
:104A50003EF490958095709561957F4F8F4F9F4F55
:104A60001F91089591117BC0803219F089508550B3
:104A7000D0F70895FB01DC0102C001900D92415076
:104A80005040D8F70895DC0101C06D93415050406B
:104A9000E0F70895FB01DC018D9101908019011070
:104AA000D9F3990B0895FB01DC0101900D920020D0
:104AB000E1F70895FB01DC014150504030F08D9149
:104AC0000190801919F40020B9F7881B990B0895FB
:104AD000FB01DC014150504048F001900D92002054
:104AE000C9F701C01D9241505040E0F70895592F79
:104AF000482F372F262F660F771F881F991F660FA5
:104B0000771F881F991F620F731F841F951F660FE1
:104B1000771F881F991F08954532510518F44230B8
:104B200008F004C0FB011082CB010895BB27FB01F4
:104B30005527AA27880F991FAA1FA41710F0A41B96
:104B400083955051B9F7A05DAA3308F0A95DA193F0
:104B5000009779F7B111B1931192CB0103C0992756
:104B600088270895DC01FC01672F71917723E1F715
:104B7000329704C07C916D9370836291AE17BF072A
:104B8000C8F3089516E0CCEFD6E000E005C0229708
:104B90000109FE010BBF2DDDCE3FD10780E00807E4
:064BA000B1F7F894FFCF0D
:104BA6000000F5062000FF000000008A0704114DF2
:104BB6000DB103C104D8047204EE042505430500B3
:104BC6000000008A070411F907B103C104D8047272
:104BD60004EE04230D430500000000C10D04114F2F
:104BE6000D680D5A0D9D0D00000000B11041445690
:104BF600204F4E00414456204F4646000A0D0053B2
:104C0600434E540053434E204F4E0D004552005321
:104C160043007800434F4E200020300D004552528D
:104C2600005250440044434E0D0044434E0053434B
:104C36004E204F4646005645520D00426C7565742F
:104C4600004F4B00525452005752540053455420C3
:104C560000303030410030303238003030344500DA
:104C660030303945003030454200554152540043FA
:104C7600454E5400474554200052535400524500B7
:104C86005354530D0053545300534E4420004800D0
:104C960049004D6F64756C65207265736574206597
:104CA60072726F7221004D6F64756C652072657348
:104CB600746F7265206572726F7221004D6F647534
:104CC6006C6520777269746520636F6E666967200C
:104CD6006572726F7221005365636F6E64206D6F2B
:104CE60064756C65207265736574206572726F7287
:104CF600210041434F4E0043434F4E0050004C00AD
:104D06005A004F0027004D00537563636573732186
:104D160000576520666F756E64200020424C452062
:104D260064657669636573210052656D6F746520ED
:104D36006572726F7221004D6F64756C65206572C5
:104D4600726F7221204576657279626F6479207080
:104D5600616E69632100466F756E642061646472DA
:104D66006573733A2000323046414242003138358D
:104D760034395465616D31364C4544005243563DD5
:024D860000002B
:00000001FF
