:100000000C9461000C9448040C9475040C948900C1
:100010000C9489000C9489000C9489000C94EC03D6
:100020000C9489000C9489000C9489000C9489002C
:100030000C9489000C9489000C9489000C9489001C
:100040000C94A2040C9489000C94CA010C94FC0139
:100050000C9489000C9489000C9489000C948900FC
:100060000C9489000C948900020000000800020131
:10007000000003040700000000000000000102046B
:10008000081020408001020408102001020408101A
:100090002004040404040404040202020202020311
:1000A000030303030300000000250028002B0000C9
:1000B000000000240027002A00002C02AA0284105D
:1000C000961011241FBECFEFD8E0DEBFCDBF13E0E6
:1000D000A0E0B1E0E8E8F9E202C005900D92A03599
:1000E000B107D9F724E0A0E5B3E001C01D92A63620
:1000F000B207E1F710E0C0ECD0E004C02297FE01A7
:100100000E945512CA3BD107C9F70E942F0F0C94C9
:10011000B7140C940000FC01818D228D90E0805C6E
:100120009F4F821B91098F7399270895FC01918D30
:10013000828D981731F0828DE80FF11D858D90E04A
:1001400008958FEF9FEF0895FC01918D828D981790
:1001500061F0828DDF01A80FB11D5D968C91928DAB
:100160009F5F9F73928F90E008958FEF9FEF0895A8
:1001700082E292E0892B49F080E090E0892B29F01F
:100180000E94220281110C9400000895FC01848DCC
:10019000DF01A80FB11DA35ABF4F2C91848D90E0B1
:1001A00001968F739927848FA689B7892C93A0898C
:1001B000B1898C9180648C93938D848D981306C043
:1001C0000288F389E02D80818F7D80830895CF930D
:1001D000DF93EC01888D8823C9F0EA89FB8980814F
:1001E00085FD05C0A889B9898C9186FD0FC00FB621
:1001F00007FCF5CF808185FFF2CFA889B9898C9162
:1002000085FFEDCFCE010E94C600E7CFDF91CF91F1
:100210000895CF92DF92FF920F931F93CF93DF93B6
:100220001F92CDB7DEB76C01DC015B969C915B97AA
:100230005C968C915C97981307C05096ED91FC9159
:100240005197808185FD32C0F601038D10E00F5F6C
:100250001F4F0F731127F02EF601848DF81211C075
:100260000FB607FCF9CFD6015096ED91FC9151974E
:10027000808185FFF1CFC60169830E94C600698134
:10028000EBCF838DE80FF11DE35AFF4F6083D6015A
:100290005B960C935B975296ED91FC9153978081FE
:1002A0008062808381E058968C930DC0D60156966B
:1002B000ED91FC91579760835096ED91FC91519789
:1002C00080818064808381E090E00F90DF91CF9106
:1002D0001F910F91FF90DF90CF900895BF92CF9222
:1002E000DF92EF92FF92CF93DF93EC016A017B01E3
:1002F000B22E60E874E88EE190E0A70196010E94BA
:1003000031122150310941095109569547953795C8
:100310002795E889F98982E08083211580E13807F3
:1003200098F0E889F989108260E472E48FE090E047
:10033000A70196010E94311221503109410951094A
:100340005695479537952795EC85FD853083EE8545
:10035000FF852083188EEC89FD89B082EA89FB89AC
:10036000808180618083EA89FB89808188608083C5
:10037000EA89FB89808180688083EA89FB898081A2
:100380008F7D8083DF91CF91FF90EF90DF90CF90B2
:10039000BF9008951F920F920FB60F9211242F93C2
:1003A0008F939F93EF93FF93E0916003F09161032C
:1003B0008081E0916603F091670382FD12C0908115
:1003C000809169038F5F8F7320916A03821751F0C8
:1003D000E0916903F0E0E05BFC4F958F8093690347
:1003E00001C08081FF91EF919F918F912F910F908C
:1003F0000FBE0F901F9018951F920F920FB60F927D
:1004000011242F933F934F935F936F937F938F9319
:100410009F93AF93BF93EF93FF9380E593E00E9488
:10042000C600FF91EF91BF91AF919F918F917F9106
:100430006F915F914F913F912F910F900FBE0F9051
:100440001F90189580E593E00E948B0021E0892B96
:1004500009F420E0822F0895109253031092520362
:1004600088EE93E0A0E0B0E08093540390935503AE
:10047000A0935603B09357038CE091E090935103FF
:100480008093500385EC90E090935D0380935C0330
:1004900084EC90E090935F0380935E0380EC90E0A7
:1004A000909361038093600381EC90E090936303E9
:1004B0008093620382EC90E09093650380936403E1
:1004C00086EC90E090936703809366031092690333
:1004D00010926A0310926B0310926C0308950895B2
:1004E000AF92BF92CF92DF92EF92FF920F931F9342
:1004F000CF93DF936C017B01C0E0D0E000E010E01F
:10050000F601EC0FFD1F4AE050E06281C7010E9436
:10051000B0035C016EE2C7010E940B038A0D9B1DB4
:10052000080F191F2196C330D10551F74AE050E05A
:10053000F6016581C7010E94B003800F911FDF9112
:10054000CF911F910F91FF90EF90DF90CF90BF90D0
:10055000AF9008958CE191E09093EE038093ED03CA
:100560001092EF031092F0031092F1031092F20335
:1005700008950C9459120C94F112CF92DF92EF92DD
:10058000FF920F931F93CF93DF936C017A01EB01DE
:10059000E60EF71E00E010E0CE15DF0561F0699170
:1005A000D601ED91FC910190F081E02DC6010995F5
:1005B000080F191FF1CFC801DF91CF911F910F9143
:1005C000FF90EF90DF90CF9008956115710581F055
:1005D000DB010D900020E9F7AD0141505109461BA8
:1005E000570BDC01ED91FC910280F381E02D099421
:1005F00080E090E00895DC01ED91FC91DB01149620
:100600004D915C9115976D917C910280F381E02D65
:1006100009940C94E502DC01ED91FC910190F081CC
:10062000E02D09940F931F93CF93DF93EC016DE0BE
:100630000E940B038C016AE0CE010E940B03800F25
:10064000911FDF91CF911F910F9108950F931F93E9
:10065000CF93DF93EC010E94FB028C01CE010E943C
:100660001203800F911FDF91CF911F910F91089579
:100670000F931F93CF93DF93EC010E94E5028C014F
:10068000CE010E941203800F911FDF91CF911F9125
:100690000F9108958F929F92AF92BF92CF92DF9267
:1006A000EF92FF920F931F93CF93DF93CDB7DEB7F7
:1006B000A1970FB6F894DEBF0FBECDBF7C01C42E4C
:1006C000E52FCB01D22E19A221E02D1510F02AE042
:1006D000D22E8E010F5D1F4F8D2C912CA12CB12C91
:1006E0006C2D7E2FA50194010E9431128C2DD29E7B
:1006F00080191124015011098A3010F4805D01C065
:10070000895CF8018083211531054105510521F0EF
:10071000C22EE32FCA01E4CFB801C7010E94E5024F
:10072000A1960FB6F894DEBF0FBECDBFDF91CF917B
:100730001F910F91FF90EF90DF90CF90BF90AF90FF
:100740009F908F9008952115310541F4DC01ED91C2
:10075000FC910190F081E02D642F09940C944A03E0
:100760009A01462F50E060E070E00C94A3038130C2
:1007700039F018F0823051F0089510926E0008950B
:1007800080916F008D7F80936F000895809170003D
:100790008D7F8093700081E08093B0008091B100E4
:1007A000887F84608093B1001092B3000895CF9346
:1007B000C82F809106018C1307C0E8E6F0E0849111
:1007C0009FEF9093060101C08FEF0E94B70360E096
:1007D0008C2FCF910C94FD051F920F920FB60F92A4
:1007E00011242F933F934F935F936F937F938F9336
:1007F0009F93AF93BF93EF93FF938091F6039091F4
:10080000F703A091F803B091F903892B8A2B8B2B66
:1008100051F19091F303E091F403F091F50380819D
:10082000892780838091F6039091F703A091F803C4
:10083000B091F903181619061A061B06C4F4809124
:10084000F6039091F703A091F803B091F903019793
:10085000A109B1098093F6039093F703A093F803DD
:10086000B093F90304C0809106010E94D703FF9161
:10087000EF91BF91AF919F918F917F916F915F9118
:100880004F913F912F910F900FBE0F901F90189591
:100890001F920F920FB60F9211242F933F934F93F5
:1008A0005F936F937F938F939F93AF93BF93EF93D8
:1008B000FF938091FA039091FB03892B29F0E0913B
:1008C000FA03F091FB030995FF91EF91BF91AF916E
:1008D0009F918F917F916F915F914F913F912F9158
:1008E0000F900FBE0F901F9018951F920F920FB68A
:1008F0000F9211242F933F934F935F936F937F93A6
:100900008F939F93AF93BF93EF93FF938091FC03DB
:100910009091FD03892B29F0E091FC03F091FD03F8
:100920000995FF91EF91BF91AF919F918F917F9129
:100930006F915F914F913F912F910F900FBE0F904C
:100940001F9018951F920F920FB60F9211242F939C
:100950003F938F939F93AF93BF938091FF039091A9
:100960000004A0910104B09102043091FE0326E03E
:10097000230F2D3720F40296A11DB11D05C029E8D3
:10098000230F0396A11DB11D2093FE038093FF0347
:1009900090930004A0930104B09302048091030497
:1009A00090910404A0910504B09106040196A11D44
:1009B000B11D8093030490930404A0930504B093A5
:1009C0000604BF91AF919F918F913F912F910F900E
:1009D0000FBE0F901F9018952FB7F8946091FF03EA
:1009E0007091000480910104909102042FBF08953A
:1009F0003FB7F8948091030490910404A0910504FA
:100A0000B091060426B5A89B05C02F3F19F00196AA
:100A1000A11DB11D3FBF6627782F892F9A2F620F26
:100A2000711D811D911D43E0660F771F881F991F5F
:100A30004A95D1F70895CF92DF92EF92FF92CF932C
:100A4000DF936B017C010E94F804EB01C114D10417
:100A5000E104F10489F00E946F020E94F8046C1B0B
:100A60007D0B683E734090F381E0C81AD108E1081D
:100A7000F108C851DC4FEACFDF91CF91FF90EF90A2
:100A8000DF90CF900895789484B5826084BD84B55A
:100A9000816084BD85B5826085BD85B5816085BD79
:100AA000EEE6F0E0808181608083E1E8F0E0108292
:100AB000808182608083808181608083E0E8F0E0D3
:100AC000808181608083E1EBF0E0808184608083BD
:100AD000E0EBF0E0808181608083EAE7F0E08081F4
:100AE0008460808380818260808380818160808354
:100AF0008081806880831092C10008958E3008F054
:100B00008E5087702091070190E4299F9001112455
:100B1000822B80937C0080917A00806480937A009D
:100B200080917A0086FDFCCF809178002091790039
:100B300090E0922B0895833081F028F4813099F071
:100B40008230A1F008958730A9F08830B9F0843060
:100B5000D1F4809180008F7D03C0809180008F77D9
:100B600080938000089584B58F7702C084B58F7D0F
:100B700084BD08958091B0008F7703C08091B0004C
:100B80008F7D8093B0000895CF93DF9390E0FC01B8
:100B9000E358FF4F2491FC01EF56FF4F84918823C7
:100BA00049F190E0880F991FFC01E155FF4FA59195
:100BB000B4918B559F4FFC01C591D4919FB76111A2
:100BC00008C0F8948C91209582238C93888182238D
:100BD0000AC0623051F4F8948C91322F30958323FF
:100BE0008C938881822B888304C0F8948C91822B0B
:100BF0008C939FBFDF91CF9108950F931F93CF9355
:100C0000DF931F92CDB7DEB7282F30E0F901E75907
:100C1000FF4F8491F901E358FF4F1491F901EF560A
:100C2000FF4F04910023C9F0882321F069830E94BB
:100C30009B056981E02FF0E0EE0FFF1FEB55FF4FA2
:100C4000A591B4919FB7F8948C91611103C0109550
:100C5000812301C0812B8C939FBF0F90DF91CF9197
:100C60001F910F910895FC01808191810C94F112E4
:100C7000CF93DF93EC0188819981009711F00E9456
:100C8000F112198218821D821C821B821A82DF9146
:100C9000CF9108950F931F93CF93DF93EC018B01B6
:100CA0006F5F7F4F888199810E948013009731F098
:100CB000998388831B830A8381E001C080E0DF91F0
:100CC000CF911F910F910895CF93DF93EC0188810D
:100CD0009981892B29F08A819B818617970760F477
:100CE000CE010E944A06882341F08C819D81892B88
:100CF00019F4E881F981108281E0DF91CF910895A4
:100D0000EF92FF920F931F93CF93DF93EC017B0140
:100D10008A01BA010E946406811104C0CE010E94BA
:100D2000380607C01D830C83B701888199810E9412
:100D30005C14CE01DF91CF911F910F91FF90EF9046
:100D40000895FC011182108213821282158214828E
:100D50006115710559F0FB0101900020E9F7AF0121
:100D600041505109461B570B0C9480060895CF93B0
:100D7000DF93EC01FB018617970761F060817181B9
:100D80006115710529F0448155810E94800602C0D9
:100D90000E943806CE01DF91CF910895FC011182A7
:100DA000108213821282158214820C94B706CF939C
:100DB000DF93EC016115710561F0FB0101900020EA
:100DC000E9F7AF0141505109461B570B0E948006BD
:100DD00002C00E943806CE01DF91CF910895EF92B4
:100DE000FF920F931F93CF93DF93EC017B010C8154
:100DF0001D816115710511F480E016C04115510582
:100E000091F0040F151FB8010E9464068823A1F316
:100E1000288139818C819D81B701820F931F0E94A7
:100E20005C141D830C8381E0DF91CF911F910F91A2
:100E3000FF90EF9008956115710559F0FB01019045
:100E40000020E9F7AF0141505109461B570B0C94A4
:100E5000EF0680E00895CF93DF9300D0CDB7DEB7E3
:100E600069831A8241E050E0BE016F5F7F4F0E94AC
:100E7000EF060F900F90DF91CF910895CF93DF93FE
:100E8000EC01FB0144815581608171810E94EF0674
:100E9000811103C0CE010E943806CE01DF91CF91AF
:100EA0000895CF93DF93EC016115710569F0FB01A3
:100EB00001900020E9F7AF0141505109461B570B43
:100EC0000E94EF06811103C0CE010E943806CE01B8
:100ED000DF91CF910895CF93DF93DC01ED91FC91E9
:100EE000EB01A881B981309711F01097C9F41097E0
:100EF00059F0EB012C813D81232B31F08C9190E056
:100F000091958195910914C0309781F0DC01149678
:100F10008D919C911597892B49F0808190E008C0B4
:100F2000BD01CF01DF91CF910C94531480E090E08C
:100F3000DF91CF910895FC0144815581FB0124810B
:100F400035814217530741F40E946B0721E0892B3A
:100F500009F020E0822F089580E00895FC012481AB
:100F60003581232B31F421E061157105A1F0FB01DE
:100F700008C0FC01808191816115710531F421E087
:100F8000FC018081882339F005C00E94531421E0C0
:100F9000892B09F020E0822F0895FA01DB011496D5
:100FA0004D915C911597DC0114962D913C9115970C
:100FB000241B350B2E173F0788F08D919C910097CD
:100FC00069F0DB016D917C916115710539F08E0F2F
:100FD0009F1F0E94631421E0892B09F020E0822FDB
:100FE0000895FC0144815581FB012481358142171C
:100FF000530720F040E050E00C94CD0780E00895C6
:10100000FC0184819581DB0114964D915C911597CB
:101010008417950798F0208131812115310571F0F1
:101020006D917C916115710549F0841B950B820FC0
:10103000931F0E94531421E0892B09F020E0822F96
:101040000895FC01248135816217730748F480817B
:101050009181009729F0FC01E60FF71F8081089528
:1010600080E008950C9421080F931F93CF93DF9392
:10107000EB0141155105E9F02097D9F0FC0164819D
:10108000758126173707A0F4621B730B8A01015084
:1010900011096017710708F48B01FC0160817181EF
:1010A000620F731FA801CE010E947114C00FD11FDF
:1010B0001882DF91CF911F910F910895BF92CF9227
:1010C000DF92EF92FF920F931F93CF93DF936C0108
:1010D0007B01EA0189012417350720F48D2FE901EE
:1010E000042F182F60E271E0C6010E94A106D7010B
:1010F00014968D919C911597C817D907C8F480173D
:10110000910708F48C01D701ED91FC911197E00F44
:10111000F11FB08010826D917C916C0F7D1FC60114
:101120000E94D706D701ED91FC91E00FF11FB0822C
:10113000C601DF91CF911F910F91FF90EF90DF904B
:10114000CF90BF900895CF93DF93EC01CB012C811A
:101150003D816217730710F541155105F9F0B9018A
:10116000681B790B4617570708F4BA01E881F98123
:10117000261B370B3D832C83A901481B590B680F95
:10118000791F6E0F7F1F8E0F9F1F0E947114E881C1
:10119000F9818C819D81E80FF91F1082DF91CF9139
:1011A00008954FEF5FEF0C94A308CF92DF92EF9278
:1011B000FF920F931F93CF93DF93EC017B018C0180
:1011C0000E5F1F4F6C0180E2C80ED11C60E271E01F
:1011D000C8010E94A1060A5F1F4F0C151D05B1F73B
:1011E000FAA2E9A218A2DF91CF911F910F91FF906F
:1011F000EF90DF90CF9008958F929F92AF92BF9221
:10120000CF92DF92EF92FF920F931F93CF93DF93D2
:10121000CDB7DEB762970FB6F894DEBF0FBECDBF75
:101220008C016EE171E0CE010D960E94A10660E294
:1012300071E0CE0107960E94A1066FE171E0D8012E
:1012400091968D919C9192970E940903F80181A13A
:1012500092A1DC01ED91FC910284F385E02D0995CA
:101260000E94EC046B017C01BE01635F7F4FCE01E5
:1012700007960E940008813089F1F80181A192A1AE
:10128000DC01ED91FC910480F581E02D09951816A3
:1012900019069CF4F80181A192A1DC01ED91FC9169
:1012A0000680F781E02D0995682FCE0107960E94F0
:1012B0002B070E94EC046B017C010E94EC044601A8
:1012C0005701B8EE8B0EB3E09B1EA11CB11C861615
:1012D0009706A806B90640F61EEF12C061E271E05B
:1012E000CE0101960E94A106BE016F5F7F4FCE0125
:1012F00007960E94F107CE0101960E94330611E085
:10130000CE0107960E943306CE010D960E94330649
:10131000812F62960FB6F894DEBF0FBECDBFDF916E
:10132000CF911F910F91FF90EF90DF90CF90BF90E2
:10133000AF909F908F900895BF92CF92DF92EF92DF
:10134000FF920F931F93CF93DF93CDB7DEB76297D2
:101350000FB6F894DEBF0FBECDBF8C017B0160E2FB
:1013600071E0CE010D960E94A1066EE171E0CE0102
:1013700007960E94A106C8010E94FC08B701D80187
:1013800091968D919C9192970E94FB026FE171E082
:10139000F80181A192A10E940903D80191968D9133
:1013A0009C919297DC01ED91FC910284F385E02DF4
:1013B00009950E94EC046B017C01B8EBCB0EBBE0FD
:1013C000DB1EE11CF11C0E94EC046C157D058E05F2
:1013D0009F0508F054C0F80181A192A1DC01ED91B4
:1013E000FC910480F581E02D0995181619067CF40E
:1013F000F80181A192A1DC01ED91FC910680F781B9
:10140000E02D0995682FCE010D960E942B07BE0195
:10141000695F7F4FCE010D960E940008882399F2E4
:101420006AE271E0CE0101960E94A106BE016F5FE3
:101430007F4FCE010D960E94F107B82ECE01019686
:101440000E943306B1101DC063E371E0CE01019626
:101450000E94A106BE016F5F7F4FCE010D960E94D4
:10146000F107B82ECE0101960E943306B1100BC0D1
:1014700060E271E0CE010D960E94D706A4CF1EEF68
:1014800003C01FEF01C011E0CE0107960E94330692
:10149000CE010D960E943306812F62960FB6F89406
:1014A000DEBF0FBECDBFDF91CF911F910F91FF9097
:1014B000EF90DF90CF90BF9008950F931F93CF933D
:1014C000DF9300D000D000D0CDB7DEB78C0166E34B
:1014D00071E0CE0101960E94A106BE016F5F7F4FB1
:1014E000C8010E949C09182FCE0101960E94330664
:1014F000812F26960FB6F894DEBF0FBECDBFDF91C9
:10150000CF911F910F9108950F931F93CF93DF9366
:1015100000D000D000D0CDB7DEB78C016AE371E017
:10152000CE0101960E94A106BE016F5F7F4FC801E8
:101530000E949C09182FCE0101960E943306812F2C
:1015400026960FB6F894DEBF0FBECDBFDF91CF91C8
:101550001F910F910895BF92CF92DF92EF92FF9269
:101560000F931F93CF93DF93CDB7DEB762970FB67C
:10157000F894DEBF0FBECDBF8C0160E271E0CE01FA
:101580000D960E94A1066EE171E0CE0107960E94C1
:10159000A106C8010E94FC086BE671E0D801919693
:1015A0008D919C9192970E9409036FE171E0F8017F
:1015B00081A192A10E940903D80191968D919C91DD
:1015C0009297DC01ED91FC910284F385E02D099561
:1015D0000E94EC046B017C01B0E7CB0EB7E1DB1E8F
:1015E000E11CF11C0E94EC046C157D058E059F0525
:1015F00008F083C0F80181A192A1DC01ED91FC917A
:101600000480F581E02D0995181619067CF4F8017F
:1016100081A192A1DC01ED91FC910680F781E02D82
:101620000995682FCE010D960E942B07BE01695FB8
:101630007F4FCE010D960E940008882399F26AE23E
:1016400071E0CE0101960E94A106BE016F5F7F4F3F
:10165000CE010D960E94F107B82ECE0101960E9490
:101660003306B1104CC06FE671E0CE0101960E94C6
:10167000A106BE016F5F7F4FCE010D960E94F1075C
:10168000B82ECE0101960E943306BB2079F162E7A5
:1016900071E0CE0101960E94A106BE016F5F7F4FEF
:1016A000C8010E949C09CE0101960E94330664EF96
:1016B00071E080E090E00E941B05F80181A192A1F9
:1016C000DC01ED91FC910480F581E02D0995892BD9
:1016D00059F0F80181A192A1DC01ED91FC91068005
:1016E000F781E02D0995E9CF11E00AC060E271E0D1
:1016F000CE010D960E94D70675CF1EEF01C01FEFD9
:10170000CE0107960E943306CE010D960E94330645
:10171000812F62960FB6F894DEBF0FBECDBFDF916A
:10172000CF911F910F91FF90EF90DF90CF90BF90DE
:1017300008958F929F92AF92BF92CF92DF92EF92D5
:10174000FF920F931F93CF93DF93CDB7DEB76297CE
:101750000FB6F894DEBF0FBECDBF8C015B0160E217
:1017600071E0CE010D960E94A1066EE171E0CE01FE
:1017700007960E94A106C8010E94FC086AE771E072
:10178000D80191968D919C9192970E940903F8013E
:1017900081A192A1DC01ED91FC910284F385E02D01
:1017A00009950E94EC046B017C01B8EBCB0EBBE009
:1017B000DB1EE11CF11C992493940E94EC046C152F
:1017C0007D058E059F0508F075C0F80181A192A1E5
:1017D000DC01ED91FC910480F581E02D099518164E
:1017E00019067CF4F80181A192A1DC01ED91FC9134
:1017F0000680F781E02D0995682FCE010D960E9495
:101800002B07BE01695F7F4FCE010D960E94000835
:10181000882399F26AE271E0CE0101960E94A10646
:10182000BE016F5F7F4FCE010D960E94F107882E9B
:10183000CE0101960E94330681103EC063E371E041
:10184000CE0101960E94A106BE016F5F7F4FCE01BF
:101850000D960E94F107882ECE0101960E94330654
:1018600081102CC06FE771E0CE0101960E94A106A5
:10187000BE016F5F7F4FCE010D960E94F107882E4B
:10188000CE0101960E943306882069F064E070E082
:10189000CE010D960E943208833419F4F50190822E
:1018A00002C0D5011C9260E271E0CE010D960E944B
:1018B000D70683CF1EEF03C01FEF01C011E0CE019A
:1018C00007960E943306CE010D960E943306812FA3
:1018D00062960FB6F894DEBF0FBECDBFDF91CF91F9
:1018E0001F910F91FF90EF90DF90CF90BF90AF903E
:1018F0009F908F9008958F929F92AF92BF92CF92B8
:10190000DF92EF92FF920F931F93CF93DF93CDB7A8
:10191000DEB763970FB6F894DEBF0FBECDBF8C0164
:101920007B01942E6EE171E0CE010D960E94A1061E
:10193000BE016D5E7F4FC8010E94990B8B89882381
:1019400019F094E1C92E02C08DE7C82EB92CAA2443
:10195000A394D12CD91408F04CC0BC1408F4CB2C9F
:10196000BC1860E271E0CE0107960E94A106AC2C83
:10197000AD0CDA1469F0882483948D0CF701ED0D19
:10198000F11D6081CE0107960E942B07D82CF1CF64
:1019900063E871E0CE0101960E94A106BE01695F75
:1019A0007F4FCE0101960E943E076FE171E00E94D9
:1019B0005107BC01CE0107960E94B706CE010196E1
:1019C0000E943306BE01695F7F4FCE0101960E94DF
:1019D000CE06BE016F5F7F4FC8010E949C09A82EF2
:1019E000CE0101960E943306CE0107960E9433066F
:1019F000B1CFCE010D960E9433068A2D63960FB6A5
:101A0000F894DEBF0FBECDBFDF91CF911F910F9134
:101A1000FF90EF90DF90CF90BF90AF909F908F900E
:101A20000895CF92DF92EF92FF920F931F93CF937F
:101A3000DF936C017B01FB01C481D5812196CE012E
:101A40000E94B9028C0120E030E0AE01BC01C70168
:101A50000E9434084C2FB801C6010E947B0CC82F8D
:101A6000C8010E94BB028C2FDF91CF911F910F9173
:101A7000FF90EF90DF90CF900895CF93C2E061E0A8
:101A80008C2F0E94C405CF5FCC30C9F7C2E061E063
:101A90008C2F0E94FD0564E170E080E090E00E94E0
:101AA0001B0560E08C2F0E94FD05CF5FCC3079F7DD
:101AB000CF9108950F931F938091450481112CC0FD
:101AC0000E94EC0400915E0410915F042091600478
:101AD00030916104601B710B820B930B653F714069
:101AE00081059105C8F061E087E00E94FD0561E095
:101AF00083E00E94FD0561E082E00E94FD050E94F6
:101B0000EC0460935E0470935F0480936004909390
:101B1000610481E08093450480914504882359F154
:101B20000E94EC0400915E0410915F042091600417
:101B300030916104601B710B820B930B653F714008
:101B400081059105C0F060E087E00E94FD0560E03E
:101B500083E00E94FD0560E082E00E94FD050E9496
:101B6000EC0460935E0470935F0480936004909330
:101B70006104109245041F910F91089560E087E081
:101B80000E94FD0560E083E00E94FD0560E082E0C8
:101B90000E94FD0510925E0410925F041092600492
:101BA000109261041092450408950F931F93809141
:101BB000440481112CC00E94EC0400915604109141
:101BC00057042091580430915904601B710B820B0B
:101BD000930B653F714081059105C8F061E088E095
:101BE0000E94FD0561E08AE00E94FD0561E085E05C
:101BF0000E94FD050E94EC04609356047093570404
:101C0000809358049093590481E080934404809118
:101C10004404882359F10E94EC0400915604109169
:101C200057042091580430915904601B710B820BAA
:101C3000930B653F714081059105C0F060E088E03D
:101C40000E94FD0560E08AE00E94FD0560E085E0FD
:101C50000E94FD050E94EC046093560470935704A3
:101C60008093580490935904109244041F910F914B
:101C7000089560E088E00E94FD0560E08AE00E942F
:101C8000FD0560E085E00E94FD051092560410926B
:101C90005704109258041092590410924404089565
:101CA0000F931F938091430481112CC00E94EC0478
:101CB00000915A0410915B0420915C0430915D0402
:101CC000601B710B820B930B653F71408105910581
:101CD000C8F061E084E00E94FD0561E089E00E94B7
:101CE000FD0561E086E00E94FD050E94EC04609322
:101CF0005A0470935B0480935C0490935D0481E0CC
:101D00008093430480914304882359F10E94EC049A
:101D100000915A0410915B0420915C0430915D04A1
:101D2000601B710B820B930B653F71408105910520
:101D3000C0F060E084E00E94FD0560E089E00E9460
:101D4000FD0560E086E00E94FD050E94EC046093C2
:101D50005A0470935B0480935C0490935D0410922A
:101D600043041F910F91089560E084E00E94FD05F7
:101D700060E089E00E94FD0560E086E00E94FD05CC
:101D800010925A0410925B0410925C0410925D044D
:101D90001092430408950F931F9380914204811180
:101DA00024C00E94EC04009152041091530420912D
:101DB000540430915504601B710B820B930B653FEB
:101DC00071408105910588F061E08BE00E94FD057E
:101DD0000E94EC0460935204709353048093540463
:101DE0009093550481E080934204809142048823BB
:101DF00019F10E94EC0400915204109153042091B7
:101E0000540430915504601B710B820B930B653F9A
:101E100071408105910580F060E08BE00E94FD0536
:101E20000E94EC0460935204709353048093540412
:101E300090935504109242041F910F91089560E011
:101E40008BE00E94FD0510925204109253041092F0
:101E500054041092550410924204089508950E946B
:101E600043050E942E0F0E94590FC8EBD0E00E943C
:101E7000BB112097E1F30E94B800F9CFCF93DF9315
:101E800081E294E0892B51F486E494E00E943306C9
:101E90008CE494E0DF91CF910C943306CFE3D4E04F
:101EA0002697CE010E94330684E0C132D807C1F7DD
:101EB000EBCFFF920F931F93CF93DF930E944305C5
:101EC0000E943D0D26E040E855E260E070E080E5CC
:101ED00093E00E946E0168E871E080E593E00E9463
:101EE0003803CAE0D0E0F12C00E010E08FE194E08C
:101EF0000E94AB0A8130B1F48FE194E00E945D0A48
:101F00008130C9F48FE194E00E94840A8130C1F4E9
:101F10008FE194E00E94AB0A813001F1FF24F39439
:101F200001E014C0111107C06EE971E080E593E093
:101F30000E9438032AC0011104C062EB71E008C09E
:101F400001E0F11003C068EC71E002C063EE71E0E3
:101F500080E593E00E94380311E017C06EEF71E056
:101F600080E593E00E94380361E672E080E593E04B
:101F70000E94380368EE73E080E090E0DF91CF913B
:101F80001F910F91FF900C941B052197209709F04A
:101F9000ADCF63E272E080E593E00E943803FFCFAB
:101FA0009F92AF92BF92CF92DF92EF92FF920F93E8
:101FB0001F93CF93DF9300D000D000D0CDB7DEB712
:101FC0006C017B0100E010E0AA24AA94BB24BA941F
:101FD000F60124813581F70144815581421B530B61
:101FE00004171507B8F4200F311FA801B701CE015F
:101FF00001960E945E08B601CE0101960E949B07E1
:10200000982ECE0101960E943306911058010F5F61
:102010001F4FDECFC50126960FB6F894DEBF0FBE68
:10202000CDBFDF91CF911F910F91FF90EF90DF9087
:10203000CF90BF90AF909F90089580E00E947E0562
:1020400090931C0480931B0481E00E947E05909372
:102050001A048093190482E00E947E05909318046C
:102060008093170420911B0430911C0423313240CB
:1020700044F12091190430911A04233132400CF1BB
:1020800083319240F4F080911D0490911E04892BBD
:10209000C1F468EA72E086E494E00E941B076DE1F7
:1020A00073E086E494E00E941B0760E271E086E43E
:1020B00094E00E94D70681E090E090931E04809304
:1020C0001D04089580914504882319F00E945A0D3B
:1020D00002C00E94BE0D80914404882319F00E9422
:1020E000D50D02C00E94390E80914304882319F057
:1020F0000E94500E02C00E94B40E809142048111D1
:102100000C94CB0E0C941F0F60E271E08CE494E011
:102110000E94A10660E271E086E494E00E94A106BC
:1021200060E573E08FE194E00C94D5080C943E0FC9
:10213000CF92DF92EF92FF921F93CF93DF93CDB7B1
:10214000DEB72C970FB6F894DEBF0FBECDBF0E944E
:10215000EC046B017C0161E08BE00E94FD050E94B4
:10216000EC046C197D098E099F09643F714081055B
:10217000910550F480E593E00E94A400682F8CE460
:1021800094E00E942B07EBCF60E08BE00E94FD05FE
:102190006CE474E0CE0101960E94CE066BEA72E018
:1021A000CE0107960E94A106BE016F5F7F4FCE0150
:1021B00007960E94D00F7C01CE0107960E9433063D
:1021C000CE0101960E9433068FEFE816F80609F457
:1021D000B0C011E01093450444E050E0B7018CE436
:1021E00094E00E94A3086CE474E0CE0101960E9482
:1021F000CE066EE171E0CE0107960E94A106BE01F7
:102200006F5F7F4FCE0107960E94D00F7C01CE01F9
:1022100007960E943306CE0101960E943306B7014D
:102220008CE494E00E94D1086CE474E080E593E0D3
:102230000E94260360EB72E08CE494E00E94AE07FB
:102240008823A9F064EB72E080E593E00E943803F4
:102250001093450480E593E00E94E70061ED72E091
:1022600086E494E00E941B076DE173E01CC064EDFE
:1022700072E08CE494E00E94AE07882329F168EDB7
:1022800072E080E593E00E9438031093440480E5F7
:1022900093E00E94E70061ED72E086E494E00E9422
:1022A0001B0761E273E086E494E00E941B0766E48A
:1022B00074E08FE194E00E94110D60E271E086E429
:1022C00094E00E94D70635C066EF72E08CE494E09B
:1022D0000E94AE078823A9F06AEF72E080E593E0E0
:1022E0000E9438031093430480E593E00E94E700C6
:1022F00061ED72E086E494E00E941B0765E273E002
:10230000D2CF6BE173E08CE494E00E94AE078111C0
:1023100024C06FE173E08CE494E00E94AE07811169
:102320001CC063E273E08CE494E00E94AE0781116C
:1023300014C060E271E08CE494E00E94D7062C9611
:102340000FB6F894DEBF0FBECDBFDF91CF911F91C6
:10235000FF90EF90DF90CF90089567E273E080E503
:1023600093E00E94380381E08093420410921E049F
:1023700010921D04DECF0F931F930E94EC04609314
:102380000704709308048093090490930A04009151
:10239000130410911404209115043091160408516F
:1023A0001C4F2F4F3F4F061717072807390760F4B8
:1023B0000E9498100E94EC0460931304709314041C
:1023C000809315049093160480910F04909110044B
:1023D000A0911104B09112048C599F4FAF4FBF4F81
:1023E00040910704509108046091090470910A0417
:1023F00084179507A607B70760F40E941D100E9476
:10240000EC0460930F047093100480931104909374
:10241000120480910B0490910C04A0910D04B091D2
:102420000E0488539F4FAF4FBF4F40910704509108
:1024300008046091090470910A0484179507A6079F
:10244000B70760F40E9462100E94EC0460930B04D2
:1024500070930C0480930D0490930E041F910F91C0
:102460000895A1E21A2EAA1BBB1BFD010DC0AA1FD5
:10247000BB1FEE1FFF1FA217B307E407F50720F0ED
:10248000A21BB30BE40BF50B661F771F881F991F68
:102490001A9469F760957095809590959B01AC01B1
:1024A000BD01CF010895EE0FFF1F0590F491E02DBF
:1024B0000994CF93DF938230910510F482E090E08D
:1024C000E0916404F091650420E030E0A0E0B0E029
:1024D000309739F14081518148175907B8F04817B2
:1024E000590771F482819381109729F013969C9378
:1024F0008E9312972CC0909365048093640427C038
:102500002115310531F04217530718F0A901DB01FD
:1025100001C0EF019A01BD01DF010280F381E02DCE
:10252000D7CF21153105F9F0281B390B243031059F
:1025300080F48A819B816115710521F0FB019383F1
:10254000828304C09093650480936404FE013296F4
:1025500044C0FE01E20FF31F819391932250310991
:10256000398328833AC02091620430916304232B7D
:1025700041F42091020130910301309363042093D0
:10258000620420910001309101012115310541F4CF
:102590002DB73EB74091040150910501241B350B26
:1025A000E0916204F0916304E217F307A0F42E1B9C
:1025B0003F0B2817390778F0AC014E5F5F4F2417A7
:1025C000350748F04E0F5F1F509363044093620439
:1025D0008193919302C0E0E0F0E0CF01DF91CF91D1
:1025E0000895CF93DF93009709F487C0FC013297D9
:1025F00013821282C0916404D0916504209781F403
:1026000020813181280F391F8091620490916304E9
:102610008217930779F5F0936304E09362046DC029
:10262000DE0120E030E0AE17BF0750F412964D9166
:102630005C9113979D014115510509F1DA01F3CF22
:10264000B383A28340815181840F951F8A179B0712
:1026500071F48D919C911197840F951F029691832F
:10266000808312968D919C91139793838283211579
:10267000310529F4F0936504E09364043EC0D90168
:102680001396FC93EE9312974D915D91A40FB51F95
:10269000EA17FB0779F480819181840F951F0296D8
:1026A000D90111969C938E938281938113969C936A
:1026B0008E931297E0E0F0E08A819B81009719F0F9
:1026C000FE01EC01F9CFCE01029628813981820FFB
:1026D000931F20916204309163042817390769F42D
:1026E000309729F4109265041092640402C013829A
:1026F0001282D0936304C0936204DF91CF91089556
:10270000A0E0B0E0E6E8F3E10C948414EC01CB0126
:10271000209719F40E945912B8C0FE01E60FF71F66
:102720009E0122503109E217F30708F4ACC0D90129
:102730000D911C91119706171707B8F00530110578
:1027400008F49FC0A801445051094617570708F4E0
:1027500098C002501109061B170B019311936D933A
:102760007C93CF010E94F1128CC05B01A01AB10AC8
:102770004E01800E911EA0916404B0916504612CFD
:10278000712C60E070E0109709F449C0A815B905F4
:10279000C9F5ED90FC901197670142E0C40ED11C81
:1027A000CA14DB0478F147018A189B08640142E0EF
:1027B000C40ED11C1296BC9012971396AC91B5E042
:1027C000CB16D10440F0B282A38391828082D901DA
:1027D0008D939C9309C00E5F1F4F0E0D1F1DF901B5
:1027E00011830083EB2DFA2F6115710531F0DB01A8
:1027F0001396FC93EE93129744C0F0936504E09314
:1028000064043FC06D917C9111976616770608F4B9
:102810003B01BD0112960D90BC91A02DB4CF6091EB
:1028200062047091630468157905E9F46816790605
:10283000D0F440910001509101014115510541F43E
:102840004DB75EB76091040170910501461B570BAF
:10285000E417F507C0F4F0936304E0936204F90110
:10286000918380830EC00E9459127C01009759F019
:10287000A801BE010E944A14CE010E94F112C701B4
:1028800004C0CE0102C080E090E0CDB7DEB7EEE03C
:102890000C94A014FB01DC0102C001900D92415088
:1028A0005040D8F70895FB01DC018D91019080190B
:1028B0000110D9F3990B0895FB01DC0101900D92F1
:1028C0000020E1F70895FB01DC014150504030F059
:1028D0008D910190801919F40020B9F7881B990B8C
:1028E0000895FB01DC014150504048F001900D92E9
:1028F0000020C9F701C01D9241505040E0F70895F3
:102900002F923F924F925F926F927F928F929F92FF
:10291000AF92BF92CF92DF92EF92FF920F931F93ED
:10292000CF93DF93CDB7DEB7CA1BDB0B0FB6F8949E
:10293000DEBF0FBECDBF09942A88398848885F84DE
:102940006E847D848C849B84AA84B984C884DF804F
:10295000EE80FD800C811B81AA81B981CE0FD11D33
:102960000FB6F894DEBF0FBECDBFED01089510E0A5
:10297000C0ECD0E004C0FE010E9455122296C23C79
:08298000D107C9F7F894FFCF5D
:10298800000066042000FF01000000000901BD02EC
:102998008B00A4009600E7000000000070020A0DFA
:1029A80000455252005645520D00455200426C7582
:1029B8006574004F4B00525452005752540053450F
:1029C800542000303030410030303238003030345C
:1029D80045003030394500303045420055415254A9
:1029E8000043454E5400474554200052535400526A
:1029F800450053434E204F4646005354530D005351
:102A0800545300534E44200053657269616C20682A
:102A1800617320737461727465642E2E2E004D6F7D
:102A280064756C65207265736574206572726F7267
:102A380021004D6F64756C6520726573746F7265E3
:102A4800206572726F7221004D6F64756C65207716
:102A58007269746520636F6E666967206572726F4C
:102A68007221005365636F6E64206D6F64756C65C9
:102A7800207265736574206572726F7221005265E9
:102A88007365742F526573746F72652F577269740A
:102A98006520436F6E666967205041535345442E45
:102AA8002E2E0052657365742F526573746F7265AC
:102AB8002F577269746520436F6E666967204641B7
:102AC800494C45442031302054494D45532E20531C
:102AD800544F5020455845435554494F4E2E2E2E9D
:102AE8000052657365742F526573746F72652F5742
:102AF8007269746520436F6E66696720444F4E455E
:102B0800210043434F4E0046415354004144565020
:102B1800004144565400303030303030303030309E
:102B28003030004144445200424C005243563D006C
:102B38004C503100544F204C45465420474C4F567A
:102B4800453A204E41562053415953204C4546544E
:102B580000504C004C503200544F204C45465420F5
:102B6800474C4F56453A204E415620534159532021
:102B78005249474854004C503300544F204C454666
:102B88005420474C4F56453A204E41562053415900
:102B980053205354524149474854004C4231004C49
:102BA8004232004C423300544F204C454654204793
:102BB8004C4F56453A204241434B5041434B204BE2
:102BC8004E4F575320574841542753205550000023
:00000001FF
