:100000000C9461000C9436040C9463040C948900E5
:100010000C9489000C9489000C9489000C94DA03E8
:100020000C9489000C9489000C9489000C9489002C
:100030000C9489000C9489000C9489000C9489001C
:100040000C9490040C9489000C94CA010C94FC014B
:100050000C9489000C9489000C9489000C948900FC
:100060000C9489000C948900020000000800020131
:10007000000003040700000000000000000102046B
:10008000081020408001020408102001020408101A
:100090002004040404040404040202020202020311
:1000A000030303030300000000250028002B0000C9
:1000B000000000240027002A00002C02AA02F10FF1
:1000C000031011241FBECFEFD8E0DEBFCDBF13E079
:1000D000A0E0B1E0E6E9F8E202C005900D92A43597
:1000E000B107D9F724E0A4E5B3E001C01D92AA3618
:1000F000B207E1F710E0C0ECD0E004C02297FE01A7
:100100000E94D111CA3BD107C9F70E94EB0E0C9493
:100110003E140C940000FC01818D228D90E0805CE7
:100120009F4F821B91098F7399270895FC01918D30
:10013000828D981731F0828DE80FF11D858D90E04A
:1001400008958FEF9FEF0895FC01918D828D981790
:1001500061F0828DDF01A80FB11D5D968C91928DAB
:100160009F5F9F73928F90E008958FEF9FEF0895A8
:1001700082E292E0892B49F080E090E0892B29F01F
:100180000E94220281110C9400000895FC01848DCC
:10019000DF01A80FB11DA35ABF4F2C91848D90E0B1
:1001A00001968F739927848FA689B7892C93A0898C
:1001B000B1898C9180648C93938D848D981306C043
:1001C0000288F389E02D80818F7D80830895CF930D
:1001D000DF93EC01888D8823C9F0EA89FB8980814F
:1001E00085FD05C0A889B9898C9186FD0FC00FB621
:1001F00007FCF5CF808185FFF2CFA889B9898C9162
:1002000085FFEDCFCE010E94C600E7CFDF91CF91F1
:100210000895CF92DF92FF920F931F93CF93DF93B6
:100220001F92CDB7DEB76C01DC015B969C915B97AA
:100230005C968C915C97981307C05096ED91FC9159
:100240005197808185FD32C0F601038D10E00F5F6C
:100250001F4F0F731127F02EF601848DF81211C075
:100260000FB607FCF9CFD6015096ED91FC9151974E
:10027000808185FFF1CFC60169830E94C600698134
:10028000EBCF838DE80FF11DE35AFF4F6083D6015A
:100290005B960C935B975296ED91FC9153978081FE
:1002A0008062808381E058968C930DC0D60156966B
:1002B000ED91FC91579760835096ED91FC91519789
:1002C00080818064808381E090E00F90DF91CF9106
:1002D0001F910F91FF90DF90CF900895BF92CF9222
:1002E000DF92EF92FF92CF93DF93EC016A017B01E3
:1002F000B22E60E874E88EE190E0A70196010E94BA
:10030000AD1121503109410951095695479537954D
:100310002795E889F98982E08083211580E13807F3
:1003200098F0E889F989108260E472E48FE090E047
:10033000A70196010E94AD112150310941095109CF
:100340005695479537952795EC85FD853083EE8545
:10035000FF852083188EEC89FD89B082EA89FB89AC
:10036000808180618083EA89FB89808188608083C5
:10037000EA89FB89808180688083EA89FB898081A2
:100380008F7D8083DF91CF91FF90EF90DF90CF90B2
:10039000BF9008951F920F920FB60F9211242F93C2
:1003A0008F939F93EF93FF93E0916403F091650324
:1003B0008081E0916A03F0916B0382FD12C090810D
:1003C00080916D038F5F8F7320916E03821751F0C0
:1003D000E0916D03F0E0EC5AFC4F958F80936D0334
:1003E00001C08081FF91EF919F918F912F910F908C
:1003F0000FBE0F901F9018951F920F920FB60F927D
:1004000011242F933F934F935F936F937F938F9319
:100410009F93AF93BF93EF93FF9384E593E00E9484
:10042000C600FF91EF91BF91AF919F918F917F9106
:100430006F915F914F913F912F910F900FBE0F9051
:100440001F90189584E593E00E948B0021E0892B92
:1004500009F420E0822F089510925703109256035A
:1004600088EE93E0A0E0B0E08093580390935903A6
:10047000A0935A03B0935B038CE091E090935503F3
:100480008093540385EC90E0909361038093600324
:1004900084EC90E0909363038093620380EC90E09F
:1004A000909365038093640381EC90E090936703DD
:1004B0008093660382EC90E09093690380936803D5
:1004C00086EC90E090936B0380936A0310926D0327
:1004D00010926E0310926F031092700308950895A6
:1004E000AF92BF92CF92DF92EF92FF920F931F9342
:1004F000CF93DF936C017B01C0E0D0E000E010E01F
:10050000F601EC0FFD1F4AE050E06281C7010E9436
:100510009E035C016EE2C7010E940B038A0D9B1DC6
:10052000080F191F2196C330D10551F74AE050E05A
:10053000F6016581C7010E949E03800F911FDF9124
:10054000CF911F910F91FF90EF90DF90CF90BF90D0
:10055000AF9008958CE191E09093F2038093F103C2
:100560001092F3031092F4031092F5031092F60325
:1005700008950C94D5110C946D12CF92DF92EF92E6
:10058000FF920F931F93CF93DF936C017A01EB01DE
:10059000E60EF71E00E010E0CE15DF0561F0699170
:1005A000D601ED91FC910190F081E02DC6010995F5
:1005B000080F191FF1CFC801DF91CF911F910F9143
:1005C000FF90EF90DF90CF9008956115710581F055
:1005D000DB010D900020E9F7AD0141505109461BA8
:1005E000570BDC01ED91FC910280F381E02D099421
:1005F00080E090E00895DC01ED91FC91DB01149620
:100600004D915C9115976D917C910280F381E02D65
:1006100009940C94E502DC01ED91FC910190F081CC
:10062000E02D09940F931F93CF93DF93EC016DE0BE
:100630000E940B038C016AE0CE010E940B03800F25
:10064000911FDF91CF911F910F9108950F931F93E9
:10065000CF93DF93EC010E94E5028C01CE010E9452
:100660001203800F911FDF91CF911F910F91089579
:100670008F929F92AF92BF92CF92DF92EF92FF92B2
:100680000F931F93CF93DF93CDB7DEB7A1970FB62C
:10069000F894DEBF0FBECDBF7C01C42EE52FCB0189
:1006A000D22E19A221E02D1510F02AE0D22E8E01B3
:1006B0000F5D1F4F8D2C912CA12CB12C6C2D7E2FFA
:1006C000A50194010E94AD118C2DD29E8019112498
:1006D000015011098A3010F4805D01C0895CF80175
:1006E0008083211531054105510521F0C22EE32FEC
:1006F000CA01E4CFB801C7010E94E502A1960FB676
:10070000F894DEBF0FBECDBFDF91CF911F910F9147
:10071000FF90EF90DF90CF90BF90AF909F908F9021
:1007200008952115310541F4DC01ED91FC91019012
:10073000F081E02D642F09940C9438039A01462F20
:1007400050E060E070E00C949103813039F018F0D3
:10075000823051F0089510926E00089580916F00DC
:100760008D7F80936F000895809170008D7F8093BE
:10077000700081E08093B0008091B100887F846038
:100780008093B1001092B3000895CF93C82F809149
:1007900006018C1307C0E8E6F0E084919FEF909388
:1007A000060101C08FEF0E94A50360E08C2FCF915E
:1007B0000C94EB051F920F920FB60F9211242F93FA
:1007C0003F934F935F936F937F938F939F93AF93D9
:1007D000BF93EF93FF938091FA039091FB03A09155
:1007E000FC03B091FD03892B8A2B8B2B51F1909147
:1007F000F703E091F803F091F90380818927808362
:100800008091FA039091FB03A091FC03B091FD034A
:10081000181619061A061B06C4F48091FA03909163
:10082000FB03A091FC03B091FD030197A109B1095D
:100830008093FA039093FB03A093FC03B093FD0312
:1008400004C0809106010E94C503FF91EF91BF9102
:10085000AF919F918F917F916F915F914F913F9158
:100860002F910F900FBE0F901F9018951F920F920F
:100870000FB60F9211242F933F934F935F936F9373
:100880007F938F939F93AF93BF93EF93FF93809149
:10089000FE039091FF03892B29F0E091FE03F09174
:1008A000FF030995FF91EF91BF91AF919F918F91B8
:1008B0007F916F915F914F913F912F910F900FBE5C
:1008C0000F901F9018951F920F920FB60F92112440
:1008D0002F933F934F935F936F937F938F939F9348
:1008E000AF93BF93EF93FF93809100049091010425
:1008F000892B29F0E0910004F09101040995FF9102
:10090000EF91BF91AF919F918F917F916F915F9187
:100910004F913F912F910F900FBE0F901F90189500
:100920001F920F920FB60F9211242F933F938F9324
:100930009F93AF93BF938091030490910404A0917F
:100940000504B09106043091020426E0230F2D37F0
:1009500020F40296A11DB11D05C029E8230F0396BE
:10096000A11DB11D209302048093030490930404FD
:10097000A0930504B09306048091070490910804A5
:10098000A0910904B0910A040196A11DB11D8093A4
:10099000070490930804A0930904B0930A04BF913C
:1009A000AF919F918F913F912F910F900FBE0F901C
:1009B0001F9018952FB7F894609103047091040468
:1009C00080910504909106042FBF08953FB7F894D5
:1009D0008091070490910804A0910904B0910A0441
:1009E00026B5A89B05C02F3F19F00196A11DB11D8A
:1009F0003FBF6627782F892F9A2F620F711D811DA7
:100A0000911D43E0660F771F881F991F4A95D1F704
:100A10000895CF92DF92EF92FF92CF93DF936B0115
:100A20007C010E94E604EB01C114D104E104F1044D
:100A300089F00E946F020E94E6046C1B7D0B683EE9
:100A4000734090F381E0C81AD108E108F108C85159
:100A5000DC4FEACFDF91CF91FF90EF90DF90CF9006
:100A60000895789484B5826084BD84B5816084BD26
:100A700085B5826085BD85B5816085BDEEE6F0E017
:100A8000808181608083E1E8F0E010828081826073
:100A90008083808181608083E0E8F0E080818160F4
:100AA0008083E1EBF0E0808184608083E0EBF0E024
:100AB000808181608083EAE7F0E0808184608083C8
:100AC0008081826080838081816080838081806872
:100AD00080831092C10008958E3008F08E50877088
:100AE0002091070190E4299F90011124822B80938B
:100AF0007C0080917A00806480937A0080917A00F3
:100B000086FDFCCF809178002091790090E0922BB7
:100B10000895833081F028F4813099F08230A1F07B
:100B200008958730A9F08830B9F08430D1F48091ED
:100B300080008F7D03C0809180008F77809380003C
:100B4000089584B58F7702C084B58F7D84BD0895E4
:100B50008091B0008F7703C08091B0008F7D80932B
:100B6000B0000895CF93DF9390E0FC01E358FF4F6E
:100B70002491FC01EF56FF4F8491882349F190E0C6
:100B8000880F991FFC01E155FF4FA591B4918B553A
:100B90009F4FFC01C591D4919FB7611108C0F89493
:100BA0008C91209582238C93888182230AC06230A5
:100BB00051F4F8948C91322F309583238C93888153
:100BC000822B888304C0F8948C91822B8C939FBFD6
:100BD000DF91CF9108950F931F93CF93DF931F92CF
:100BE000CDB7DEB7282F30E0F901E759FF4F8491E8
:100BF000F901E358FF4F1491F901EF56FF4F0491AB
:100C00000023C9F0882321F069830E948905698146
:100C1000E02FF0E0EE0FFF1FEB55FF4FA591B491D1
:100C20009FB7F8948C91611103C01095812301C086
:100C3000812B8C939FBF0F90DF91CF911F910F91CC
:100C40000895FC01808191810C946D12CF93DF9304
:100C5000EC0188819981009711F00E946D12198230
:100C600018821D821C821B821A82DF91CF91089507
:100C70000F931F93CF93DF93EC018B016F5F7F4F37
:100C8000888199810E94FC12009731F099838883B2
:100C90001B830A8381E001C080E0DF91CF911F9127
:100CA0000F910895CF93DF93EC0188819981892B6F
:100CB00029F08A819B818617970760F4CE010E94F4
:100CC0003806882341F08C819D81892B19F4E881B5
:100CD000F981108281E0DF91CF910895EF92FF9228
:100CE0000F931F93CF93DF93EC017B018A01BA012D
:100CF0000E945206811104C0CE010E94260607C040
:100D00001D830C83B701888199810E94E013CE0175
:100D1000DF91CF911F910F91FF90EF900895FC010B
:100D2000118210821382128215821482611571055C
:100D300059F0FB0101900020E9F7AF014150510942
:100D4000461B570B0C946E060895CF93DF93EC016E
:100D5000FB018617970761F060817181611571054C
:100D600029F0448155810E946E0602C00E94260629
:100D7000CE01DF91CF910895FC0111821082138280
:100D80001282158214820C94A506CF93DF93EC0196
:100D90006115710561F0FB0101900020E9F7AF01D9
:100DA00041505109461B570B0E946E0602C00E941B
:100DB0002606CE01DF91CF910895EF92FF920F9317
:100DC0001F93CF93DF93EC017B010C811D81611593
:100DD000710511F480E016C04115510591F0040F22
:100DE000151FB8010E9452068823A1F3288139817A
:100DF0008C819D81B701820F931F0E94E0131D8398
:100E00000C8381E0DF91CF911F910F91FF90EF90C4
:100E100008956115710559F0FB0101900020E9F773
:100E2000AF0141505109461B570B0C94DD0680E081
:100E30000895CF93DF9300D0CDB7DEB769831A82D0
:100E400041E050E0BE016F5F7F4F0E94DD060F90D2
:100E50000F90DF91CF910895CF93DF93EC01FB01C9
:100E600044815581608171810E94DD06811103C03A
:100E7000CE010E942606CE01DF91CF910895CF9337
:100E8000DF93EC016115710569F0FB010190002011
:100E9000E9F7AF0141505109461B570B0E94DD068F
:100EA000811103C0CE010E942606CE01DF91CF91B1
:100EB0000895FC0124813581232B31F421E0611553
:100EC0007105A1F0FB0108C0FC01808191816115D1
:100ED000710531F421E0FC018081882339F005C0DF
:100EE0000E94D71321E0892B09F020E0822F08957A
:100EF000FA01DB0114964D915C911597DC01149673
:100F00002D913C911597241B350B2E173F0788F028
:100F10008D919C91009769F0DB016D917C91611539
:100F2000710539F08E0F9F1F0E94E71321E0892B76
:100F300009F020E0822F0895FC0144815581FB01D6
:100F4000248135814217530720F040E050E00C9493
:100F5000780780E00895FC0184819581DB01149677
:100F60004D915C9115978417950798F020813181F8
:100F70002115310571F06D917C916115710549F074
:100F8000841B950B820F931F0E94D71321E0892B9E
:100F900009F020E0822F0895FC0124813581621739
:100FA000730748F480819181009729F0FC01E60FD6
:100FB000F71F8081089580E008950C94CC070F936B
:100FC0001F93CF93DF93EB0141155105E9F0209773
:100FD000D9F0FC016481758126173707A0F4621BE4
:100FE000730B8A01015011096017710708F48B0116
:100FF000FC0160817181620F731FA801CE010E9404
:10100000F513C00FD11F1882DF91CF911F910F915F
:101010000895CF93DF93EC01CB012C813D816217C2
:10102000730710F541155105F9F0B901681B790BEB
:101030004617570708F4BA01E881F981261B370BD8
:101040003D832C83A901481B590B680F791F6E0F34
:101050007F1F8E0F9F1F0E94F513E881F9818C81FD
:101060009D81E80FF91F1082DF91CF910895AF9213
:10107000BF92CF92DF92EF92FF920F931F93CF9385
:10108000DF937C01DC01CD90DC901197C114D10479
:10109000E9F11496CD91DC9115972097B9F156019D
:1010A0008501BFEFAB1ABB0AF801808190E00E9476
:1010B000C613892BA9F72197CC0DDD1D888190E0FF
:1010C0000E94C613892B91F4AE014F5F5F4F401B06
:1010D000510BD70115965C934E931497C016D10609
:1010E00050F4B801C6010E94CE1305C0C017D10745
:1010F00058F32197E3CFD701ED91FC911197149606
:101100008D919C911597E80FF91F1082DF91CF9177
:101110001F910F91FF90EF90DF90CF90BF90AF9015
:101120000895CF92DF92EF92FF920F931F93CF9388
:10113000DF93EC017B018C010E5F1F4F6C0180E29D
:10114000C80ED11C60E271E0C8010E948F060A5FE0
:101150001F4F0C151D05B1F7FAA2E9A218A2DF91E5
:10116000CF911F910F91FF90EF90DF90CF90089556
:101170008F929F92AF92BF92CF92DF92EF92FF92A7
:101180000F931F93CF93DF93CDB7DEB762970FB660
:10119000F894DEBF0FBECDBF8C016EE171E0CE01D1
:1011A0000D960E948F0660E271E0CE0107960E94C4
:1011B0008F066FE171E0D80191968D919C91929785
:1011C0000E940903F80181A192A1DC01ED91FC913B
:1011D0000284F385E02D09950E94DA046B017C01FD
:1011E000BE01635F7F4FCE0107960E94AB0781303F
:1011F00089F1F80181A192A1DC01ED91FC910480BB
:10120000F581E02D0995181619069CF4F80181A1C5
:1012100092A1DC01ED91FC910680F781E02D09950A
:10122000682FCE0107960E9419070E94DA046B010D
:101230007C010E94DA0446015701B8EE8B0EB3E040
:101240009B1EA11CB11C86169706A806B90640F67F
:101250001EEF12C061E271E0CE0101960E948F067E
:10126000BE016F5F7F4FCE0107960E949C07CE01A3
:1012700001960E94210611E0CE0107960E942106E8
:10128000CE010D960E942106812F62960FB6F8942A
:10129000DEBF0FBECDBFDF91CF911F910F91FF90A9
:1012A000EF90DF90CF90BF90AF909F908F90089578
:1012B000BF92CF92DF92EF92FF920F931F93CF9343
:1012C000DF93CDB7DEB762970FB6F894DEBF0FBEDF
:1012D000CDBF8C017B0160E271E0CE010D960E94D2
:1012E0008F066EE171E0CE0107960E948F06C8015D
:1012F0000E94B808B701D80191968D919C91929760
:101300000E94FB026FE171E0F80181A192A10E94AD
:101310000903D80191968D919C919297DC01ED91F2
:10132000FC910284F385E02D09950E94DA046B019B
:101330007C01B8EBCB0EBBE0DB1EE11CF11C0E9474
:10134000DA046C157D058E059F0508F054C0F80180
:1013500081A192A1DC01ED91FC910480F581E02D49
:101360000995181619067CF4F80181A192A1DC01F7
:10137000ED91FC910680F781E02D0995682FCE0153
:101380000D960E941907BE01695F7F4FCE010D9631
:101390000E94AB07882399F26AE271E0CE010196C0
:1013A0000E948F06BE016F5F7F4FCE010D960E9497
:1013B0009C07B82ECE0101960E942106B1101DC0D7
:1013C00063E371E0CE0101960E948F06BE016F5F5C
:1013D0007F4FCE010D960E949C07B82ECE0101963C
:1013E0000E942106B1100BC060E271E0CE010D96A3
:1013F0000E94C506A4CF1EEF03C01FEF01C011E07D
:10140000CE0107960E942106CE010D960E9421066C
:10141000812F62960FB6F894DEBF0FBECDBFDF916D
:10142000CF911F910F91FF90EF90DF90CF90BF90E1
:1014300008950F931F93CF93DF9300D000D000D077
:10144000CDB7DEB78C0166E371E0CE0101960E9454
:101450008F06BE016F5F7F4FC8010E945809182F89
:10146000CE0101960E942106812F26960FB6F89490
:10147000DEBF0FBECDBFDF91CF911F910F910895B9
:101480000F931F93CF93DF9300D000D000D0CDB740
:10149000DEB78C016AE371E0CE0101960E948F06EF
:1014A000BE016F5F7F4FC8010E945809182FCE01FF
:1014B00001960E942106812F26960FB6F894DEBF72
:1014C0000FBECDBFDF91CF911F910F910895BF92B5
:1014D000CF92DF92EF92FF920F931F93CF93DF9300
:1014E000CDB7DEB762970FB6F894DEBF0FBECDBFA3
:1014F0008C0160E271E0CE010D960E948F066EE1D4
:1015000071E0CE0107960E948F06C8010E94B808BC
:101510006BE671E0D80191968D919C9192970E9413
:1015200009036FE171E0F80181A192A10E94090312
:10153000D80191968D919C919297DC01ED91FC914F
:101540000284F385E02D09950E94DA046B017C0189
:10155000B0E7CB0EB7E1DB1EE11CF11C0E94DA0400
:101560006C157D058E059F0508F083C0F80181A1EB
:1015700092A1DC01ED91FC910480F581E02D0995AB
:10158000181619067CF4F80181A192A1DC01ED91F5
:10159000FC910680F781E02D0995682FCE010D960C
:1015A0000E941907BE01695F7F4FCE010D960E9410
:1015B000AB07882399F26AE271E0CE0101960E949E
:1015C0008F06BE016F5F7F4FCE010D960E949C0774
:1015D000B82ECE0101960E942106B1104CC06FE6D4
:1015E00071E0CE0101960E948F06BE016F5F7F4FB2
:1015F000CE010D960E949C07B82ECE0101960E9446
:101600002106BB2079F162E771E0CE0101960E94CC
:101610008F06BE016F5F7F4FC8010E945809CE013F
:1016200001960E94210664EF71E080E090E00E9444
:101630000905F80181A192A1DC01ED91FC910480E2
:10164000F581E02D0995892B59F0F80181A192A12E
:10165000DC01ED91FC910680F781E02D0995E9CF41
:1016600011E00AC060E271E0CE010D960E94C5064D
:1016700075CF1EEF01C01FEFCE0107960E94210615
:10168000CE010D960E942106812F62960FB6F89426
:10169000DEBF0FBECDBFDF91CF911F910F91FF90A5
:1016A000EF90DF90CF90BF9008958F929F92AF926E
:1016B000BF92CF92DF92EF92FF920F931F93CF933F
:1016C000DF93CDB7DEB762970FB6F894DEBF0FBEDB
:1016D000CDBF8C015B0160E271E0CE010D960E94EE
:1016E0008F066EE171E0CE0107960E948F06C80159
:1016F0000E94B8086AE771E0D80191968D919C919B
:1017000092970E940903F80181A192A1DC01ED9159
:10171000FC910284F385E02D09950E94DA046B01A7
:101720007C01B8EBCB0EBBE0DB1EE11CF11C992465
:1017300093940E94DA046C157D058E059F0508F0D0
:1017400075C0F80181A192A1DC01ED91FC910480AA
:10175000F581E02D0995181619067CF4F80181A190
:1017600092A1DC01ED91FC910680F781E02D0995B5
:10177000682FCE010D960E941907BE01695F7F4F49
:10178000CE010D960E94AB07882399F26AE271E0C0
:10179000CE0101960E948F06BE016F5F7F4FCE0182
:1017A0000D960E949C07882ECE0101960E9421066C
:1017B00081103EC063E371E0CE0101960E948F0666
:1017C000BE016F5F7F4FCE010D960E949C07882E51
:1017D000CE0101960E94210681102CC06FE771E0B6
:1017E000CE0101960E948F06BE016F5F7F4FCE0132
:1017F0000D960E949C07882ECE0101960E9421061C
:10180000882069F064E070E0CE010D960E94DD074B
:10181000833419F4F501908202C0D5011C9260E274
:1018200071E0CE010D960E94C50683CF1EEF03C066
:101830001FEF01C011E0CE0107960E942106CE01E4
:101840000D960E942106812F62960FB6F894DEBF96
:101850000FBECDBFDF91CF911F910F91FF90EF9001
:10186000DF90CF90BF90AF909F908F9008958F9210
:101870009F92AF92BF92CF92DF92EF92FF920F931F
:101880001F93CF93DF93CDB7DEB763970FB6F8946E
:10189000DEBF0FBECDBF8C017B01942E6EE171E0E7
:1018A000CE010D960E948F06BE016D5E7F4FC8016E
:1018B0000E94550B8B89882319F094E1C92E02C030
:1018C0008DE7C82EB92CAA24A394D12CD91408F0E2
:1018D0004CC0BC1408F4CB2CBC1860E271E0CE0103
:1018E00007960E948F06AC2CAD0CDA1469F08824A0
:1018F00083948D0CF701ED0DF11D6081CE010796EB
:101900000E941907D82CF1CF63E871E0CE0101964F
:101910000E948F06BE01695F7F4FCE0101960E9433
:101920002C076FE171E00E943F07BC01CE010796D2
:101930000E94A506CE0101960E942106BE01695FA4
:101940007F4FCE0101960E94BC06BE016F5F7F4FA4
:10195000C8010E945809A82ECE0101960E942106B6
:10196000CE0107960E942106B1CFCE010D960E94AE
:1019700021068A2D63960FB6F894DEBF0FBECDBF49
:10198000DF91CF911F910F91FF90EF90DF90CF905B
:10199000BF90AF909F908F900895CF92DF92EF927B
:1019A000FF920F931F93CF93DF936C017B01FB0199
:1019B000C481D5812196CE010E94B9028C0120E01C
:1019C00030E0AE01BC01C7010E94DF074C2FB80117
:1019D000C6010E94370CC82FC8010E94BB028C2F81
:1019E000DF91CF911F910F91FF90EF90DF90CF90FB
:1019F0000895CF93C2E061E08C2F0E94B205CF5FC3
:101A0000CC30C9F7C2E061E08C2F0E94EB0564EF97
:101A100071E080E090E00E94090560E08C2F0E9458
:101A2000EB05CF5FCC3079F7CF9108950F931F93DB
:101A30008091630481112CC00E94DA040091170484
:101A4000109118042091190430911A04601B710B35
:101A5000820B930B653F714081059105C8F061E0F1
:101A600087E00E94EB0561E083E00E94EB0561E006
:101A700082E00E94EB050E94DA04609317047093E1
:101A800018048093190490931A0481E080936304EE
:101A900080916304882359F10E94DA0400911704AD
:101AA000109118042091190430911A04601B710BD5
:101AB000820B930B653F714081059105C0F060E09A
:101AC00087E00E94EB0560E083E00E94EB0560E0A8
:101AD00082E00E94EB050E94DA0460931704709381
:101AE00018048093190490931A04109263041F91B0
:101AF0000F91089560E087E00E94EB0560E083E0CD
:101B00000E94EB0560E082E00E94EB051092170452
:101B1000109218041092190410921A04109263047F
:101B200008950F931F938091620481112CC00E942D
:101B3000DA0400910F0410911004209111043091E7
:101B40001204601B710B820B930B653F7140810582
:101B50009105C8F061E088E00E94EB0561E08AE051
:101B60000E94EB0561E085E00E94EB050E94DA042B
:101B700060930F04709310048093110490931204E7
:101B800081E08093620480916204882359F10E946D
:101B9000DA0400910F041091100420911104309187
:101BA0001204601B710B820B930B653F7140810522
:101BB0009105C0F060E088E00E94EB0560E08AE0FB
:101BC0000E94EB0560E085E00E94EB050E94DA04CC
:101BD00060930F0470931004809311049093120487
:101BE000109262041F910F91089560E088E00E94B6
:101BF000EB0560E08AE00E94EB0560E085E00E9472
:101C0000EB0510920F041092100410921104109220
:101C100012041092620408950F931F93809164043C
:101C200081112CC00E94DA04009113041091140455
:101C30002091150430911604601B710B820B930BDD
:101C4000653F714081059105C8F061E084E00E9424
:101C5000EB0561E089E00E94EB0561E086E00E940F
:101C6000EB050E94DA0460931304709314048093CC
:101C700015049093160481E08093640480916404B9
:101C8000882359F10E94DA0400911304109114047E
:101C90002091150430911604601B710B820B930B7D
:101CA000653F714081059105C0F060E084E00E94CD
:101CB000EB0560E089E00E94EB0560E086E00E94B1
:101CC000EB050E94DA04609313047093140480936C
:101CD000150490931604109264041F910F910895B7
:101CE00060E084E00E94EB0560E089E00E94EB0583
:101CF00060E086E00E94EB05109213041092140439
:101D000010921504109216041092640408950F9313
:101D10001F9380916504811124C00E94DA04009110
:101D20000B0410910C0420910D0430910E04601BE3
:101D3000710B820B930B653F71408105910588F013
:101D400061E08BE00E94EB050E94DA0460930B04D3
:101D500070930C0480930D0490930E0481E08093A3
:101D6000650480916504882319F10E94DA040091CA
:101D70000B0410910C0420910D0430910E04601B93
:101D8000710B820B930B653F71408105910580F0CB
:101D900060E08BE00E94EB050E94DA0460930B0484
:101DA00070930C0480930D0490930E0410926504BC
:101DB0001F910F91089560E08BE00E94EB05109257
:101DC0000B0410920C0410920D0410920E04109249
:101DD0006504089508950E9431050E94EA0E0E944C
:101DE000150FC8EBD0E00E944B112097E1F30E9441
:101DF000B800F9CFCF93DF9381E394E0892B51F4BE
:101E000086E594E00E9421068CE594E0DF91CF9175
:101E10000C942106CFE4D4E02697CE010E9421063F
:101E200084E0C133D807C1F7EBCFFF920F931F9324
:101E3000CF93DF930E94F90C26E040E855E260E082
:101E400070E084E593E00E946E0168E871E084E54B
:101E500093E00E942603CAE0D0E0F12C00E010E0FD
:101E60008FE294E00E94670A8130B1F48FE294E03F
:101E70000E94190A8130C9F48FE294E00E94400A5E
:101E80008130C1F48FE294E00E94670A813001F151
:101E9000FF24F39401E014C0111107C06EE971E052
:101EA00084E593E00E9426032AC0011104C062EB7E
:101EB00071E008C001E0F11003C068EC71E002C0FD
:101EC00063EE71E084E593E00E94260311E017C001
:101ED0006EEF71E084E593E00E94260361E672E014
:101EE00084E593E00E94260368EE73E080E090E0D2
:101EF000DF91CF911F910F91FF900C9409052197CD
:101F0000209709F0ADCF63E272E084E593E00E9490
:101F10002603FFCF80E00E946C0590932C048093F1
:101F20002B0481E00E946C0590932A04809329047D
:101F300082E00E946C0590932804809327042091EE
:101F40002B0430912C042331324044F12091290498
:101F500030912A04233132400CF183319240F4F065
:101F600080912D0490912E04892BC1F468EA72E0CF
:101F700086E594E00E94090761E273E086E594E05B
:101F80000E94090760E271E086E594E00E94C506C0
:101F900081E090E090932E0480932D040895809129
:101FA0005504882319F00E94160D02C00E947A0D74
:101FB00080915404882319F00E94910D02C00E9460
:101FC000F50D80915304882319F00E940C0E02C075
:101FD0000E94700E8091520481110C94870E0C9413
:101FE000DB0E60E271E08CE594E00E948F0660E217
:101FF00071E086E594E00E948F0664E573E08FE26D
:1020000094E00C9491080C94FA0E1F93CF93DF93F5
:1020100000D000D000D0CDB7DEB761E08BE00E94E9
:10202000EB0584E593E00E948B001816190684F4F2
:1020300084E593E00E94A400682F8CE594E00E9460
:10204000190762E370E080E090E00E940905E9CFA3
:1020500060E08BE00E94EB056EE171E0CE0101963D
:102060000E948F06BE016F5F7F4F8CE594E00E9457
:10207000AB07182FCE0101960E942106112309F10A
:102080006BEA72E0CE0101960E948F06BE016F5F7F
:102090007F4F8CE594E00E949C07182FCE0101969B
:1020A0000E942106112369F08CE594E00E94370814
:1020B00044E050E060E070E08CE594E00E940908A4
:1020C00006C060E271E08CE594E00E94C50660EB1A
:1020D00072E0CE0101960E948F06BE016F5F7F4FB6
:1020E0008CE594E00E949C07182FCE0101960E9477
:1020F00021061123B1F064EB72E084E593E00E94C5
:10210000260381E08093550484E593E00E94E70074
:1021100061ED72E086E594E00E94090761E273E0F8
:1021200029C064ED72E0CE0101960E948F06BE01C7
:102130006F5F7F4F8CE594E00E949C07182FCE01C3
:1021400001960E942106112331F168ED72E084E5C9
:1021500093E00E94260381E08093540484E593E099
:102160000E94E70061ED72E086E594E00E940907B5
:1021700065E273E086E594E00E94090766E574E095
:102180008FE294E00E94CD0C60E271E086E594E07D
:102190000E94C50676C066EF72E0CE0101960E94ED
:1021A0008F06BE016F5F7F4F8CE594E00E949C0715
:1021B000182FCE0101960E9421061123B1F06AEF7B
:1021C00072E084E593E00E94260381E0809353044B
:1021D00084E593E00E94E70061ED72E086E594E01B
:1021E0000E94090769E273E0C5CF6BE173E0CE019D
:1021F00001960E948F06BE016F5F7F4F8CE594E0D1
:102200000E949C07182FCE0101960E9421061123DF
:1022100099F010925504109254041092530484E5DE
:1022200093E00E94E70061ED72E086E594E00E9491
:1022300009076DE173E09ECF6FE173E08CE594E0F8
:102240000E945907811110C063E273E08CE594E0AD
:102250000E945907811108C067E273E08CE594E0A1
:102260000E945907882369F06BE273E084E593E0EC
:102270000E94260381E08093520410922E04109253
:102280002D0426960FB6F894DEBF0FBECDBFDF91AA
:10229000CF911F9108950F931F930E94DA0400912C
:1022A0002304109124042091250430912604085120
:1022B0001C4F2F4F3F4F061717072807390760F4A9
:1022C0000E9405100E94DA04609323047093240492
:1022D00080932504909326040E94DA0400911F0441
:1022E0001091200420912104309122040C501E4FA3
:1022F0002F4F3F4F061717072807390760F40E9432
:102300008A0F0E94DA0460931F0470932004809364
:102310002104909322040E94DA0400911B0410917E
:102320001C0420911D0430911E040C501E4F2F4F91
:102330003F4F061717072807390760F40E94CF0F91
:102340000E94DA0460931B0470931C0480931D04A4
:1023500090931E041F910F910895A1E21A2EAA1BBB
:10236000BB1BFD010DC0AA1FBB1FEE1FFF1FA21745
:10237000B307E407F50720F0A21BB30BE40BF50B42
:10238000661F771F881F991F1A9469F760957095CB
:10239000809590959B01AC01BD01CF010895EE0F92
:1023A000FF1F0590F491E02D0994CF93DF938230C5
:1023B000910510F482E090E0E0916804F0916904E6
:1023C00020E030E0A0E0B0E0309739F14081518169
:1023D00048175907B8F04817590771F4828193815B
:1023E000109729F013969C938E9312972CC090937C
:1023F00069048093680427C02115310531F0421724
:10240000530718F0A901DB0101C0EF019A01BD01DA
:10241000DF010280F381E02DD7CF21153105F9F0DE
:10242000281B390B2430310580F48A819B8161158A
:10243000710521F0FB019383828304C090936904AA
:1024400080936804FE01329644C0FE01E20FF31F40
:102450008193919322503109398328833AC0209186
:10246000660430916704232B41F4209102013091DE
:10247000030130936704209366042091000130919A
:1024800001012115310541F42DB73EB740910401FA
:1024900050910501241B350BE0916604F09167040F
:1024A000E217F307A0F42E1B3F0B2817390778F02B
:1024B000AC014E5F5F4F2417350748F04E0F5F1F8A
:1024C00050936704409366048193919302C0E0E0C7
:1024D000F0E0CF01DF91CF910895CF93DF93009784
:1024E00009F487C0FC01329713821282C0916804FC
:1024F000D0916904209781F420813181280F391F00
:1025000080916604909167048217930779F5F093A0
:102510006704E09366046DC0DE0120E030E0AE1792
:10252000BF0750F412964D915C9113979D01411590
:10253000510509F1DA01F3CFB383A28340815181C0
:10254000840F951F8A179B0771F48D919C911197A9
:10255000840F951F02969183808312968D919C9192
:102560001397938382832115310529F4F09369042D
:10257000E09368043EC0D9011396FC93EE93129742
:102580004D915D91A40FB51FEA17FB0779F4808187
:102590009181840F951F0296D90111969C938E9379
:1025A0008281938113969C938E931297E0E0F0E0E2
:1025B0008A819B81009719F0FE01EC01F9CFCE01D1
:1025C000029628813981820F931F209166043091F1
:1025D00067042817390769F4309729F410926904C1
:1025E0001092680402C013821282D0936704C093D1
:1025F0006604DF91CF910895A0E0B0E0E2E0F3E15E
:102600000C940B14EC01CB01209719F40E94D51106
:10261000B8C0FE01E60FF71F9E0122503109E217F4
:10262000F30708F4ACC0D9010D911C91119706175E
:102630001707B8F00530110508F49FC0A8014450F1
:1026400051094617570708F498C002501109061B94
:10265000170B019311936D937C93CF010E946D1220
:102660008CC05B01A01AB10A4E01800E911EA09190
:102670006804B0916904612C712C60E070E01097DF
:1026800009F449C0A815B905C9F5ED90FC9011975A
:10269000670142E0C40ED11CCA14DB0478F1470183
:1026A0008A189B08640142E0C40ED11C1296BC90AB
:1026B00012971396AC91B5E0CB16D10440F0B282DC
:1026C000A38391828082D9018D939C9309C00E5F70
:1026D0001F4F0E0D1F1DF90111830083EB2DFA2FE3
:1026E0006115710531F0DB011396FC93EE9312979F
:1026F00044C0F0936904E09368043FC06D917C91FD
:1027000011976616770608F43B01BD0112960D90ED
:10271000BC91A02DB4CF60916604709167046815D8
:102720007905E9F468167906D0F4409100015091DA
:1027300001014115510541F44DB75EB760910401A7
:1027400070910501461B570BE417F507C0F4F09391
:102750006704E0936604F901918380830EC00E94B0
:10276000D5117C01009759F0A801BE010E94CE133B
:10277000CE010E946D12C70104C0CE0102C080E0EC
:1027800090E0CDB7DEB7EEE00C94271491113CC079
:10279000803219F089508550D0F70895FB01DC0193
:1027A00002C001900D9241505040D8F70895FB01AE
:1027B000DC018D91019080190110D9F3990B0895D6
:1027C000FB01DC0101900D920020E1F70895FB016F
:1027D000DC014150504030F08D910190801919F486
:1027E0000020B9F7881B990B0895FB01DC014150CB
:1027F000504048F001900D920020C9F701C01D9291
:1028000041505040E0F708959927882708952F9266
:102810003F924F925F926F927F928F929F92AF9270
:10282000BF92CF92DF92EF92FF920F931F93CF93BD
:10283000DF93CDB7DEB7CA1BDB0B0FB6F894DEBF54
:102840000FBECDBF09942A88398848885F846E847A
:102850007D848C849B84AA84B984C884DF80EE80C4
:10286000FD800C811B81AA81B981CE0FD11D0FB6CD
:10287000F894DEBF0FBECDBFED01089510E0C0ECAF
:10288000D0E004C0FE010E94D1112296C23CD107C3
:06289000C9F7F894FFCF28
:1028960000006A042000FF01000000000901BD02DB
:1028A6008B00A4009600E7000000000070020A0DED
:1028B60000455252005645520D00455200426C7575
:1028C6006574004F4B005254520057525400534502
:1028D600542000303030410030303238003030344F
:1028E600450030303945003030454200554152549C
:1028F6000043454E5400474554200052535400525D
:10290600450053434E204F4646005354530D005343
:10291600545300534E44200053657269616C20681D
:10292600617320737461727465642E2E2E004D6F70
:1029360064756C65207265736574206572726F725A
:1029460021004D6F64756C6520726573746F7265D6
:10295600206572726F7221004D6F64756C65207709
:102966007269746520636F6E666967206572726F3F
:102976007221005365636F6E64206D6F64756C65BC
:10298600207265736574206572726F7221005265DC
:102996007365742F526573746F72652F57726974FD
:1029A6006520436F6E666967205041535345442E38
:1029B6002E2E0052657365742F526573746F72659F
:1029C6002F577269746520436F6E666967204641AA
:1029D600494C45442031302054494D45532E20530F
:1029E600544F5020455845435554494F4E2E2E2E90
:1029F6000052657365742F526573746F72652F5735
:102A06007269746520436F6E66696720444F4E4550
:102A1600210043434F4E0046415354004144565013
:102A26000041445654003030303030303030303091
:102A36003030004144445200424C005243563D005F
:102A46004C503100544F204C45465420474C4F566D
:102A5600453A204E41562053415953204C45465441
:102A660000504C004C503200544F204C45465420E8
:102A7600474C4F56453A204E415620534159532014
:102A86005249474854004C503300544F204C454659
:102A96005420474C4F56453A204E415620534159F3
:102AA60053205354524149474854004C5034004C2B
:102AB6004231004C4232004C423300544F204C45C8
:102AC600465420474C4F56453A204241434B5041CD
:102AD600434B204B4E4F57532057484154275320C2
:042AE6005550000047
:00000001FF
