S014000053656E736F72476C6F7665732E7372656326
S11300000C9461000C9448040C9475040C948900BD
S11300100C9489000C9489000C9489000C94EC03D2
S11300200C9489000C9489000C9489000C94890028
S11300300C9489000C9489000C9489000C94890018
S11300400C94A2040C9489000C94CA010C94FC0135
S11300500C9489000C9489000C9489000C948900F8
S11300600C9489000C94890002000000080002012D
S11300700000030407000000000000000001020467
S11300800810204080010204081020010204081016
S1130090200404040404040404020202020202030D
S11300A0030303030300000000250028002B0000C5
S11300B0000000240027002A00002C02AA02330FAB
S11300C04B0F11241FBECFEFD8E0DEBFCDBF12E02F
S11300D0A0E0B1E0E2E2F6E202C005900D92AC3E8F
S11300E0B107D9F723E0ACEEB2E001C01D92A03E07
S11300F0B207E1F710E0C0ECD0E004C02297FE01A3
S11301000E94A210CA3BD107C9F70E94310E0C9479
S113011004130C940000FC01818D228D90E0805C1E
S11301209F4F821B91098F7399270895FC01918D2C
S1130130828D981731F0828DE80FF11D858D90E046
S113014008958FEF9FEF0895FC01918D828D98178C
S113015061F0828DDF01A80FB11D5D968C91928DA7
S11301609F5F9F73928F90E008958FEF9FEF0895A4
S113017082E292E0892B49F080E090E0892B29F01B
S11301800E94220281110C9400000895FC01848DC8
S1130190DF01A80FB11DA35ABF4F2C91848D90E0AD
S11301A001968F739927848FA689B7892C93A08988
S11301B0B1898C9180648C93938D848D981306C03F
S11301C00288F389E02D80818F7D80830895CF9309
S11301D0DF93EC01888D8823C9F0EA89FB8980814B
S11301E085FD05C0A889B9898C9186FD0FC00FB61D
S11301F007FCF5CF808185FFF2CFA889B9898C915E
S113020085FFEDCFCE010E94C600E7CFDF91CF91ED
S11302100895CF92DF92FF920F931F93CF93DF93B2
S11302201F92CDB7DEB76C01DC015B969C915B97A6
S11302305C968C915C97981307C05096ED91FC9155
S11302405197808185FD32C0F601038D10E00F5F68
S11302501F4F0F731127F02EF601848DF81211C071
S11302600FB607FCF9CFD6015096ED91FC9151974A
S1130270808185FFF1CFC60169830E94C600698130
S1130280EBCF838DE80FF11DE35AFF4F6083D60156
S11302905B960C935B975296ED91FC9153978081FA
S11302A08062808381E058968C930DC0D601569667
S11302B0ED91FC91579760835096ED91FC91519785
S11302C080818064808381E090E00F90DF91CF9102
S11302D01F910F91FF90DF90CF900895BF92CF921E
S11302E0DF92EF92FF92CF93DF93EC016A017B01DF
S11302F0B22E60E874E88EE190E0A70196010E94B6
S11303007E10215031094109510956954795379579
S11303102795E889F98982E08083211580E13807EF
S113032098F0E889F989108260E472E48FE090E043
S1130330A70196010E947E102150310941095109FB
S11303405695479537952795EC85FD853083EE8541
S1130350FF852083188EEC89FD89B082EA89FB89A8
S1130360808180618083EA89FB89808188608083C1
S1130370EA89FB89808180688083EA89FB8980819E
S11303808F7D8083DF91CF91FF90EF90DF90CF90AE
S1130390BF9008951F920F920FB60F9211242F93BE
S11303A08F939F93EF93FF93E091FC02F091FD02F2
S11303B08081E0910203F091030382FD12C09081D9
S11303C0809105038F5F8F7320910603821751F08C
S11303D0E0910503F0E0E451FD4F958F8093050310
S11303E001C08081FF91EF919F918F912F910F9088
S11303F00FBE0F901F9018951F920F920FB60F9279
S113040011242F933F934F935F936F937F938F9315
S11304109F93AF93BF93EF93FF938CEE92E00E9470
S1130420C600FF91EF91BF91AF919F918F917F9102
S11304306F915F914F913F912F910F900FBE0F904D
S11304401F9018958CEE92E00E948B0021E0892B7E
S113045009F420E0822F08951092EF021092EE0228
S113046088EE93E0A0E0B0E08093F0029093F10274
S1130470A093F202B093F3028CE091E09093ED022A
S11304808093EC0285EC90E09093F9028093F8025B
S113049084EC90E09093FB028093FA0280EC90E06D
S11304A09093FD028093FC0281EC90E09093FF0214
S11304B08093FE0282EC90E090930103809300030A
S11304C086EC90E09093030380930203109205035B
S11304D010920603109207031092080308950895DA
S11304E0AF92BF92CF92DF92EF92FF920F931F933E
S11304F0CF93DF936C017B01C0E0D0E000E010E01B
S1130500F601EC0FFD1F4AE050E06281C7010E9432
S1130510B0035C016EE2C7010E940B038A0D9B1DB0
S1130520080F191F2196C330D10551F74AE050E056
S1130530F6016581C7010E94B003800F911FDF910E
S1130540CF911F910F91FF90EF90DF90CF90BF90CC
S1130550AF9008958CE191E090938A03809389038E
S113056010928B0310928C0310928D0310928E03C1
S113057008950C94A6100C943E11CF92DF92EF9242
S1130580FF920F931F93CF93DF936C017A01EB01DA
S1130590E60EF71E00E010E0CE15DF0561F069916C
S11305A0D601ED91FC910190F081E02DC6010995F1
S11305B0080F191FF1CFC801DF91CF911F910F913F
S11305C0FF90EF90DF90CF9008956115710581F051
S11305D0DB010D900020E9F7AD0141505109461BA4
S11305E0570BDC01ED91FC910280F381E02D09941D
S11305F080E090E00895DC01ED91FC91DB0114961C
S11306004D915C9115976D917C910280F381E02D61
S113061009940C94E502DC01ED91FC910190F081C8
S1130620E02D09940F931F93CF93DF93EC016DE0BA
S11306300E940B038C016AE0CE010E940B03800F21
S1130640911FDF91CF911F910F9108950F931F93E5
S1130650CF93DF93EC010E94FB028C01CE010E9438
S11306601203800F911FDF91CF911F910F91089575
S11306700F931F93CF93DF93EC010E94E5028C014B
S1130680CE010E941203800F911FDF91CF911F9121
S11306900F9108958F929F92AF92BF92CF92DF9263
S11306A0EF92FF920F931F93CF93DF93CDB7DEB7F3
S11306B0A1970FB6F894DEBF0FBECDBF7C01C42E48
S11306C0E52FCB01D22E19A221E02D1510F02AE03E
S11306D0D22E8E010F5D1F4F8D2C912CA12CB12C8D
S11306E06C2D7E2FA50194010E947E108C2DD29E2C
S11306F080191124015011098A3010F4805D01C061
S1130700895CF8018083211531054105510521F0EB
S1130710C22EE32FCA01E4CFB801C7010E94E5024B
S1130720A1960FB6F894DEBF0FBECDBFDF91CF9177
S11307301F910F91FF90EF90DF90CF90BF90AF90FB
S11307409F908F9008952115310541F4DC01ED91BE
S1130750FC910190F081E02D642F09940C944A03DC
S11307609A01462F50E060E070E00C94A3038130BE
S113077039F018F0823051F0089510926E00089507
S113078080916F008D7F80936F0008958091700039
S11307908D7F8093700081E08093B0008091B100E0
S11307A0887F84608093B1001092B3000895CF9342
S11307B0C82F809106018C1307C0E8E6F0E084910D
S11307C09FEF9093060101C08FEF0E94B70360E092
S11307D08C2FCF910C94FD051F920F920FB60F92A0
S11307E011242F933F934F935F936F937F938F9332
S11307F09F93AF93BF93EF93FF9380919203909154
S11308009303A0919403B0919503892B8A2B8B2B8E
S113081051F190918F03E0919003F09191038081C5
S1130820892780838091920390919303A0919403EC
S1130830B0919503181619061A061B06C4F4809184
S1130840920390919303A0919403B091950301971F
S1130850A109B1098093920390939303A093940305
S1130860B093950304C0809106010E94D703FF91C1
S1130870EF91BF91AF919F918F917F916F915F9114
S11308804F913F912F910F900FBE0F901F9018958D
S11308901F920F920FB60F9211242F933F934F93F1
S11308A05F936F937F938F939F93AF93BF93EF93D4
S11308B0FF938091960390919703892B29F0E091FF
S11308C09603F09197030995FF91EF91BF91AF9132
S11308D09F918F917F916F915F914F913F912F9154
S11308E00F900FBE0F901F9018951F920F920FB686
S11308F00F9211242F933F934F935F936F937F93A2
S11309008F939F93AF93BF93EF93FF93809198033B
S113091090919903892B29F0E0919803F091990320
S11309200995FF91EF91BF91AF919F918F917F9125
S11309306F915F914F913F912F910F900FBE0F9048
S11309401F9018951F920F920FB60F9211242F9398
S11309503F938F939F93AF93BF9380919B03909109
S11309609C03A0919D03B0919E0330919A0326E0CD
S1130970230F2D3720F40296A11DB11D05C029E8CF
S1130980230F0396A11DB11D20939A0380939B030B
S113099090939C03A0939D03B0939E0380919F0327
S11309A09091A003A091A103B091A2030196A11D6F
S11309B0B11D80939F039093A003A093A103B093D0
S11309C0A203BF91AF919F918F913F912F910F906F
S11309D00FBE0F901F9018952FB7F89460919B034A
S11309E070919C0380919D0390919E032FBF089565
S11309F03FB7F89480919F039091A003A091A10325
S1130A00B091A20326B5A89B05C02F3F19F001960B
S1130A10A11DB11D3FBF6627782F892F9A2F620F22
S1130A20711D811D911D43E0660F771F881F991F5B
S1130A304A95D1F70895CF92DF92EF92FF92CF9328
S1130A40DF936B017C010E94F804EB01C114D10413
S1130A50E104F10489F00E946F020E94F8046C1B07
S1130A607D0B683E734090F381E0C81AD108E10819
S1130A70F108C851DC4FEACFDF91CF91FF90EF909E
S1130A80DF90CF900895789484B5826084BD84B556
S1130A90816084BD85B5826085BD85B5816085BD75
S1130AA0EEE6F0E0808181608083E1E8F0E010828E
S1130AB0808182608083808181608083E0E8F0E0CF
S1130AC0808181608083E1EBF0E0808184608083B9
S1130AD0E0EBF0E0808181608083EAE7F0E08081F0
S1130AE08460808380818260808380818160808350
S1130AF08081806880831092C10008958E3008F050
S1130B008E5087702091070190E4299F9001112451
S1130B10822B80937C0080917A00806480937A0099
S1130B2080917A0086FDFCCF809178002091790035
S1130B3090E0922B0895833081F028F4813099F06D
S1130B408230A1F008958730A9F08830B9F084305C
S1130B50D1F4809180008F7D03C0809180008F77D5
S1130B6080938000089584B58F7702C084B58F7D0B
S1130B7084BD08958091B0008F7703C08091B00048
S1130B808F7D8093B0000895CF93DF9390E0FC01B4
S1130B90E358FF4F2491FC01EF56FF4F84918823C3
S1130BA049F190E0880F991FFC01E155FF4FA59191
S1130BB0B4918B559F4FFC01C591D4919FB761119E
S1130BC008C0F8948C91209582238C938881822389
S1130BD00AC0623051F4F8948C91322F30958323FB
S1130BE08C938881822B888304C0F8948C91822B07
S1130BF08C939FBFDF91CF9108950F931F93CF9351
S1130C00DF931F92CDB7DEB7282F30E0F901E75903
S1130C10FF4F8491F901E358FF4F1491F901EF5606
S1130C20FF4F04910023C9F0882321F069830E94B7
S1130C309B056981E02FF0E0EE0FFF1FEB55FF4F9E
S1130C40A591B4919FB7F8948C91611103C010954C
S1130C50812301C0812B8C939FBF0F90DF91CF9193
S1130C601F910F910895FC01808191810C943E1194
S1130C70CF93DF93EC0188819981009711F00E9452
S1130C803E11198218821D821C821B821A82DF91F6
S1130C90CF9108950F931F93CF93DF93EC018B01B2
S1130CA06F5F7F4F888199810E94CD11009731F049
S1130CB0998388831B830A8381E001C080E0DF91EC
S1130CC0CF911F910F910895CF93DF93EC01888109
S1130CD09981892B29F08A819B818617970760F473
S1130CE0CE010E944A06882341F08C819D81892B84
S1130CF019F4E881F981108281E0DF91CF910895A0
S1130D00EF92FF920F931F93CF93DF93EC017B013C
S1130D108A01BA010E946406811104C0CE010E94B6
S1130D20380607C01D830C83B701888199810E940E
S1130D30A912CE01DF91CF911F910F91FF90EF90F7
S1130D400895FC011182108213821282158214828A
S1130D506115710559F0FB0101900020E9F7AF011D
S1130D6041505109461B570B0C9480060895CF93AC
S1130D70DF93EC01FB018617970761F060817181B5
S1130D806115710529F0448155810E94800602C0D5
S1130D900E943806CE01DF91CF910895FC011182A3
S1130DA0108213821282158214820C94B706CF9398
S1130DB0DF93EC016115710561F0FB0101900020E6
S1130DC0E9F7AF0141505109461B570B0E948006B9
S1130DD002C00E943806CE01DF91CF910895EF92B0
S1130DE0FF920F931F93CF93DF93EC017B010C8150
S1130DF01D816115710511F480E016C0411551057E
S1130E0091F0040F151FB8010E9464068823A1F312
S1130E10288139818C819D81B701820F931F0E94A3
S1130E20A9121D830C8381E0DF91CF911F910F9153
S1130E30FF90EF900895FB01448155816081718199
S1130E400C94EF066115710559F0FB010190002027
S1130E50E9F7AF0141505109461B570B0C94EF06BB
S1130E6080E00895CF93DF9300D0CDB7DEB76983D8
S1130E701A8241E050E0BE016F5F7F4F0E94EF068F
S1130E800F900F90DF91CF910895CF93DF93EC01F2
S1130E90FB0144815581608171810E94EF068111BB
S1130EA003C0CE010E943806CE01DF91CF91089590
S1130EB0CF93DF93EC016115710569F0FB0101909B
S1130EC00020E9F7AF0141505109461B570B0E941E
S1130ED0EF06811103C0CE010E943806CE01DF91D6
S1130EE0CF910895CF93DF93DC01ED91FC91EB0159
S1130EF0A881B981309711F01097C9F4109759F06F
S1130F00EB012C813D81232B31F08C9190E0919564
S1130F108195910914C0309781F0DC0114968D916C
S1130F209C911597892B49F0808190E008C0BD0100
S1130F30CF01DF91CF910C94A01280E090E0DF917B
S1130F40CF910895FC0144815581FB0124813581B1
S1130F504217530741F40E94720721E0892B09F0DC
S1130F6020E0822F089580E00895FC0124813581DA
S1130F70232B31F421E061157105A1F0FB0108C0B8
S1130F80FC01808191816115710531F421E0FC013E
S1130F908081882339F005C00E94A01221E0892BAA
S1130FA009F020E0822F0895FA01DB0114964D9197
S1130FB05C911597DC0114962D913C911597241B97
S1130FC0350B2E173F0788F08D919C91009769F09F
S1130FD0DB016D917C916115710539F08E0F9F1FB6
S1130FE00E94B01221E0892B09F020E0822F08959D
S1130FF0FC0144815581FB0124813581421753074B
S113100020F040E050E00C94D40780E00895FC0107
S113101084819581DB0114964D915C911597841719
S1131020950798F0208131812115310571F06D917A
S11310307C916115710549F0841B950B820F931FF8
S11310400E94A01221E0892B09F020E0822F08954C
S1131050FC01248135816217730748F480819181F2
S1131060009729F0FC01E60FF71F8081089580E0C6
S113107008950C9428080F931F93CF93DF93EB01EB
S113108041155105E9F02097D9F0FC01648175817F
S113109026173707A0F4621B730B8A01015011094C
S11310A06017710708F48B01FC0160817181620F84
S11310B0731FA801CE010E94BE12C00FD11F188257
S11310C0DF91CF911F910F910895BF92CF92DF923C
S11310D0EF92FF920F931F93CF93DF936C017B01E9
S11310E0EA0189012417350720F48D2FE901042F23
S11310F0182F60E271E0C6010E94A106D701149680
S11311008D919C911597C817D907C8F4801791073A
S113111008F48C01D701ED91FC911197E00FF11FB8
S1131120B08010826D917C916C0F7D1FC6010E946E
S1131130D706D701ED91FC91E00FF11FB082C601F3
S1131140DF91CF911F910F91FF90EF90DF90CF909F
S1131150BF900895CF93DF93EC01CB012C813D81A7
S11311606217730710F541155105F9F0B901681BB1
S1131170790B4617570708F4BA01E881F981261B51
S1131180370B3D832C83A901481B590B680F791F2A
S11311906E0F7F1F8E0F9F1F0E94BE12E881F98180
S11311A08C819D81E80FF91F1082DF91CF91089502
S11311B04FEF5FEF0C94AA08CF92DF92EF92FF9269
S11311C00F931F93CF93DF93EC017B018C010E5F90
S11311D01F4F6C0180E2C80ED11C60E271E0C801AF
S11311E00E94A1060A5F1F4F0C151D05B1F7FAA254
S11311F0E9A218A2DF91CF911F910F91FF90EF9078
S1131200DF90CF9008958F929F92AF92BF92CF922A
S1131210DF92EF92FF920F931F93CF93DF93CDB79B
S1131220DEB762970FB6F894DEBF0FBECDBF8C0158
S11312306EE171E0CE010D960E94A10660E271E0BC
S1131240CE0107960E94A1066FE171E0D801919644
S11312508D919C9192970E940903F80181A192A11A
S1131260DC01ED91FC910284F385E02D09950E9447
S1131270EC046B017C01BE01635F7F4FCE010796D6
S11312800E940708813089F1F80181A192A1DC0153
S1131290ED91FC910480F581E02D0995181619064D
S11312A09CF4F80181A192A1DC01ED91FC910680EE
S11312B0F781E02D0995682FCE0107960E94320729
S11312C00E94EC046B017C010E94EC04460157016E
S11312D0B8EE8B0EB3E09B1EA11CB11C86169706BC
S11312E0A806B90640F61EEF12C061E271E0CE0115
S11312F001960E94A106BE016F5F7F4FCE01079643
S11313000E94F807CE0101960E94330611E0CE0137
S113131007960E943306CE010D960E943306812F54
S113132062960FB6F894DEBF0FBECDBFDF91CF91AA
S11313301F910F91FF90EF90DF90CF90BF90AF90EF
S11313409F908F900895BF92CF92DF92EF92FF9279
S11313500F931F93CF93DF93CDB7DEB762970FB68A
S1131360F894DEBF0FBECDBF8C017B0160E271E05B
S1131370CE010D960E94A1066EE171E0CE010796A2
S11313800E94A106C8010E940309B701D8019196E1
S11313908D919C9192970E94FB026FE171E0F8019C
S11313A081A192A10E940903D80191968D919C91EB
S11313B09297DC01ED91FC910284F385E02D09956F
S11313C00E94EC046B017C01B8EBCB0EBBE0DB1E8E
S11313D0E11CF11C0E94EC046C157D058E059F0533
S11313E008F054C0F80181A192A1DC01ED91FC91B7
S11313F00480F581E02D0995181619067CF4F8018E
S113140081A192A1DC01ED91FC910680F781E02D90
S11314100995682FCE010D960E943207BE01695FBF
S11314207F4FCE010D960E940708882399F26AE245
S113143071E0CE0101960E94A106BE016F5F7F4F4D
S1131440CE010D960E94F807B82ECE0101960E9497
S11314503306B1101DC063E371E0CE0101960E9412
S1131460A106BE016F5F7F4FCE010D960E94F80763
S1131470B82ECE0101960E943306B1100BC060E273
S113148071E0CE010D960E94D706A4CF1EEF03C0D3
S11314901FEF01C011E0CE0107960E943306CE0172
S11314A00D960E943306812F62960FB6F894DEBF24
S11314B00FBECDBFDF91CF911F910F91FF90EF90A1
S11314C0DF90CF90BF9008950F931F93CF93DF9336
S11314D000D000D000D0CDB7DEB78C0166E371E058
S11314E0CE0101960E94A106BE016F5F7F4FC80125
S11314F00E94A309182FCE0101960E943306812F62
S113150026960FB6F894DEBF0FBECDBFDF91CF9104
S11315101F910F9108950F931F93CF93DF9300D0E2
S113152000D000D0CDB7DEB78C016AE371E0CE0104
S113153001960E94A106BE016F5F7F4FC8010E9401
S1131540A309182FCE0101960E943306812F2696F7
S11315500FB6F894DEBF0FBECDBFDF91CF911F91C0
S11315600F910895BF92CF92DF92EF92FF920F9363
S11315701F93CF93DF93CDB7DEB762970FB6F8947E
S1131580DEBF0FBECDBF8C0160E271E0CE010D96CF
S11315900E94A1066EE171E0CE0107960E94A106A9
S11315A0C8010E9403096BE671E0D80191968D9100
S11315B09C9192970E9409036FE171E0F80181A167
S11315C092A10E940903D80191968D919C919297C2
S11315D0DC01ED91FC910284F385E02D09950E94D4
S11315E0EC046B017C01B0E7CB0EB7E1DB1EE11C20
S11315F0F11C0E94EC046C157D058E059F0508F016
S113160083C0F80181A192A1DC01ED91FC910480D9
S1131610F581E02D0995181619067CF4F80181A1CD
S113162092A1DC01ED91FC910680F781E02D0995F2
S1131630682FCE010D960E943207BE01695F7F4F6D
S1131640CE010D960E940708882399F26AE271E0A0
S1131650CE0101960E94A106BE016F5F7F4FCE01AD
S11316600D960E94F807B82ECE0101960E9433060B
S1131670B1104CC06FE671E0CE0101960E94A10644
S1131680BE016F5F7F4FCE010D960E94F807B82E02
S1131690CE0101960E943306BB2079F162E771E026
S11316A0CE0101960E94A106BE016F5F7F4FC80163
S11316B00E94A309CE0101960E94330664EF71E0F3
S11316C080E090E00E941B05F80181A192A1DC0159
S11316D0ED91FC910480F581E02D0995892B59F059
S11316E0F80181A192A1DC01ED91FC910680F781C2
S11316F0E02D0995E9CF11E00AC060E271E0CE0166
S11317000D960E94D70675CF1EEF01C01FEFCE01C4
S113171007960E943306CE010D960E943306812F50
S113172062960FB6F894DEBF0FBECDBFDF91CF91A6
S11317301F910F91FF90EF90DF90CF90BF9008958D
S11317408F929F92AF92BF92CF92DF92EF92FF92CD
S11317500F931F93CF93DF93CDB7DEB762970FB686
S1131760F894DEBF0FBECDBF8C015B0160E271E077
S1131770CE010D960E94A1066EE171E0CE0107969E
S11317800E94A106C8010E9403096AE771E0D8011A
S113179091968D919C9192970E940903F80181A1E1
S11317A092A1DC01ED91FC910284F385E02D099571
S11317B00E94EC046B017C01B8EBCB0EBBE0DB1E9A
S11317C0E11CF11C992493940E94EC046C157D0592
S11317D08E059F0508F075C0F80181A192A1DC0176
S11317E0ED91FC910480F581E02D099518161906F8
S11317F07CF4F80181A192A1DC01ED91FC910680B9
S1131800F781E02D0995682FCE010D960E943207CD
S1131810BE01695F7F4FCE010D960E9407088823A1
S113182099F26AE271E0CE0101960E94A106BE011E
S11318306F5F7F4FCE010D960E94F807882ECE0170
S113184001960E94330681103EC063E371E0CE012D
S113185001960E94A106BE016F5F7F4FCE010D96D7
S11318600E94F807882ECE0101960E94330681104B
S11318702CC06FE771E0CE0101960E94A106BE0163
S11318806F5F7F4FCE010D960E94F807882ECE0120
S113189001960E943306882069F064E070E0CE016E
S11318A00D960E943908833419F4F501908202C020
S11318B0D5011C9260E271E0CE010D960E94D7061C
S11318C083CF1EEF03C01FEF01C011E0CE010796C6
S11318D00E943306CE010D960E943306812F629634
S11318E00FB6F894DEBF0FBECDBFDF91CF911F912D
S11318F00F91FF90EF90DF90CF90BF90AF909F90AB
S11319008F9008958F929F92AF92BF92CF92DF9261
S1131910EF92FF920F931F93CF93DF93CDB7DEB770
S113192063970FB6F894DEBF0FBECDBF8C017B0169
S1131930942E6EE171E0CE010D960E94A106BE01C7
S11319406D5E7F4FC8010E94A00B8B89882319F01C
S113195094E1C92E02C08DE7C82EB92CAA24A39401
S1131960D12CD91408F04CC0BC1408F4CB2CBC18EE
S113197060E271E0CE0107960E94A106AC2CAD0C8A
S1131980DA1469F0882483948D0CF701ED0DF11DB0
S11319906081CE0107960E943207D82CF1CF63E80C
S11319A071E0CE0101960E94A106BE01695F7F4FDE
S11319B0CE0101960E9445076FE171E00E9458072D
S11319C0BC01CE0107960E94B706CE0101960E9483
S11319D03306BE01695F7F4FCE0101960E94CE0699
S11319E0BE016F5F7F4FC8010E94A309A82ECE01DC
S11319F001960E943306CE0107960E943306B1CFAA
S1131A00CE010D960E9433068A2D63960FB6F89484
S1131A10DEBF0FBECDBFDF91CF911F910F91FF901D
S1131A20EF90DF90CF90BF90AF909F908F900895EC
S1131A30CF92DF92EF92FF920F931F93CF93DF9396
S1131A406C017B01FB01C481D5812196CE010E94EA
S1131A50B9028C0120E030E0AE01BC01C7010E9454
S1131A603B084C2FB801C6010E94820CC82FC80144
S1131A700E94BB028C2FDF91CF911F910F91FF9099
S1131A80EF90DF90CF90089561E087E00E94C40555
S1131A9061E083E00E94C40561E082E00E94C40525
S1131AA061E088E00E94C40561E08AE00E94C40508
S1131AB061E085E00E94C40561E084E00E94C40501
S1131AC061E089E00E94C40561E086E00E94C405EB
S1131AD061E08BE00C94C4050F931F93CF93DF93C5
S1131AE08C01C0E0D0E0C017D10731F161E087E09C
S1131AF00E94FD0561E083E00E94FD0561E082E053
S1131B000E94FD0564EF71E080E090E00E941B05F7
S1131B1060E087E00E94FD0560E083E00E94FD052F
S1131B2060E082E00E94FD0564EF71E080E090E0F7
S1131B300E941B052196D7CFDF91CF911F910F9162
S1131B4008950F931F93CF93DF938C01C0E0D0E0EF
S1131B50C017D10731F161E088E00E94FD0561E022
S1131B608AE00E94FD0561E085E00E94FD0564EFC6
S1131B7071E080E090E00E941B0560E088E00E9434
S1131B80FD0560E08AE00E94FD0560E085E00E94BA
S1131B90FD0564EF71E080E090E00E941B05219652
S1131BA0D7CFDF91CF911F910F9108950F931F937A
S1131BB0CF93DF938C01C0E0D0E0C017D10731F19F
S1131BC061E084E00E94FD0561E089E00E94FD057A
S1131BD061E086E00E94FD0564EF71E080E090E042
S1131BE00E941B0560E084E00E94FD0560E089E03E
S1131BF00E94FD0560E086E00E94FD0564EF71E04F
S1131C0080E090E00E941B052196D7CFDF91CF9111
S1131C101F910F9108950F931F93CF93DF938C011E
S1131C20C0E0D0E0C017D107B1F061E08BE00E94C2
S1131C30FD0564EF71E080E090E00E941B0560E028
S1131C408BE00E94FD0564EF71E080E090E00E946B
S1131C501B052196E7CFDF91CF911F910F91089536
S1131C6008950E9443050E94300E0E945F0EC8EB47
S1131C70D0E00E944D0F2097E1F30E94B800F9CF05
S1131C80CF93DF9389EA93E0892B71F48AEC93E094
S1131C900E94330680ED93E00E94330686ED93E0C4
S1131CA0DF91CF910C943306C7ECD3E02697CE0195
S1131CB00E94330683E0C93AD807C1F7E7CFFF9201
S1131CC00F931F93CF93DF930E9443050E94440D0B
S1131CD082E090E00E946C0D82E090E00E94D60DBC
S1131CE082E090E00E94A10D82E090E00E940B0E41
S1131CF026E040E855E260E070E08CEE92E00E945D
S1131D006E0168E871E08CEE92E00E943803CAE04C
S1131D10D0E0F12C00E010E087EA93E00E94B20AE0
S1131D208130B1F487EA93E00E94640A8130C9F4F7
S1131D3087EA93E00E948B0A8130C1F487EA93E03A
S1131D400E94B20A813001F1FF24F39401E014C02F
S1131D50111107C06EE971E08CEE92E00E94380325
S1131D602AC0011104C062EB71E008C001E0F11067
S1131D7003C068EC71E002C063EE71E08CEE92E0A7
S1131D800E94380311E017C06EEF71E08CEE92E010
S1131D900E94380361E672E08CEE92E00E94380300
S1131DA068EE73E080E090E0DF91CF911F910F9196
S1131DB0FF900C941B052197209709F0ADCF63E2A7
S1131DC072E08CEE92E00E943803FFCF9F92AF92B4
S1131DD0BF92CF92DF92EF92FF920F931F93CF9314
S1131DE0DF9300D000D000D0CDB7DEB76C017B010B
S1131DF000E010E0AA24AA94BB24BA94F60124813A
S1131E003581F70144815581421B530B0417150793
S1131E10B8F4200F311FA801B701CE0101960E942A
S1131E206508B601CE0101960E94A207982ECE0144
S1131E3001960E943306911058010F5F1F4FDECFA9
S1131E40C50126960FB6F894DEBF0FBECDBFDF9155
S1131E50CF911F910F91FF90EF90DF90CF90BF90A3
S1131E60AF909F90089560E271E086ED93E00E9448
S1131E70A10660E271E080ED93E00E94A10660E2B9
S1131E8071E08AEC93E00E94A1066CEE72E087EAAE
S1131E9093E00C94DC080C94400E0F931F93CF93A3
S1131EA0DF93CDB7DEB72C970FB6F894DEBF0FBE25
S1131EB0CDBF8CEE92E00E948B00181619060CF42C
S1131EC0EBC060ED73E0CE0101960E94CE0668EA95
S1131ED072E0CE0107960E94A106BE016F5F7F4F9C
S1131EE0CE0107960E94E60E8C01CE0107960E9451
S1131EF03306CE0101960E9433060F3F2FEF1207DF
S1131F0009F472C044E050E0B80180ED93E00E940F
S1131F10AA0860ED73E0CE0101960E94CE066EE140
S1131F2071E0CE0107960E94A106BE016F5F7F4F4C
S1131F30CE0107960E94E60E8C01CE0107960E9400
S1131F403306CE0101960E943306B80180ED93E07A
S1131F500E94D80860ED73E08CEE92E00E942603A4
S1131F606DEA72E080ED93E00E94B507882359F092
S1131F7061EB72E08CEE92E00E9438038AE090E01C
S1131F800E946C0D2BC06FEB72E080ED93E00E9419
S1131F90B507882359F063EC72E08CEE92E00E945E
S1131FA038038AE090E00E94A10D18C062ED72E04F
S1131FB080ED93E00E94B507882381F066ED72E01E
S1131FC08CEE92E00E9438038AE090E00E94D60DE5
S1131FD068EE73E080E090E00E941B0560ED73E022
S1131FE086ED93E00E941B0760E271E080ED93E0D0
S1131FF00E94D70681E00E947E059093A6038093F9
S1132000A503833122E092074CF18091A3039091C0
S1132010A403892B81F58CEE92E00E94E70068EE20
S113202072E08AEC93E00E94220761EC72E08AEC91
S113203093E00E9422076AEC73E087EA93E00E942F
S1132040180D60E271E08AEC93E00E94D70681E00B
S113205090E09093A4038093A3030DC08231924037
S113206051F08091A3039091A403892B21F0109245
S1132070A4031092A30364EF71E080E090E00E9457
S11320801B052C960FB6F894DEBF0FBECDBFDF91B3
S1132090CF911F910F91089561E08BE00E94FD059F
S11320A08CEE92E00E94A400682F80ED93E00E94E1
S11320B0320760E08BE00E94FD0560ED73E0CE0125
S11320C001960E94CE066EE171E0CE0107960E9451
S11320D0A106BE016F5F7F4FCE0107960E94E60EF8
S11320E08C01CE0107960E943306CE0101960E9410
S11320F033060F3F1F4F09F0E4CEDBCEA1E21A2EC8
S1132100AA1BBB1BFD010DC0AA1FBB1FEE1FFF1F97
S1132110A217B307E407F50720F0A21BB30BE40BE7
S1132120F50B661F771F881F991F1A9469F760952E
S11321307095809590959B01AC01BD01CF010895E8
S1132140EE0FFF1F0590F491E02D0994CF93DF93D8
S11321508230910510F482E090E0E091DE03F0918A
S1132160DF0320E030E0A0E0B0E0309739F14081B7
S1132170518148175907B8F04817590771F48281FB
S11321809381109729F013969C938E9312972CC0E9
S11321909093DF038093DE0327C02115310531F0CE
S11321A04217530718F0A901DB0101C0EF019A019E
S11321B0BD01DF010280F381E02DD7CF2115310568
S11321C0F9F0281B390B2430310580F48A819B8176
S11321D06115710521F0FB019383828304C0909300
S11321E0DF038093DE03FE01329644C0FE01E20F5A
S11321F0F31F8193919322503109398328833AC084
S11322002091DC033091DD03232B41F42091020162
S1132210309103013093DD032093DC03209100010E
S1132220309101012115310541F42DB73EB740919C
S1132230040150910501241B350BE091DC03F0915E
S1132240DD03E217F307A0F42E1B3F0B2817390711
S113225078F0AC014E5F5F4F2417350748F04E0FFE
S11322605F1F5093DD034093DC038193919302C07D
S1132270E0E0F0E0CF01DF91CF910895CF93DF93B9
S1132280009709F487C0FC01329713821282C0912F
S1132290DE03D091DF03209781F420813181280F60
S11322A0391F8091DC039091DD038217930779F540
S11322B0F093DD03E093DC036DC0DE0120E030E049
S11322C0AE17BF0750F412964D915C9113979D0180
S11322D04115510509F1DA01F3CFB383A28340819B
S11322E05181840F951F8A179B0771F48D919C91DE
S11322F01197840F951F02969183808312968D9176
S11323009C911397938382832115310529F4F093CB
S1132310DF03E093DE033EC0D9011396FC93EE93F2
S113232012974D915D91A40FB51FEA17FB0779F43D
S113233080819181840F951F0296D90111969C93F7
S11323408E938281938113969C938E931297E0E0EF
S1132350F0E08A819B81009719F0FE01EC01F9CF2E
S1132360CE01029628813981820F931F2091DC03CC
S11323703091DD032817390769F4309729F4109256
S1132380DF031092DE0302C013821282D093DD03B6
S1132390C093DC03DF91CF910895A0E0B0E0E3EDBA
S11323A0F1E10C94D112EC01CB01209719F40E94B5
S11323B0A610B8C0FE01E60FF71F9E012250310996
S11323C0E217F30708F4ACC0D9010D911C911197E1
S11323D006171707B8F00530110508F49FC0A801C7
S11323E0445051094617570708F498C00250110980
S11323F0061B170B019311936D937C93CF010E94DD
S11324003E118CC05B01A01AB10A4E01800E911ED0
S1132410A091DE03B091DF03612C712C60E070E0C9
S1132420109709F449C0A815B905C9F5ED90FC90B9
S11324301197670142E0C40ED11CCA14DB0478F181
S113244047018A189B08640142E0C40ED11C12960D
S1132450BC9012971396AC91B5E0CB16D10440F022
S1132460B282A38391828082D9018D939C9309C007
S11324700E5F1F4F0E0D1F1DF90111830083EB2DFD
S1132480FA2F6115710531F0DB011396FC93EE937D
S1132490129744C0F093DF03E093DE033FC06D91D5
S11324A07C9111976616770608F43B01BD011296DC
S11324B00D90BC91A02DB4CF6091DC037091DD032D
S11324C068157905E9F468167906D0F4409100019D
S11324D0509101014115510541F44DB75EB760912A
S11324E0040170910501461B570BE417F507C0F46E
S11324F0F093DD03E093DC03F901918380830EC044
S11325000E94A6107C01009759F0A801BE010E9408
S11325109712CE010E943E11C70104C0CE0102C031
S113252080E090E0CDB7DEB7EEE00C94ED12FB0155
S1132530DC0102C001900D9241505040D8F708953B
S1132540FB01DC018D91019080190110D9F3990BE5
S11325500895FB01DC0101900D920020E1F708953C
S1132560FB01DC014150504030F08D910190801905
S113257019F40020B9F7881B990B0895FB01DC01BD
S11325804150504048F001900D920020C9F701C01D
S11325901D9241505040E0F708952F923F924F9280
S11325A05F926F927F928F929F92AF92BF92CF92DF
S11325B0DF92EF92FF920F931F93CF93DF93CDB7E8
S11325C0DEB7CA1BDB0B0FB6F894DEBF0FBECDBF60
S11325D009942A88398848885F846E847D848C8431
S11325E09B84AA84B984C884DF80EE80FD800C813A
S11325F01B81AA81B981CE0FD11D0FB6F894DEBF1D
S11326000FBECDBFED01089510E0C0ECD0E004C0D2
S1132610FE010E94A2102296C23CD107C9F7F89489
S1052620FFCFE6
S11326220000E0032000FF01000000000901BD02D8
S11326328B00A4009600E7000000000070020A0D5F
S113264200455252005645520D00455200426C75E7
S11326526574004F4B005254520057525400534574
S113266254200030303041003030323800303034C1
S1132672450030303945003030454200554152540E
S11326820043454E540047455420005253540052CF
S1132692450053434E204F4646005354530D0053B6
S11326A2545300534E44200053657269616C206890
S11326B2617320737461727465642E2E2E004D6FE3
S11326C264756C65207265736574206572726F72CD
S11326D221004D6F64756C6520726573746F726549
S11326E2206572726F7221004D6F64756C6520777C
S11326F27269746520636F6E666967206572726FB2
S11327027221005365636F6E64206D6F64756C652E
S1132712207265736574206572726F72210052654E
S11327227365742F526573746F72652F577269746F
S11327326520436F6E666967205041535345442EAA
S11327422E2E0052657365742F526573746F726511
S11327522F577269746520436F6E6669672046411C
S1132762494C45442031302054494D45532E205381
S1132772544F5020455845435554494F4E2E2E2E02
S11327820052657365742F526573746F72652F57A7
S11327927269746520436F6E66696720444F4E45C3
S11327A2210043434F4E0046415354004144565086
S11327B20041445654003030303030303030303004
S11327C230300041444452005243563D004C503193
S11327D2004E41562053415953204C454654005211
S11327E25032004E415620534159532052494748D2
S11327F254004C5033004E415620534159532053F8
S10F28025452414947485400425200001F
S9030000FC
