:100000000C9461000C94AA040C94D7040C948900FD
:100010000C9489000C9489000C9489000C944E0473
:100020000C9489000C9489000C9489000C9489002C
:100030000C9489000C9489000C9489000C9489001C
:100040000C9404050C9489000C94CA010C94FC01D6
:100050000C9489000C9489000C9489000C948900FC
:100060000C9489000C948900020000000800020131
:10007000000003040700000000000000000102046B
:10008000081020408001020408102001020408101A
:100090002004040404040404040202020202020311
:1000A000030303030300000000250028002B0000C9
:1000B000000000240027002A00002C02AA024E1093
:1000C000661011241FBECFEFD8E0DEBFCDBF13E016
:1000D000A0E0B1E0E0E8FAE202C005900D92A83994
:1000E000B107D9F724E0A8E9B3E001C01D92A43B11
:1000F000B207E1F710E0C0ECD0E004C02297FE01A7
:100100000E94D112CA3BD107C9F70E94440F0C9438
:1001100033150C940000FC01818D228D90E0805CF1
:100120009F4F821B91098F7399270895FC01918D30
:10013000828D981731F0828DE80FF11D858D90E04A
:1001400008958FEF9FEF0895FC01918D828D981790
:1001500061F0828DDF01A80FB11D5D968C91928DAB
:100160009F5F9F73928F90E008958FEF9FEF0895A8
:1001700082E292E0892B49F080E090E0892B29F01F
:100180000E94220281110C9400000895FC01848DCC
:10019000DF01A80FB11DA35ABF4F2C91848D90E0B1
:1001A00001968F739927848FA689B7892C93A0898C
:1001B000B1898C9180648C93938D848D981306C043
:1001C0000288F389E02D80818F7D80830895CF930D
:1001D000DF93EC01888D8823C9F0EA89FB8980814F
:1001E00085FD05C0A889B9898C9186FD0FC00FB621
:1001F00007FCF5CF808185FFF2CFA889B9898C9162
:1002000085FFEDCFCE010E94C600E7CFDF91CF91F1
:100210000895CF92DF92FF920F931F93CF93DF93B6
:100220001F92CDB7DEB76C01DC015B969C915B97AA
:100230005C968C915C97981307C05096ED91FC9159
:100240005197808185FD32C0F601038D10E00F5F6C
:100250001F4F0F731127F02EF601848DF81211C075
:100260000FB607FCF9CFD6015096ED91FC9151974E
:10027000808185FFF1CFC60169830E94C600698134
:10028000EBCF838DE80FF11DE35AFF4F6083D6015A
:100290005B960C935B975296ED91FC9153978081FE
:1002A0008062808381E058968C930DC0D60156966B
:1002B000ED91FC91579760835096ED91FC91519789
:1002C00080818064808381E090E00F90DF91CF9106
:1002D0001F910F91FF90DF90CF900895BF92CF9222
:1002E000DF92EF92FF92CF93DF93EC016A017B01E3
:1002F000B22E60E874E88EE190E0A70196010E94BA
:10030000AD1221503109410951095695479537954C
:100310002795E889F98982E08083211580E13807F3
:1003200098F0E889F989108260E472E48FE090E047
:10033000A70196010E94AD122150310941095109CE
:100340005695479537952795EC85FD853083EE8545
:10035000FF852083188EEC89FD89B082EA89FB89AC
:10036000808180618083EA89FB89808188608083C5
:10037000EA89FB89808180688083EA89FB898081A2
:100380008F7D8083DF91CF91FF90EF90DF90CF90B2
:10039000BF9008951F920F920FB60F9211242F93C2
:1003A0008F939F93EF93FF93E091A803F091A9039C
:1003B0008081E091AE03F091AF0382FD12C0908185
:1003C0008091B1038F5F8F732091B203821751F038
:1003D000E091B103F0E0E856FC4F958F8093B103B4
:1003E00001C08081FF91EF919F918F912F910F908C
:1003F0000FBE0F901F9018951F920F920FB60F927D
:1004000011242F933F934F935F936F937F938F9319
:100410009F93AF93BF93EF93FF9388E993E00E947C
:10042000C600FF91EF91BF91AF919F918F917F9106
:100430006F915F914F913F912F910F900FBE0F9051
:100440001F90189588E993E00E948B0021E0892B8A
:1004500009F420E0822F089510929B0310929A03D2
:1004600088EE93E0A0E0B0E080939C0390939D031E
:10047000A0939E03B0939F038CE091E09093990327
:100480008093980385EC90E09093A5038093A40358
:1004900084EC90E09093A7038093A60380EC90E017
:1004A0009093A9038093A80381EC90E09093AB0311
:1004B0008093AA0382EC90E09093AD038093AC0309
:1004C00086EC90E09093AF038093AE031092B1035B
:1004D0001092B2031092B3031092B40308950895DA
:1004E000AF92BF92CF92DF92EF92FF920F931F9342
:1004F000CF93DF936C017B01C0E0D0E000E010E01F
:10050000F601EC0FFD1F4AE050E06281C7010E9436
:1005100012045C016EE2C7010E940B038A0D9B1D51
:10052000080F191F2196C330D10551F74AE050E05A
:10053000F6016581C7010E941204800F911FDF91AF
:10054000CF911F910F91FF90EF90DF90CF90BF90D0
:10055000AF9008958CE191E0909336048093350438
:1005600010923704109238041092390410923A0411
:1005700008950C94D5120C946D13CF92DF92EF92E4
:10058000FF920F931F93CF93DF936C017A01EB01DE
:10059000E60EF71E00E010E0CE15DF0561F0699170
:1005A000D601ED91FC910190F081E02DC6010995F5
:1005B000080F191FF1CFC801DF91CF911F910F9143
:1005C000FF90EF90DF90CF9008956115710581F055
:1005D000DB010D900020E9F7AD0141505109461BA8
:1005E000570BDC01ED91FC910280F381E02D099421
:1005F00080E090E00895DC01ED91FC91DB01149620
:100600004D915C9115976D917C910280F381E02D65
:1006100009940C94E502DC01ED91FC910190F081CC
:10062000E02D09940F931F93CF93DF93EC016DE0BE
:100630000E940B038C016AE0CE010E940B03800F25
:10064000911FDF91CF911F910F9108950F931F93E9
:10065000CF93DF93EC010E94FB028C01CE010E943C
:100660001203800F911FDF91CF911F910F91089579
:100670000F931F93CF93DF93EC010E94E5028C014F
:10068000CE010E941203800F911FDF91CF911F9125
:100690000F9108958F929F92AF92BF92CF92DF9267
:1006A000EF92FF920F931F93CF93DF93CDB7DEB7F7
:1006B000A1970FB6F894DEBF0FBECDBF7C01C42E4C
:1006C000E52FCB01D22E19A221E02D1510F02AE042
:1006D000D22E8E010F5D1F4F8D2C912CA12CB12C91
:1006E0006C2D7E2FA50194010E94AD128C2DD29EFF
:1006F00080191124015011098A3010F4805D01C065
:10070000895CF8018083211531054105510521F0EF
:10071000C22EE32FCA01E4CFB801C7010E94E5024F
:10072000A1960FB6F894DEBF0FBECDBFDF91CF917B
:100730001F910F91FF90EF90DF90CF90BF90AF90FF
:100740009F908F900895CF92DF92EF92FF920F9338
:100750001F93CF93DF93EC016A017B0121153105D3
:1007600079F4E881F9810190F081E02D642FDF9127
:10077000CF911F910F91FF90EF90DF90CF90099450
:100780002A303105E9F477FF1AC06DE20E940B03AD
:100790008C0144275527BA014C195D096E097F0960
:1007A0002AE0CE010E944A03800F911FDF91CF9172
:1007B0001F910F91FF90EF90DF90CF9008952AE066
:1007C000B701A601CE01DF91CF911F910F91FF904C
:1007D000EF90DF90CF900C944A030F931F93CF9329
:1007E000DF93EC019A01AB01662757FD6095762FE8
:1007F0000E94A3038C01CE010E941203800F911F5F
:10080000DF91CF911F910F9108952115310541F48A
:10081000DC01ED91FC910190F081E02D642F0994B1
:100820000C944A039A01462F50E060E070E00C946B
:100830000504813039F018F0823051F0089510929B
:100840006E00089580916F008D7F80936F000895F2
:10085000809170008D7F8093700081E08093B00064
:100860008091B100887F84608093B1001092B300C2
:100870000895CF93C82F809106018C1307C0E8E636
:10088000F0E084919FEF9093060101C08FEF0E94EA
:10089000190460E08C2FCF910C945F061F920F9289
:1008A0000FB60F9211242F933F934F935F936F9343
:1008B0007F938F939F93AF93BF93EF93FF93809119
:1008C0003E0490913F04A0914004B0914104892BD3
:1008D0008A2B8B2B51F190913B04E0913C04F091D9
:1008E0003D0480818927808380913E0490913F045C
:1008F000A0914004B0914104181619061A061B066F
:10090000C4F480913E0490913F04A0914004B091C2
:1009100041040197A109B10980933E0490933F04DB
:10092000A0934004B093410404C0809106010E944A
:100930003904FF91EF91BF91AF919F918F917F917A
:100940006F915F914F913F912F910F900FBE0F903C
:100950001F9018951F920F920FB60F9211242F938C
:100960003F934F935F936F937F938F939F93AF9337
:10097000BF93EF93FF938091420490914304892B9E
:1009800029F0E0914204F09143040995FF91EF9121
:10099000BF91AF919F918F917F916F915F914F9197
:1009A0003F912F910F900FBE0F901F9018951F929F
:1009B0000F920FB60F9211242F933F934F935F9393
:1009C0006F937F938F939F93AF93BF93EF93FF9317
:1009D0008091440490914504892B29F0E0914404CE
:1009E000F09145040995FF91EF91BF91AF919F91CF
:1009F0008F917F916F915F914F913F912F910F90C8
:100A00000FBE0F901F9018951F920F920FB60F9266
:100A100011242F933F938F939F93AF93BF93809114
:100A2000470490914804A0914904B0914A04309140
:100A3000460426E0230F2D3720F40296A11DB11D98
:100A400005C029E8230F0396A11DB11D209346047C
:100A50008093470490934804A0934904B0934A04B8
:100A600080914B0490914C04A0914D04B0914E04A0
:100A70000196A11DB11D80934B0490934C04A0934B
:100A80004D04B0934E04BF91AF919F918F913F91D0
:100A90002F910F900FBE0F901F9018952FB7F894BD
:100AA00060914704709148048091490490914A04F0
:100AB0002FBF08953FB7F89480914B0490914C0458
:100AC000A0914D04B0914E0426B5A89B05C02F3FC0
:100AD00019F00196A11DB11D3FBF6627782F892F00
:100AE0009A2F620F711D811D911D43E0660F771FC4
:100AF000881F991F4A95D1F70895CF92DF92EF9200
:100B0000FF92CF93DF936B017C010E945A05EB01AA
:100B1000C114D104E104F10489F00E946F020E9423
:100B20005A056C1B7D0B683E734090F381E0C81A38
:100B3000D108E108F108C851DC4FEACFDF91CF912D
:100B4000FF90EF90DF90CF900895789484B5826005
:100B500084BD84B5816084BD85B5826085BD85B561
:100B6000816085BDEEE6F0E0808181608083E1E810
:100B7000F0E0108280818260808380818160808348
:100B8000E0E8F0E0808181608083E1EBF0E080814B
:100B900084608083E0EBF0E0808181608083EAE71D
:100BA000F0E08081846080838081826080838081A6
:100BB000816080838081806880831092C100089565
:100BC0008E3008F08E5087702091070190E4299FA5
:100BD00090011124822B80937C0080917A008064A4
:100BE00080937A0080917A0086FDFCCF8091780016
:100BF0002091790090E0922B0895833081F028F4C1
:100C0000813099F08230A1F008958730A9F08830C2
:100C1000B9F08430D1F4809180008F7D03C0809141
:100C200080008F7780938000089584B58F7702C00D
:100C300084B58F7D84BD08958091B0008F7703C007
:100C40008091B0008F7D8093B0000895CF93DF93A3
:100C500090E0FC01E358FF4F2491FC01EF56FF4F59
:100C60008491882349F190E0880F991FFC01E15598
:100C7000FF4FA591B4918B559F4FFC01C591D49125
:100C80009FB7611108C0F8948C91209582238C93B2
:100C9000888182230AC0623051F4F8948C91322FFB
:100CA000309583238C938881822B888304C0F894A9
:100CB0008C91822B8C939FBFDF91CF9108950F93DE
:100CC0001F93CF93DF931F92CDB7DEB7282F30E06D
:100CD000F901E759FF4F8491F901E358FF4F14914F
:100CE000F901EF56FF4F04910023C9F0882321F04A
:100CF00069830E94FD056981E02FF0E0EE0FFF1F80
:100D0000EB55FF4FA591B4919FB7F8948C91611169
:100D100003C01095812301C0812B8C939FBF0F903E
:100D2000DF91CF911F910F910895FC0180819181F6
:100D30000C946D13CF93DF93EC0188819981009718
:100D400011F00E946D13198218821D821C821B8271
:100D50001A82DF91CF9108950F931F93CF93DF9362
:100D6000EC018B016F5F7F4F888199810E94FC139A
:100D7000009731F0998388831B830A8381E001C047
:100D800080E0DF91CF911F910F910895CF93DF9372
:100D9000EC0188819981892B29F08A819B818617B2
:100DA000970760F4CE010E94AC06882341F08C8145
:100DB0009D81892B19F4E881F981108281E0DF910E
:100DC000CF910895EF92FF920F931F93CF93DF93EC
:100DD000EC017B018A01BA010E94C606811104C0A0
:100DE000CE010E949A0607C01D830C83B70188813B
:100DF00099810E94D814CE01DF91CF911F910F915C
:100E0000FF90EF900895FC011182108213821282EC
:100E1000158214826115710559F0FB0101900020C3
:100E2000E9F7AF0141505109461B570B0C94E206FC
:100E30000895CF93DF93EC01FB018617970761F0CC
:100E4000608171816115710529F0448155810E948D
:100E5000E20602C00E949A06CE01DF91CF9108956A
:100E6000FC011182108213821282158214820C946A
:100E70001907CF93DF93EC016115710561F0FB0158
:100E800001900020E9F7AF0141505109461B570B73
:100E90000E94E20602C00E949A06CE01DF91CF9125
:100EA0000895EF92FF920F931F93CF93DF93EC017E
:100EB0007B010C811D816115710511F480E016C064
:100EC0004115510591F0040F151FB8010E94C60687
:100ED0008823A1F3288139818C819D81B701820FFC
:100EE000931F0E94D8141D830C8381E0DF91CF9162
:100EF0001F910F91FF90EF900895FB014481558160
:100F0000608171810C9451076115710559F0FB01E5
:100F100001900020E9F7AF0141505109461B570BE2
:100F20000C94510780E00895CF93DF9300D0CDB7A4
:100F3000DEB769831A8241E050E0BE016F5F7F4FE8
:100F40000E9451070F900F90DF91CF910895CF939A
:100F5000DF93EC01FB0144815581608171810E9426
:100F60005107811103C0CE010E949A06CE01DF9184
:100F7000CF910895CF93DF93EC016115710569F06E
:100F8000FB0101900020E9F7AF0141505109461BD8
:100F9000570B0E945107811103C0CE010E949A068F
:100FA000CE01DF91CF910895CF93DF93DC01ED91D6
:100FB000FC91EB01A881B981309711F01097C9F429
:100FC000109759F0EB012C813D81232B31F08C914E
:100FD00090E091958195910914C0309781F0DC01E2
:100FE00014968D919C911597892B49F0808190E002
:100FF00008C0BD01CF01DF91CF910C94CF1480E0E8
:1010000090E0DF91CF910895FC0144815581FB016F
:10101000248135814217530741F40E94D40721E00F
:10102000892B09F020E0822F089580E00895FC01CB
:1010300024813581232B31F421E061157105A1F064
:10104000FB0108C0FC01808191816115710531F4BB
:1010500021E0FC018081882339F005C00E94CF1473
:1010600021E0892B09F020E0822F0895FA01DB01AD
:1010700014964D915C911597DC0114962D913C913D
:101080001597241B350B2E173F0788F08D919C91E7
:10109000009769F0DB016D917C916115710539F064
:1010A0008E0F9F1F0E94DF1421E0892B09F020E0A2
:1010B000822F0895FC0144815581FB0124813581F3
:1010C0004217530720F040E050E00C94360880E0CF
:1010D0000895FC0184819581DB0114964D915C910A
:1010E00015978417950798F02081318121153105D6
:1010F00071F06D917C916115710549F0841B950B20
:10110000820F931F0E94CF1421E0892B09F020E069
:10111000822F0895FC01248135816217730748F4FA
:1011200080819181009729F0FC01E60FF71F8081F3
:10113000089580E008950C948A080F931F93CF932D
:10114000DF93EB0141155105E9F02097D9F0FC013F
:101150006481758126173707A0F4621B730B8A011F
:10116000015011096017710708F48B01FC016081BF
:101170007181620F731FA801CE010E94ED14C00F90
:10118000D11F1882DF91CF911F910F910895BF92C7
:10119000CF92DF92EF92FF920F931F93CF93DF9343
:1011A0006C017B01EA0189012417350720F48D2F9A
:1011B000E901042F182F60E271E0C6010E940307C5
:1011C000D70114968D919C911597C817D907C8F42B
:1011D0008017910708F48C01D701ED91FC911197CC
:1011E000E00FF11FB08010826D917C916C0F7D1F1C
:1011F000C6010E943907D701ED91FC91E00FF11F64
:10120000B082C601DF91CF911F910F91FF90EF90B7
:10121000DF90CF90BF900895CF93DF93EC01CB0187
:101220002C813D816217730710F541155105F9F0C6
:10123000B901681B790B4617570708F4BA01E88112
:10124000F981261B370B3D832C83A901481B590BC1
:10125000680F791F6E0F7F1F8E0F9F1F0E94ED1466
:10126000E881F9818C819D81E80FF91F1082DF915F
:10127000CF9108954FEF5FEF0C940C09CF92DF925E
:10128000EF92FF920F931F93CF93DF93EC017B01BB
:101290008C010E5F1F4F6C0180E2C80ED11C60E212
:1012A00071E0C8010E9403070A5F1F4F0C151D055E
:1012B000B1F7FAA2E9A218A2DF91CF911F910F9185
:1012C000FF90EF90DF90CF9008958F929F92AF9212
:1012D000BF92CF92DF92EF92FF920F931F93CF9323
:1012E000DF93CDB7DEB762970FB6F894DEBF0FBEBF
:1012F000CDBF8C016EE171E0CE010D960E94030717
:1013000060E271E0CE0107960E9403076FE171E091
:10131000D80191968D919C9192970E940903F801B2
:1013200081A192A1DC01ED91FC910284F385E02D75
:1013300009950E944E056B017C01BE01635F7F4FE2
:10134000CE0107960E946908813089F1F80181A1D8
:1013500092A1DC01ED91FC910480F581E02D0995CD
:10136000181619069CF4F80181A192A1DC01ED91F7
:10137000FC910680F781E02D0995682FCE01079634
:101380000E9494070E944E056B017C010E944E054D
:1013900046015701B8EE8B0EB3E09B1EA11CB11C99
:1013A00086169706A806B90640F61EEF12C061E23F
:1013B00071E0CE0101960E940307BE016F5F7F4F6F
:1013C000CE0107960E945A08CE0101960E9495060A
:1013D00011E0CE0107960E949506CE010D960E945F
:1013E0009506812F62960FB6F894DEBF0FBECDBF73
:1013F000DF91CF911F910F91FF90EF90DF90CF90F1
:10140000BF90AF909F908F900895BF92CF92DF9240
:10141000EF92FF920F931F93CF93DF93CDB7DEB779
:1014200062970FB6F894DEBF0FBECDBF8C017B0173
:1014300060E271E0CE010D960E9403076EE171E05B
:10144000CE0107960E940307C8010E946509B701F3
:10145000D80191968D919C9192970E94FB026FE129
:1014600071E0F80181A192A10E940903D80191962F
:101470008D919C919297DC01ED91FC910284F38512
:10148000E02D09950E944E056B017C01B8EBCB0E57
:10149000BBE0DB1EE11CF11C0E944E056C157D05B6
:1014A0008E059F0508F054C0F80181A192A1DC01CE
:1014B000ED91FC910480F581E02D0995181619062F
:1014C0007CF4F80181A192A1DC01ED91FC910680F0
:1014D000F781E02D0995682FCE010D960E949407A3
:1014E000BE01695F7F4FCE010D960E946908882377
:1014F00099F26AE271E0CE0101960E940307BE01F3
:101500006F5F7F4FCE010D960E945A08B82ECE0114
:1015100001960E949506B1101DC063E371E0CE01F3
:1015200001960E940307BE016F5F7F4FCE010D96AB
:101530000E945A08B82ECE0101960E949506B1105D
:101540000BC060E271E0CE010D960E943907A4CF76
:101550001EEF03C01FEF01C011E0CE0107960E94ED
:101560009506CE010D960E949506812F62960FB6C4
:10157000F894DEBF0FBECDBFDF91CF911F910F91C9
:10158000FF90EF90DF90CF90BF9008950F931F933F
:10159000CF93DF9300D000D000D0CDB7DEB78C0161
:1015A00066E371E0CE0101960E940307BE016F5F02
:1015B0007F4FC8010E94050A182FCE0101960E9494
:1015C0009506812F26960FB6F894DEBF0FBECDBFCD
:1015D000DF91CF911F910F9108950F931F93CF9398
:1015E000DF9300D000D000D0CDB7DEB78C016AE326
:1015F00071E0CE0101960E940307BE016F5F7F4F2D
:10160000C8010E94050A182FCE0101960E94950676
:10161000812F26960FB6F894DEBF0FBECDBFDF91A7
:10162000CF911F910F910895BF92CF92DF92EF92C9
:10163000FF920F931F93CF93DF93CDB7DEB76297DF
:101640000FB6F894DEBF0FBECDBF8C0160E271E033
:10165000CE010D960E9403076EE171E0CE01079660
:101660000E940307C8010E9465096BE671E0D8017A
:1016700091968D919C9192970E9409036FE171E080
:10168000F80181A192A10E940903D80191968D9140
:101690009C919297DC01ED91FC910284F385E02D01
:1016A00009950E944E056B017C01B0E7CB0EB7E1B6
:1016B000DB1EE11CF11C0E944E056C157D058E059C
:1016C0009F0508F083C0F80181A192A1DC01ED9192
:1016D000FC910480F581E02D0995181619067CF41B
:1016E000F80181A192A1DC01ED91FC910680F781C6
:1016F000E02D0995682FCE010D960E949407BE013A
:10170000695F7F4FCE010D960E946908882399F288
:101710006AE271E0CE0101960E940307BE016F5F8D
:101720007F4FCE010D960E945A08B82ECE01019629
:101730000E949506B1104CC06FE671E0CE01019693
:101740000E940307BE016F5F7F4FCE010D960E947E
:101750005A08B82ECE0101960E949506BB2079F159
:1017600062E771E0CE0101960E940307BE016F5F40
:101770007F4FC8010E94050ACE0101960E9495067E
:1017800064EF71E080E090E00E947D05F80181A1A6
:1017900092A1DC01ED91FC910480F581E02D099589
:1017A000892B59F0F80181A192A1DC01ED91FC9106
:1017B0000680F781E02D0995E9CF11E00AC060E2CB
:1017C00071E0CE010D960E94390775CF1EEF01C062
:1017D0001FEFCE0107960E949506CE010D960E943E
:1017E0009506812F62960FB6F894DEBF0FBECDBF6F
:1017F000DF91CF911F910F91FF90EF90DF90CF90ED
:10180000BF9008958F929F92AF92BF92CF92DF9236
:10181000EF92FF920F931F93CF93DF93CDB7DEB775
:1018200062970FB6F894DEBF0FBECDBF8C015B018F
:1018300060E271E0CE010D960E9403076EE171E057
:10184000CE0107960E940307C8010E9465096AE756
:1018500071E0D80191968D919C9192970E94090315
:10186000F80181A192A1DC01ED91FC910284F38544
:10187000E02D09950E944E056B017C01B8EBCB0E63
:10188000BBE0DB1EE11CF11C992493940E944E05E1
:101890006C157D058E059F0508F075C0F80181A1C6
:1018A00092A1DC01ED91FC910480F581E02D099578
:1018B000181619067CF4F80181A192A1DC01ED91C2
:1018C000FC910680F781E02D0995682FCE010D96D9
:1018D0000E949407BE01695F7F4FCE010D960E9462
:1018E0006908882399F26AE271E0CE0101960E94AC
:1018F0000307BE016F5F7F4FCE010D960E945A080D
:10190000882ECE0101960E94950681103EC063E3A9
:1019100071E0CE0101960E940307BE016F5F7F4F09
:10192000CE010D960E945A08882ECE0101960E9483
:10193000950681102CC06FE771E0CE0101960E94E0
:101940000307BE016F5F7F4FCE010D960E945A08BC
:10195000882ECE0101960E949506882069F064E0E9
:1019600070E0CE010D960E949B08833419F4F501B6
:10197000908202C0D5011C9260E271E0CE010D960A
:101980000E94390783CF1EEF03C01FEF01C011E093
:10199000CE0107960E949506CE010D960E949506EF
:1019A000812F62960FB6F894DEBF0FBECDBFDF91D8
:1019B000CF911F910F91FF90EF90DF90CF90BF904C
:1019C000AF909F908F9008958F929F92AF92BF9209
:1019D000CF92DF92EF92FF920F931F93CF93DF93FB
:1019E000CDB7DEB763970FB6F894DEBF0FBECDBF9D
:1019F0008C017B01942E6EE171E0CE010D960E9468
:101A00000307BE016D5E7F4FC8010E94020C8B89E7
:101A1000882319F094E1C92E02C08DE7C82EB92C95
:101A2000AA24A394D12CD91408F04CC0BC1408F4F7
:101A3000CB2CBC1860E271E0CE0107960E94030730
:101A4000AC2CAD0CDA1469F0882483948D0CF7016A
:101A5000ED0DF11D6081CE0107960E949407D82CF0
:101A6000F1CF63E871E0CE0101960E940307BE0149
:101A7000695F7F4FCE0101960E94A7076FE171E079
:101A80000E94BA07BC01CE0107960E941907CE0139
:101A900001960E949506BE01695F7F4FCE010196B7
:101AA0000E943007BE016F5F7F4FC8010E94050A88
:101AB000A82ECE0101960E949506CE0107960E949F
:101AC0009506B1CFCE010D960E9495068A2D63969C
:101AD0000FB6F894DEBF0FBECDBFDF91CF911F913F
:101AE0000F91FF90EF90DF90CF90BF90AF909F90BD
:101AF0008F900895CF92DF92EF92FF920F931F93F2
:101B0000CF93DF936C017B01FB01C481D5812196CA
:101B1000CE010E94B9028C0120E030E0AE01BC0190
:101B2000C7010E949D084C2FB801C6010E94E40C19
:101B3000C82FC8010E94BB028C2FDF91CF911F914B
:101B40000F91FF90EF90DF90CF900895CF93C2E078
:101B500061E08C2F0E942606CF5FCC30C9F7C2E02F
:101B600061E08C2F0E945F0664E170E080E090E00D
:101B70000E947D0560E08C2F0E945F06CF5FCC3015
:101B800079F7CF9108950F931F9380918D04811160
:101B90002CC00E944E050091AC041091AD04209120
:101BA000AE043091AF04601B710B820B930B653F49
:101BB000714081059105C8F061E087E00E945F06F1
:101BC00061E083E00E945F0661E082E00E945F06C0
:101BD0000E944E056093AC047093AD048093AE04F4
:101BE0009093AF0481E080938D0480918D048823CD
:101BF00059F10E944E050091AC041091AD04209162
:101C0000AE043091AF04601B710B820B930B653FE8
:101C1000714081059105C0F060E087E00E945F0699
:101C200060E083E00E945F0660E082E00E945F0661
:101C30000E944E056093AC047093AD048093AE0493
:101C40009093AF0410928D041F910F9108950F93FC
:101C50001F9380918C0481112CC00E944E0500912D
:101C6000A4041091A5042091A6043091A704601B40
:101C7000710B820B930B653F714081059105C8F094
:101C800061E088E00E945F0661E08AE00E945F06F2
:101C900061E085E00E945F060E944E056093A40407
:101CA0007093A5048093A6049093A70481E0809389
:101CB0008C0480918C04882359F10E944E05009178
:101CC000A4041091A5042091A6043091A704601BE0
:101CD000710B820B930B653F714081059105C0F03C
:101CE00060E088E00E945F0660E08AE00E945F0694
:101CF00060E085E00E945F060E944E056093A404A8
:101D00007093A5048093A6049093A70410928C046A
:101D10001F910F9108950F931F9380918B04811150
:101D20002CC00E944E050091A8041091A904209196
:101D3000AA043091AB04601B710B820B930B653FBF
:101D4000714081059105C8F061E084E00E945F0662
:101D500061E089E00E945F0661E086E00E945F0624
:101D60000E944E056093A8047093A9048093AA046E
:101D70009093AB0481E080938B0480918B04882343
:101D800059F10E944E050091A8041091A9042091D8
:101D9000AA043091AB04601B710B820B930B653F5F
:101DA000714081059105C0F060E084E00E945F060B
:101DB00060E089E00E945F0660E086E00E945F06C6
:101DC0000E944E056093A8047093A9048093AA040E
:101DD0009093AB0410928B041F910F9108950F9371
:101DE0001F9380918A04811124C00E944E050091A6
:101DF000A0041091A1042091A2043091A304601BBF
:101E0000710B820B930B653F71408105910588F042
:101E100061E08BE00E945F060E944E056093A00483
:101E20007093A1048093A2049093A30481E0809313
:101E30008A0480918A04882319F10E944E0500913A
:101E4000A0041091A1042091A2043091A304601B6E
:101E5000710B820B930B653F71408105910580F0FA
:101E600060E08BE00E945F060E944E056093A00434
:101E70007093A1048093A2049093A30410928A0407
:101E80001F910F91089508950E94A5050E94430F88
:101E90000E94720FC8EBD0E00E9425122097E1F358
:101EA0000E94B800F9CFCF93DF9389E694E0892BA5
:101EB00071F48EE894E00E94950684E994E00E9413
:101EC00095068AE994E0DF91CF910C949506C7E8D6
:101ED000D4E02697CE010E94950684E0C936D80743
:101EE000C1F7E7CFFF920F931F93CF93DF930E9429
:101EF000A5050E94A60D26E040E855E260E070E0EE
:101F000088E993E00E946E0168E871E088E993E057
:101F10000E943803CAE0D0E0F12C00E010E087E630
:101F200094E00E94140B8130B1F487E694E00E94A3
:101F3000C60A8130C9F487E694E00E94ED0A813038
:101F4000C1F487E694E00E94140B813001F1FF2474
:101F5000F39401E014C0111107C06EE971E088E943
:101F600093E00E9438032AC0011104C062EB71E0C3
:101F700008C001E0F11003C068EC71E002C063EE3C
:101F800071E088E993E00E94380311E017C06EEF1A
:101F900071E088E993E00E94380361E672E088E925
:101FA00093E00E94380368EE73E080E090E0DF91F8
:101FB000CF911F910F91FF900C947D052197209751
:101FC00009F0ADCF63E272E088E993E00E94380344
:101FD000FFCF9F92AF92BF92CF92DF92EF92FF928C
:101FE0000F931F93CF93DF9300D000D000D0CDB7D5
:101FF000DEB77C016B01FB0104811581FC0184814A
:102000009581081B190B01501109AA24AA94BB241D
:10201000BA9401151105D1F0F70124813581200F03
:10202000311FA801B601CE0101960E94C708B70171
:10203000CE0101960E940408982ECE0101960E94BE
:1020400095069110580101501109E3CFC50126965C
:102050000FB6F894DEBF0FBECDBFDF91CF911F91B9
:102060000F91FF90EF90DF90CF90BF90AF909F9037
:10207000089580918D0481110E94C30D80918C047C
:1020800081110E94270E80918B0481110E948B0E7A
:1020900080918A0481110C94EF0E089560E271E042
:1020A0008AE994E00E94030760E271E084E994E029
:1020B0000E94030760E271E08EE894E00E9403074B
:1020C00068E973E087E694E00C943E090C94530FA2
:1020D0000F931F93CF93DF93CDB7DEB72C970FB637
:1020E000F894DEBF0FBECDBF88E993E00E948B005D
:1020F000181619060CF4F2C064E974E0CE010196DA
:102100000E94300768EA72E0CE0107960E9403073A
:10211000BE016F5F7F4FCE0107960E94E90F8C01D1
:10212000CE0107960E949506CE0101960E94950663
:102130000F3F8FEF180729F460E271E084E994E023
:10214000C0C044E050E0B80184E994E00E940C096A
:1021500064E974E0CE0101960E9430076EE171E0FF
:10216000CE0107960E940307BE016F5F7F4FCE012D
:1021700007960E94E90F8C01CE0107960E949506F2
:10218000CE0101960E949506B80184E994E00E9470
:102190003A0964E974E088E993E00E9426036DEA55
:1021A00072E084E994E00E9417088823B1F061EBA3
:1021B00072E088E993E00E94380381E080938D0407
:1021C00088E993E00E94E7006EEC72E08EE894E00C
:1021D0000E9484076AE173E03BC061ED72E084E92C
:1021E00094E00E9417088823B1F065ED72E088E959
:1021F00093E00E94380381E080938C0488E993E0A7
:102200000E94E7006EEC72E08EE894E00E94840782
:102210006EE173E01DC063EF72E084E994E00E9418
:102220001708882331F167EF72E088E993E00E9494
:10223000380381E080938B0488E993E00E94E700F3
:102240006EEC72E08EE894E00E94840762E273E034
:102250008EE894E00E9484076EE874E087E694E0DC
:102260000E947A0D60E271E08EE894E00E943907E6
:1022700018C068E173E084E994E00E9417088111B6
:102280005FC06CE173E084E994E00E94170881115B
:1022900057C060E273E084E994E00E94170881115E
:1022A0004FC064E974E08AE994E00E947D0760E22F
:1022B00071E084E994E00E94390760E271E08EE801
:1022C00094E00E9439072C960FB6F894DEBF0FBE3B
:1022D000CDBFDF91CF911F910F91089561E08BE009
:1022E0000E945F0688E993E00E94A400682F84E9B9
:1022F00094E00E94940760E08BE00E945F0664E92E
:1023000074E0CE0101960E9430076EE171E0CE01CB
:1023100007960E940307BE016F5F7F4FCE010796AD
:102320000E94E90F8C01CE0107960E949506CE010E
:1023300001960E9495060F3F1F4F09F0DDCED4CEC7
:1023400064E273E088E993E00E94380381E08093BF
:102350008A041092660410926504A3CF80E00E9464
:10236000E005909364048093630481E00E94E0059B
:10237000909362048093610482E00E94E005909350
:10238000600480935F046CE473E088E993E00E944A
:10239000380360916304709164044AE050E088E976
:1023A00093E00E94ED0360916104709162044AE041
:1023B00050E088E993E00E94ED0360915F04709122
:1023C00060044AE050E088E993E00E94ED038091C8
:1023D00063049091640483319240B4F1809161046C
:1023E00090916204833192407CF180915F049091DE
:1023F00060048331924044F18091650490916604B9
:10240000892B11F588E993E00E94E7006BE673E001
:102410008EE894E00E9484076AE173E08EE894E01D
:102420000E9484076EE874E087E694E00E947A0DCB
:1024300060E271E08EE894E00E94390781E090E06C
:10244000909366048093650408950F931F930E94F0
:102450004E0560934F047093500480935104909301
:10246000520400915B0410915C0420915D04309152
:102470005E040E5C1F4F2F4F3F4F061717072807AC
:10248000390790F46EE673E088E993E00E94380320
:102490000E9468100E944E0560935B0470935C0478
:1024A00080935D0490935E0480915704909158044A
:1024B000A0915904B0915A048C599F4FAF4FBF4F10
:1024C00040914F0450915004609151047091520416
:1024D00084179507A607B70790F46AE773E088E9C1
:1024E00093E00E9438030E94AE110E944E05609353
:1024F0005704709358048093590490935A04809120
:10250000530490915404A0915504B09156048853FB
:102510009F4FAF4FBF4F40914F0450915004609177
:1025200051047091520484179507A607B70790F4D9
:1025300069E873E088E993E00E9438030E9439104B
:102540000E944E0560935304709354048093550485
:10255000909356041F910F910895A1E21A2EAA1B81
:10256000BB1BFD010DC0AA1FBB1FEE1FFF1FA21743
:10257000B307E407F50720F0A21BB30BE40BF50B40
:10258000661F771F881F991F1A9469F760957095C9
:10259000809590959B01AC01BD01CF010895EE0F90
:1025A000FF1F0590F491E02D0994CF93DF938230C3
:1025B000910510F482E090E0E091B204F091B30450
:1025C00020E030E0A0E0B0E0309739F14081518167
:1025D00048175907B8F04817590771F48281938159
:1025E000109729F013969C938E9312972CC090937A
:1025F000B3048093B20427C02115310531F042178E
:10260000530718F0A901DB0101C0EF019A01BD01D8
:10261000DF010280F381E02DD7CF21153105F9F0DC
:10262000281B390B2430310580F48A819B81611588
:10263000710521F0FB019383828304C09093B3045E
:102640008093B204FE01329644C0FE01E20FF31FF4
:102650008193919322503109398328833AC0209184
:10266000B0043091B104232B41F420910201309148
:1026700003013093B1042093B00420910001309104
:1026800001012115310541F42DB73EB740910401F8
:1026900050910501241B350BE091B004F091B10479
:1026A000E217F307A0F42E1B3F0B2817390778F029
:1026B000AC014E5F5F4F2417350748F04E0F5F1F88
:1026C0005093B1044093B0048193919302C0E0E031
:1026D000F0E0CF01DF91CF910895CF93DF93009782
:1026E00009F487C0FC01329713821282C091B204B0
:1026F000D091B304209781F420813181280F391FB4
:102700008091B0049091B1048217930779F5F0930A
:10271000B104E093B0046DC0DE0120E030E0AE17FC
:10272000BF0750F412964D915C9113979D0141158E
:10273000510509F1DA01F3CFB383A28340815181BE
:10274000840F951F8A179B0771F48D919C911197A7
:10275000840F951F02969183808312968D919C9190
:102760001397938382832115310529F4F093B304E1
:10277000E093B2043EC0D9011396FC93EE931297F6
:102780004D915D91A40FB51FEA17FB0779F4808185
:102790009181840F951F0296D90111969C938E9377
:1027A0008281938113969C938E931297E0E0F0E0E0
:1027B0008A819B81009719F0FE01EC01F9CFCE01CF
:1027C000029628813981820F931F2091B0043091A5
:1027D000B1042817390769F4309729F41092B3042B
:1027E0001092B20402C013821282D093B104C0933B
:1027F000B004DF91CF910895A0E0B0E0E2E0F4E111
:102800000C940015EC01CB01209719F40E94D5120D
:10281000B8C0FE01E60FF71F9E0122503109E217F2
:10282000F30708F4ACC0D9010D911C91119706175C
:102830001707B8F00530110508F49FC0A8014450EF
:1028400051094617570708F498C002501109061B92
:10285000170B019311936D937C93CF010E946D131D
:102860008CC05B01A01AB10A4E01800E911EA0918E
:10287000B204B091B304612C712C60E070E0109749
:1028800009F449C0A815B905C9F5ED90FC90119758
:10289000670142E0C40ED11CCA14DB0478F1470181
:1028A0008A189B08640142E0C40ED11C1296BC90A9
:1028B00012971396AC91B5E0CB16D10440F0B282DA
:1028C000A38391828082D9018D939C9309C00E5F6E
:1028D0001F4F0E0D1F1DF90111830083EB2DFA2FE1
:1028E0006115710531F0DB011396FC93EE9312979D
:1028F00044C0F093B304E093B2043FC06D917C9167
:1029000011976616770608F43B01BD0112960D90EB
:10291000BC91A02DB4CF6091B0047091B104681542
:102920007905E9F468167906D0F4409100015091D8
:1029300001014115510541F44DB75EB760910401A5
:1029400070910501461B570BE417F507C0F4F0938F
:10295000B104E093B004F901918380830EC00E941A
:10296000D5127C01009759F0A801BE010E94C6143F
:10297000CE010E946D13C70104C0CE0102C080E0E9
:1029800090E0CDB7DEB7EEE00C941C15FB01DC0146
:1029900002C001900D9241505040D8F70895FB01BC
:1029A000DC018D91019080190110D9F3990B0895E4
:1029B000FB01DC0101900D920020E1F70895FB017D
:1029C000DC014150504030F08D910190801919F494
:1029D0000020B9F7881B990B0895FB01DC014150D9
:1029E000504048F001900D920020C9F701C01D929F
:1029F00041505040E0F708952F923F924F925F92DE
:102A00006F927F928F929F92AF92BF92CF92DF92FE
:102A1000EF92FF920F931F93CF93DF93CDB7DEB763
:102A2000CA1BDB0B0FB6F894DEBF0FBECDBF0994F7
:102A30002A88398848885F846E847D848C849B844E
:102A4000AA84B984C884DF80EE80FD800C811B815C
:102A5000AA81B981CE0FD11D0FB6F894DEBF0FBE8B
:102A6000CDBFED01089510E0C0ECD0E004C0FE0140
:102A70000E94D1122296C23CD107C9F7F894FFCF29
:102A80000000B4042000FF01000000000901BD02A5
:102A90008B00A4009600E7000000000070020A0D01
:102AA00000455252005645520D00455200426C7589
:102AB0006574004F4B005254520057525400534516
:102AC0005420003030304100303032380030303463
:102AD00045003030394500303045420055415254B0
:102AE0000043454E54004745542000525354005271
:102AF000450053434E204F4646005354530D005358
:102B0000545300534E44200053657269616C206831
:102B1000617320737461727465642E2E2E004D6F84
:102B200064756C65207265736574206572726F726E
:102B300021004D6F64756C6520726573746F7265EA
:102B4000206572726F7221004D6F64756C6520771D
:102B50007269746520636F6E666967206572726F53
:102B60007221005365636F6E64206D6F64756C65D0
:102B7000207265736574206572726F7221005265F0
:102B80007365742F526573746F72652F5772697411
:102B90006520436F6E666967205041535345442E4C
:102BA0002E2E0052657365742F526573746F7265B3
:102BB0002F577269746520436F6E666967204641BE
:102BC000494C45442031302054494D45532E205323
:102BD000544F5020455845435554494F4E2E2E2EA4
:102BE0000052657365742F526573746F72652F5749
:102BF0007269746520436F6E66696720444F4E4565
:102C0000210043434F4E0046415354004144565027
:102C100000414456540030303030303030303030A5
:102C200030300041444452005243563D004C503134
:102C300000544F204C45465420474C4F56453A20AF
:102C40004E41562053415953204C45465400504C58
:102C5000004C503200544F204C45465420474C4FB6
:102C600056453A204E415620534159532052494728
:102C70004854004C503300544F204C454654204794
:102C80004C4F56453A204E415620534159532053FC
:102C900054524149474854004C4231004C423200A2
:102CA0004C423300544F204C45465420474C4F561D
:102CB000453A204241434B5041434B204B4E4F57E6
:102CC0005320574841542753205550005269676894
:102CD0007420466C65782052656164696E672028AF
:102CE000542C20492C204D293A2000424C00536599
:102CF0007269616C2072756E7300466C6578207223
:102D00006561642072756E73004C454420626C6985
:082D10006E6B2072756E7300FA
:00000001FF
