:100000000C945C000C9456040C9483040C948400AF
:100010000C9484000C9484000C9484000C94FA03D7
:100020000C9484000C9484000C9484000C94840040
:100030000C9484000C9484000C9484000C94840030
:100040000C94B0040C9484000C94A3010C94DE0175
:100050000C9484000C9484000C9484000C94840010
:100060000C9484000C94840002000000080002013B
:10007000000003040700000000000000000102046B
:10008000081020408001020408102001020408101A
:100090002004040404040404040202020202020311
:1000A000030303030300000000250028002B0000C9
:1000B00004028E02B50ECE0E11241FBECFEFD8E083
:1000C000DEBFCDBF12E0A0E0B1E0E4E7F5E202C0A0
:1000D00005900D92AC3EB107D9F723E0ACEEB2E04B
:1000E00001C01D92A23EB207E1F710E0C6EBD0E0DE
:1000F00004C02297FE010E944B10C03BD107C9F7F4
:100100000E94ED0E0C94AD120C940000FC01818D48
:10011000228D90E0805C9F4F821B91098F739927FD
:100120000895FC01918D828D981731F0828DE80F32
:10013000F11D858D90E008958FEF9FEF0895FC01EC
:10014000918D828D981761F0828DDF01A80FB11D0E
:100150005D968C91928D9F5F9F73928F90E0089532
:100160008FEF9FEF0895FC01848DDF01A80FB11D73
:10017000A35ABF4F2C91848D90E001968F73907895
:10018000848FA689B7892C93A089B1898C918064CA
:100190008C93938D848D981306C00288F389E02D8B
:1001A00080818F7D80830895CF93DF93EC01888DCC
:1001B00081110BC01BC00FB607FC09C0808185FFF1
:1001C00006C00EC0CE010E94B300EA89FB8980817F
:1001D00085FDF1CFA889B9898C9186FFECCF06C047
:1001E000A889B9898C9185FFF2CFECCFDF91CF91AF
:1001F00008950F931F93CF93DF93EC01162F9B8DE0
:100200008C8D981324C0E889F989808185FD26C0EA
:100210001EC00FB607FC08C0E889F989808185FFF8
:1002200003C0CE010E94B3009C8D091791F38B8D02
:10023000FE01E80FF11DE35AFF4F10830B8FEA898F
:10024000FB8980818062808381E0888F0FC08B8DE5
:1002500090E001968F739078082FE6CFEE89FF89A2
:100260006083E889F98980818064808381E090E0FF
:10027000DF91CF911F910F910895CF92DF92EF926E
:10028000FF921F93CF93DF93EC016A017B01122F42
:10029000E889F98982E08083411581EE580761057C
:1002A0007105B1F060E079E08DE390E0A70196017F
:1002B0000E942710BA01A901415051096109710931
:1002C0007695679557954795411580E15807A8F0B1
:1002D000E889F989108260E874E88EE190E0A7016E
:1002E00096010E942710BA01A901415051096109E4
:1002F00071097695679557954795EC85FD855083EF
:10030000EE85FF854083188EEC89FD891083EA898C
:10031000FB89808180618083EA89FB898081886094
:100320008083EA89FB89808180688083EA89FB89F0
:1003300080818F7D8083DF91CF911F91FF90EF901F
:10034000DF90CF9008951F920F920FB60F92112455
:100350002F938F939F93AF93BF93EF93FF93E0916E
:10036000FC02F091FD02808182FD17C0E091020342
:10037000F09103032081809105038F5F8F7390912B
:100380000603891779F0E5E0F3E0A081B0E0A4511D
:10039000BD4F5D962C93808305C0E0910203F091E0
:1003A00003038081FF91EF91BF91AF919F918F9156
:1003B0002F910F900FBE0F901F9018951F920F92C4
:1003C0000FB60F9211242F933F934F935F936F9328
:1003D0007F938F939F93AF93BF93EF93FF938CEE95
:1003E00092E00E94B300FF91EF91BF91AF919F9176
:1003F0008F917F916F915F914F913F912F910F90CE
:100400000FBE0F901F9018951092EF021092EE02FF
:1004100088EE93E0A0E0B0E08093F0029093F102C8
:10042000A093F202B093F3028CE091E09093ED027E
:100430008093EC0285EC90E09093F9028093F802AF
:1004400084EC90E09093FB028093FA0280EC90E0C1
:100450009093FD028093FC0281EC90E09093FF0268
:100460008093FE0282EC90E090930103809300035E
:1004700086EC90E0909303038093020310920503AF
:10048000109206031092070310920803089508952E
:10049000AF92BF92CF92DF92EF92FF920F931F9392
:1004A000CF93DF935C017B01C0E0D0E000E010E07F
:1004B000F501EC0FFD1F4AE050E06281C7010E9488
:1004C000BC036C016EE2C7010E94F2028C0D9D1DFF
:1004D000080F191F2196C330D10551F74AE050E0AB
:1004E000F5016581C7010E94BC03800F911FDF9158
:1004F000CF911F910F91FF90EF90DF90CF90BF9021
:10050000AF9008950F93FC018CE191E0918380837B
:1005100062834383248305830F9108950F9300E042
:1005200020E040E060E089E893E00E9482020F91C1
:1005300008950E944F1008950E94E7100895CF92E9
:10054000DF92EF92FF920F931F93CF93DF936C0193
:1005500041155105B1F0062F172FEA01E12CF12CBE
:10056000D8016D918D01D601ED91FC910190F08142
:10057000E02DC6010995E80EF91E2197209781F715
:1005800002C0E12CF12CC701DF91CF911F910F9197
:10059000FF90EF90DF90CF900895DC01ED91FC91FA
:1005A000DB0114964D915C9115976D917C910280C1
:1005B000F381E02D099508956115710581F0FB0126
:1005C00001900020E9F73197AF01461B570BDC0182
:1005D000ED91FC910280F381E02D0995089580E072
:1005E00090E00895DC01ED91FC910190F081E02D07
:1005F000099508950F931F93CF93DF93EC016DE05E
:100600000E94F2028C016AE0CE010E94F202800F89
:10061000911FDF91CF911F910F9108950F931F9319
:10062000CF93DF93EC010E94CD028C01CE010E949A
:10063000FA02800F911FDF91CF911F910F910895C2
:100640000F931F93CF93DF93EC010E94DC028C0188
:10065000CE010E94FA02800F911FDF91CF911F916E
:100660000F9108956F927F928F929F92AF92BF9257
:10067000CF92DF92EF92FF920F931F93CF93DF936E
:10068000CDB7DEB7A1970FB6F894DEBF0FBECDBFD2
:100690006C01742E352F862F972F622E19A221E020
:1006A000261520F00F2EFAE06F2EF02D7E01A1E22C
:1006B000EA0EF11C862C912CA12CB12C672D732FE6
:1006C000A50194010E942710E22F732F022F132FF0
:1006D000242F352FF72D6E9EF0191124B1E0EB1A5F
:1006E000F108FA3010F4F05D01C0F95CD701FC9319
:1006F000012B022B032B29F07E2E372F842F952FD1
:10070000DDCFE114F10491F0F70101900020E9F749
:100710003197AF014E195F09D601ED91FC9102802E
:10072000F381E02DB701C601099502C080E090E099
:10073000A1960FB6F894DEBF0FBECDBFDF91CF916B
:100740001F910F91FF90EF90DF90CF90BF90AF90EF
:100750009F908F907F906F9008952115310549F4F7
:10076000DC01ED91FC910190F081E02D642F099561
:1007700008950E94320308959A01462F50E060E0E8
:1007800070E00E94AD030895813039F018F0823096
:1007900051F0089510926E000895EFE6F0E0808128
:1007A0008D7F80830895E0E7F0E080818D7F8083F6
:1007B00081E08093B000E1EBF0E08081887F84608D
:1007C00080831092B3000895CF93C82F80910601C3
:1007D0008C1307C0E8E6F0E084919FEF9093060148
:1007E00001C08FEF0E94C40360E08C2F0E94A3051C
:1007F000CF9108951F920F920FB60F9211242F934D
:100800003F934F935F936F937F938F939F93AF9398
:10081000BF93EF93FF938091920390919303A091E4
:100820009403B0919503892B8A2B8B2B51F18091E6
:100830008F03E0919003F091910390818927808349
:100840008091920390919303A0919403B0919503AA
:10085000181619061A061B06C4F48091920390918B
:100860009303A0919403B09195030197A109B10955
:100870008093920390939303A0939403B093950372
:1008800004C0809106010E94E403FF91EF91BF91A3
:10089000AF919F918F917F916F915F914F913F9118
:1008A0002F910F900FBE0F901F9018951F920F92CF
:1008B0000FB60F9211242F933F934F935F936F9333
:1008C0007F938F939F93AF93BF93EF93FF93809109
:1008D000960390919703892B29F0E0919603F0916C
:1008E00097030995FF91EF91BF91AF919F918F91E0
:1008F0007F916F915F914F913F912F910F900FBE1C
:100900000F901F9018951F920F920FB60F921124FF
:100910002F933F934F935F936F937F938F939F9307
:10092000AF93BF93EF93FF938091980390919903B6
:10093000892B29F0E0919803F09199030995FF9193
:10094000EF91BF91AF919F918F917F916F915F9147
:100950004F913F912F910F900FBE0F901F901895C0
:100960001F920F920FB60F9211242F933F938F93E4
:100970009F93AF93BF9380919B0390919C03A09111
:100980009D03B0919E0330919A0323E0230F2D37EE
:1009900020F40196A11DB11D05C026E8230F029683
:1009A000A11DB11D20939A0380939B0390939C03F8
:1009B000A0939D03B0939E0380919F039091A00309
:1009C000A091A103B091A2030196A11DB11D809336
:1009D0009F039093A003A093A103B093A203BF91A0
:1009E000AF919F918F913F912F910F900FBE0F90DC
:1009F0001F9018952FB7F89460919B0370919C03FA
:100A000080919D0390919E032FBF08953FB7F89466
:100A100080919F039091A003A091A103B091A203A4
:100A200026B5A89B05C02F3F19F00196A11DB11D49
:100A30003FBFBA2FA92F982F8827820F911DA11D84
:100A4000B11DBC01CD01660F771F881F991F660F6E
:100A5000771F881F991F0895CF92DF92EF92FF9220
:100A6000CF93DF936B017C010E940605EB01C1145B
:100A7000D104E104F104A9F00E9447020E94060596
:100A80006C1B7D0B683E734038F081E0C81AD108BA
:100A9000E108F108C851DC4FC114D104E104F104AC
:100AA00059F7DF91CF91FF90EF90DF90CF900895AD
:100AB0008E3008F08E5087702091070190E4299FB6
:100AC00090011124282B20937C00EAE7F0E080813C
:100AD00080648083808186FDFDCF809178002091A5
:100AE000790090E0922B0895833069F028F48130EA
:100AF000B1F08230C1F008958730C9F08830E9F054
:100B0000843001F506C0E0E8F0E080818F778083D3
:100B10000895E0E8F0E080818F7D8083089584B5BA
:100B20008F7784BD089584B58F7D84BD0895E0EBF3
:100B3000F0E080818F7780830895E0EBF0E08081A2
:100B40008F7D808308951F93CF93DF93C62F282F27
:100B500030E0F901E759FF4F8491F901E358FF4F65
:100B60001491F901EF56FF4FD491DD23C9F08111A3
:100B70000E9474052D2F30E0F901EE0FFF1FEB5599
:100B8000FF4FA591B4918FB7F894C11105C0EC91B6
:100B900010951E231C9303C0EC911E2B1C938FBF3A
:100BA000DF91CF911F910895FC01808191810E9476
:100BB000E7100895CF93DF93EC0188819981009726
:100BC00011F00E94E710198218821D821C821B827C
:100BD0001A82DF91CF9108950F931F93CF93DF93E4
:100BE000EC018B016F5F7F4F888199810E947611A4
:100BF000009731F0998388831B830A8381E001C0C9
:100C000080E0DF91CF911F910F910895CF93DF93F3
:100C1000EC0188819981892B29F08A819B81861733
:100C2000970770F4CE010E94EC05882361F08C8157
:100C30009D81892B39F4E881F981108281E003C01C
:100C400081E001C081E0DF91CF910895EF92FF92A2
:100C50000F931F93CF93DF93EC017B018A01BA01BD
:100C60000E940606811104C0CE010E94DA0507C069
:100C70001D830C83B701888199810E945212CE0195
:100C8000DF91CF911F910F91FF90EF900895FC019C
:100C900011821082138212821582148261157105ED
:100CA00051F0FB0101900020E9F73197AF01461B9D
:100CB000570B0E9426060895CF93DF93EC01FB01AA
:100CC0008617970761F0608171816115710529F0C0
:100CD000448155810E94260602C00E94DA05CE0199
:100CE000DF91CF910895FC0111821082138212824C
:100CF000158214820E945C060895CF93DF93EC0165
:100D00006115710559F0FB0101900020E9F7319759
:100D1000AF01461B570B0E94260602C00E94DA054F
:100D2000CE01DF91CF910895EF92FF920F931F9321
:100D3000CF93DF93EC018B016C817D81011511054F
:100D4000C1F041155105B9F07A01E60EF71EB70161
:100D50000E940606882381F0288139818C819D813B
:100D6000B801820F931F0E945212FD82EC8281E033
:100D700003C080E001C081E0DF91CF911F910F910E
:100D8000FF90EF900895FB0144815581608171814E
:100D90000E94940608956115710559F0FB010190B8
:100DA0000020E9F73197AF01461B570B0E949406CC
:100DB000089580E00895CF93DF9300D0CDB7DEB7DC
:100DC00069831A8241E050E0BE016F5F7F4F0E944D
:100DD00094060F900F90DF91CF910895CF93DF93FA
:100DE000EC01FB0144815581608171810E94940670
:100DF000811103C0CE010E94DA05CE01DF91CF91AF
:100E00000895CF93DF93EC016115710561F0FB014B
:100E100001900020E9F73197AF01461B570B0E9464
:100E20009406811103C0CE010E94DA05CE01DF9144
:100E3000CF910895DC01ED91FC91309739F0DB0101
:100E40006D917C9161157105E9F412C0DB01ED91A2
:100E5000FC9111973097D1F014968D919C91159734
:100E6000892BB9F0808190E0919581959109089541
:100E7000DC0114968D919C911597892B69F08081E6
:100E800090E00895CF010E944912089580E090E01B
:100E9000089580E090E0089580E090E00895FC01DE
:100EA00044815581FB01248135814217530741F468
:100EB0000E941A0721E0892B09F020E0822F089573
:100EC00080E00895DC0114962D913C911597232B19
:100ED00061F46115710539F021E0FB0180818823FF
:100EE000C9F020E017C021E015C06115710549F473
:100EF000DC01ED91FC9121E08081882359F020E014
:100F000009C0FC01808191810E94491221E0892B56
:100F100009F020E0822F0895FC01CA01DB0114963C
:100F20004D915C91159724813581241B350B281731
:100F3000390798F0208131812115310581F06D91BB
:100F40007C916115710569F0820F931F0E945912FF
:100F500021E0892B39F020E005C020E003C020E02B
:100F600001C020E0822F0895FC0144815581FB01DE
:100F7000248135814217530728F040E050E00E9459
:100F80008C07089580E00895FC0144815581FB01A0
:100F90002481358142175307B0F0FC018081918193
:100FA000009799F0FB01608171816115710579F0FD
:100FB000421B530B840F951F0E94491221E0892B7D
:100FC00039F020E005C020E003C020E001C020E0AF
:100FD000822F0895FC01248135816217730748F43C
:100FE00080819181009739F0FC01E60FF71F808125
:100FF000089580E0089580E008950E94EA0708952A
:101000000F931F93CF93DF93EB0141155105F9F037
:101010002097E9F0FC01648175812617370710F0ED
:10102000188215C0621B730B8A01015011096017E9
:10103000710708F48B01FC0160817181620F731FDD
:10104000A801CE010E946712C00FD11F1882DF9144
:10105000CF911F910F910895BF92CF92DF92EF929F
:10106000FF920F931F93CF93DF938C016B01EA01E3
:1010700079012417350720F48D2FE901E42EF82E8D
:1010800060E271E0C8010E944706D60114968D9176
:101090009C911597C817D907D0F48E159F0508F4B1
:1010A0007C01D601ED91FC911197EE0DFF1DB080F2
:1010B00010826D917C916C0F7D1FC8010E947D068E
:1010C000F60180819181FC01EE0DFF1DB082C80107
:1010D000DF91CF911F910F91FF90EF90DF90CF9014
:1010E000BF900895CF93DF93EC01CB012C813D811C
:1010F0006217730710F541155105F9F0B901681B26
:10110000790B4617570708F4BA01E881F981261BC5
:10111000370B3D832C83A901481B590B680F791F9E
:101120006E0F7F1F8E0F9F1F0E946712E881F9814B
:101130008C819D81E80FF91F1082DF91CF91089576
:101140004FEF5FEF0E9472080895CF92DF92EF9207
:10115000FF920F931F93CF93DF937C016B01EC0100
:1011600022968C01005E1F4F60E271E0CE010E946A
:1011700047062696C017D107B9F7F701D2A2C1A238
:1011800010A2DF91CF911F910F91FF90EF90DF9010
:10119000CF9008958F929F92AF92BF92CF92DF929D
:1011A000EF92FF920F931F93CF93DF93CDB7DEB7EC
:1011B00062970FB6F894DEBF0FBECDBF8C016EE113
:1011C00071E0CE010D960E94470660E271E0CE010B
:1011D00007960E9447066FE171E0D80191968D91C4
:1011E0009C9192970E94DC02F80181A192A1DC01FE
:1011F000ED91FC910284F385E02D09950E94FA049B
:101200006B017C012FC0F80181A192A1DC01ED915D
:10121000FC910480F581E02D0995181619069CF4BF
:10122000F80181A192A1DC01ED91FC910680F7818A
:10123000E02D0995682FCE0107960E94DB060E94DB
:10124000FA046B017C010E94FA0446015701B8EED2
:101250008B0EB3E09B1EA11CB11C86169706A80638
:10126000B906E0F0BE01635F7F4FCE0107960E9492
:10127000C407813041F661E271E0CE0101960E941F
:101280004706BE016F5F7F4FCE0107960E94B407ED
:10129000CE0101960E94D40511E001C01EEFCE01DF
:1012A00007960E94D405CE010D960E94D405812F89
:1012B00062960FB6F894DEBF0FBECDBFDF91CF911F
:1012C0001F910F91FF90EF90DF90CF90BF90AF9064
:1012D0009F908F900895BF92CF92DF92EF92FF92EE
:1012E0000F931F93CF93DF93CDB7DEB768970FB6F9
:1012F000F894DEBF0FBECDBF8C017B0160E271E0D0
:10130000CE0143960E9447066EE171E0CE010D9634
:101310000E944706C8010E94CA08B701D8019196E9
:101320008D919C9192970E94CD026FE171E0F8013E
:1013300081A192A10E94DC02D80191968D919C918D
:101340009297DC01ED91FC910284F385E02D0995E3
:101350000E94FA046B017C01B8EBCB0EBBE0DB1EF4
:10136000E11CF11C53C0F80181A192A1DC01ED91B7
:10137000FC910480F581E02D0995181619067CF47E
:10138000F80181A192A1DC01ED91FC910680F78129
:10139000E02D0995682FCE0143960E94DB06BE0121
:1013A000635F7F4FCE0143960E94C407882371F18B
:1013B0006AE271E0CE0107960E944706BE01695FAE
:1013C0007F4FCE0143960E94B407B82ECE010796F8
:1013D0000E94D405B11024C063E371E0CE010196F0
:1013E0000E944706BE016F5F7F4FCE0143960E9469
:1013F000B407B82ECE0101960E94D405B11012C0D8
:1014000060E271E0CE0143960E947D060E94FA04DC
:101410006C157D058E059F0508F4A5CF1EEF03C052
:101420001FEF01C011E0CE010D960E94D405CE0140
:1014300043960E94D405812F68960FB6F894DEBFBC
:101440000FBECDBFDF91CF911F910F91FF90EF9015
:10145000DF90CF90BF9008950F931F93CF93DF93AA
:1014600000D000D000D0CDB7DEB78C0166E371E0CC
:10147000CE0101960E944706BE016F5F7F4FC801F3
:101480000E946B09182FCE0101960E94D405812F6E
:1014900026960FB6F894DEBF0FBECDBFDF91CF9179
:1014A0001F910F9108950F931F93CF93DF9300D057
:1014B00000D000D0CDB7DEB78C016AE371E0CE0179
:1014C00001960E944706BE016F5F7F4FC8010E94D0
:1014D0006B09182FCE0101960E94D405812F269604
:1014E0000FB6F894DEBF0FBECDBFDF91CF911F9135
:1014F0000F910895BF92CF92DF92EF92FF920F93D8
:101500001F93CF93DF93CDB7DEB76E970FB6F894E6
:10151000DEBF0FBECDBF8C0160E271E0CE01499607
:101520000E9447066EE171E0CE0143960E94470695
:10153000C8010E94CA086BE671E0D80191968D91AE
:101540009C9192970E94DC026FE171E0F80181A109
:1015500092A10E94DC02D80191968D919C91929764
:10156000DC01ED91FC910284F385E02D09950E9448
:10157000FA046B017C01B0E7CB0EB7E1DB1EE11C86
:10158000F11C83C0F80181A192A1DC01ED91FC91D5
:101590000480F581E02D0995181619067CF4F801F0
:1015A00081A192A1DC01ED91FC910680F781E02DF3
:1015B0000995682FCE0149960E94DB06BE016D5E3B
:1015C0007F4FCE0149960E94C407882309F45DC06D
:1015D0006AE271E0CE010D960E944706BE01635F8C
:1015E0007F4FCE0149960E94B407B82ECE010D96CA
:1015F0000E94D405B11053C06FE671E0CE0107968A
:101600000E944706BE01695F7F4FCE0149960E9446
:10161000B407B82ECE0107960E94D405BB2079F1FD
:1016200062E771E0CE0101960E944706BE016F5F3E
:101630007F4FC8010E946B09CE0101960E94D4051C
:1016400064EF71E080E090E00E942C050AC0F80190
:1016500081A192A1DC01ED91FC910680F781E02D42
:101660000995F80181A192A1DC01ED91FC91048022
:10167000F581E02D0995892B51F711E011C060E249
:1016800071E0CE0149960E947D060E94FA046C1515
:101690007D058E059F0508F475CF1EEF01C01FEF75
:1016A000CE0143960E94D405CE0149960E94D405EE
:1016B000812F6E960FB6F894DEBF0FBECDBFDF91BF
:1016C000CF911F910F91FF90EF90DF90CF90BF903F
:1016D00008958F929F92AF92BF92CF92DF92EF9236
:1016E000FF920F931F93CF93DF93CDB7DEB76E9723
:1016F0000FB6F894DEBF0FBECDBF8C017B0160E258
:1017000071E0CE0149960E9447066EE171E0CE017C
:1017100043960E944706C8010E94CA086AE771E022
:10172000D80191968D919C9192970E94DC02F801CC
:1017300081A192A1DC01ED91FC910284F385E02D61
:1017400009950E94FA044B015C01B8EB8B0EBBE0DB
:101750009B1EA11CB11CDD24D39475C0F80181A18E
:1017600092A1DC01ED91FC910480F581E02D0995B9
:10177000181619067CF4F80181A192A1DC01ED9103
:10178000FC910680F781E02D0995682FCE014996DE
:101790000E94DB06BE016D5E7F4FCE0149960E941E
:1017A000C407882309F44FC06AE271E0CE010D96A8
:1017B0000E944706BE01635F7F4FCE0149960E949B
:1017C000B407C82ECE010D960E94D405C11045C0A5
:1017D00063E371E0CE0107960E944706BE01695F90
:1017E0007F4FCE0149960E94B407C82ECE010796BE
:1017F0000E94D405C11033C06FE771E0CE0101969D
:101800000E944706BE016F5F7F4FCE0149960E943E
:10181000B407C82ECE0101960E94D405CC2069F0F1
:1018200064E070E0CE0149960E94FD07833419F40C
:10183000F701D08202C0D7011C9260E271E0CE01B4
:1018400049960E947D060E94FA04681579058A056A
:101850009B0508F483CF1EEF03C01FEF01C011E00A
:10186000CE0143960E94D405CE0149960E94D4052C
:10187000812F6E960FB6F894DEBF0FBECDBFDF91FD
:10188000CF911F910F91FF90EF90DF90CF90BF907D
:10189000AF909F908F9008958F929F92AF92BF923A
:1018A000CF92DF92EF92FF920F931F93CF93DF932C
:1018B000CDB7DEB769970FB6F894DEBF0FBECDBFC8
:1018C0007C018B01842E6EE171E0CE0143960E9473
:1018D0004706BE01675E7F4FC7010E94690B898D75
:1018E000882329F00F2EF4E1AF2EF02D04C00F2E27
:1018F000FDE7AF2EF02D882009F454C0982CD12C90
:101900009A1408F4A92C9A1860E271E0CE010D96A1
:101910000E944706AA2089F0BA2CBD0CCC24C3949F
:10192000CD0CF801ED0DF11D6081CE010D960E94E8
:10193000DB06CB1419F0DC2CF1CFBD2C63E871E091
:10194000CE0107960E944706BE01635F7F4FCE011E
:1019500007960E94EE066FE171E00E940107BC014C
:10196000CE010D960E945C06CE0107960E94D4051A
:10197000BE01635F7F4FCE0101960E947306BE01D8
:101980006F5F7F4FC7010E946B09D82ECE01019671
:101990000E94D405CE010D960E94D405B81420F4FF
:1019A000DB2CAECFDD24D394CE0143960E94D40528
:1019B0008D2D69960FB6F894DEBF0FBECDBFDF91B7
:1019C000CF911F910F91FF90EF90DF90CF90BF903C
:1019D000AF909F908F900895CF92DF92EF92FF92F9
:1019E0000F931F93CF93DF936C017B01FB01048165
:1019F00015810F5F1F4FC8010E949902EC0120E082
:101A000030E0A801BC01C7010E940008402FBE01C0
:101A1000C6010E944C0C182FCE010E949C02812FFF
:101A2000DF91CF911F910F91FF90EF90DF90CF90BA
:101A300008950F931F93CF93DF938C01009751F17B
:101A4000C0E0D0E061E087E00E94A30561E083E0B0
:101A50000E94A30561E082E00E94A30564EF71E0AB
:101A600080E090E00E942C0560E087E00E94A305E2
:101A700060E083E00E94A30560E082E00E94A3058D
:101A800064EF71E080E090E00E942C052196C01781
:101A9000D107C1F6DF91CF911F910F9108950F9358
:101AA0001F93CF93DF938C01009751F1C0E0D0E0FA
:101AB00061E088E00E94A30561E08AE00E94A3053E
:101AC00061E085E00E94A30564EF71E080E090E0B2
:101AD0000E942C0560E088E00E94A30560E08AE097
:101AE0000E94A30560E085E00E94A30564EF71E019
:101AF00080E090E00E942C052196C017D107C1F626
:101B0000DF91CF911F910F9108950F931F93CF9362
:101B1000DF938C01009751F1C0E0D0E061E084E0F8
:101B20000E94A30561E089E00E94A30561E086E0D0
:101B30000E94A30564EF71E080E090E00E942C0514
:101B400060E084E00E94A30560E089E00E94A305B4
:101B500060E086E00E94A30564EF71E080E090E021
:101B60000E942C052196C017D107C1F6DF91CF91B5
:101B70001F910F910895FF920F931F93CF93DF93BF
:101B800026E040E855E260E070E08CEE92E00E94D2
:101B90003D0168E871E08CEE92E00E94200368EE5F
:101BA00073E080E090E00E942C051092A803109250
:101BB000A703F12C00E010E0D0E0C1E089EA93E057
:101BC0000E947A0A8130B1F489EA93E00E942C0ADB
:101BD0008130C9F489EA93E00E94530A8130E9F424
:101BE00089EA93E00E947A0A813059F10C2F1C2F68
:101BF000DC2F1EC0D11108C06EE971E08CEE92E0BE
:101C00000E94200328C0DC2F111109C062EB71E093
:101C10008CEE92E00E9420031EC01C2FDC2F0111CD
:101C200007C068EC71E08CEE92E00E94200313C0C4
:101C3000F1100BC063EE71E08CEE92E00E94200385
:101C40000AC0FC2E0C2F1C2FDC2F6EEF71E08CEEE7
:101C500092E00E9420038091A7039091A80301962F
:101C60009093A8038093A7030A970CF4A7CFDD23D2
:101C700031F0112321F0002311F0F11007C063E2CD
:101C800072E08CEE92E00E942003FFCF61E672E0EA
:101C90008CEE92E00E94200368EE73E080E090E01A
:101CA0000E942C05DF91CF911F910F91FF90089515
:101CB0009F92AF92BF92CF92DF92EF92FF920F93DB
:101CC0001F93CF93DF9300D000D000D0CDB7DEB705
:101CD0007C016B01FC0124813581FB0184819581AC
:101CE0008217930751F100E010E0AA24AA94BB24C4
:101CF000BA94200F311FA801B601CE0101960E94AF
:101D00002C08B701CE0101960E944F07982ECE01F4
:101D100001960E94D405992011F0A02EB12E0F5FDC
:101D20001F4FF70124813581F60144815581421B03
:101D3000530B04171507E8F204C0AA24AA94BB2485
:101D4000BA948A2D9B2D26960FB6F894DEBF0FBE4F
:101D5000CDBFDF91CF911F910F91FF90EF90DF905A
:101D6000CF90BF90AF909F90089560E271E088EDB2
:101D700093E00E94470660E271E082ED93E00E94EA
:101D8000470660E271E08CEC93E00E9447066CEE3F
:101D900072E089EA93E00E94A5080895CF93DF934B
:101DA0008BEA93E0892B51F0C9ECD3E02697CE0162
:101DB0000E94D40583E0CB3AD807C1F78CEC93E0BE
:101DC0000E94D40582ED93E00E94D40588ED93E053
:101DD0000E94D405DF91CF910895CF93DF93CDB7C3
:101DE000DEB7A4970FB6F894DEBF0FBECDBF0E943A
:101DF000BB0D80E0D12CEE24E394F12C38C061E0DF
:101E00008BE00E94A3058CEE92E00E949F00682F59
:101E100082ED93E00E94DB0668EC70E080E090E0E9
:101E20000E942C056D2D8BE00E94A30562ED73E0EE
:101E3000CE014F960E9473066EE171E0CE01499685
:101E40000E944706BE01615E7F4FCE0149960E9407
:101E5000580E8C01CE0149960E94D405CE014F96B2
:101E60000E94D40581E00F3F1F4F09F48D2D811191
:101E700008C08CEE92E00E948600181619060CF439
:101E8000BECF62ED73E0CE0143960E9473066EE111
:101E900071E0CE010D960E944706BE016D5E7F4F38
:101EA000CE010D960E94580E8C01CE010D960E9417
:101EB000D405CE0143960E94D405B80182ED93E08B
:101EC0000E94A00862ED73E0CE0107960E9473069F
:101ED00068EA72E0CE0101960E944706BE01695F82
:101EE0007F4FCE0101960E94580E8C01CE010196C3
:101EF0000E94D405CE0107960E94D4050F3F8FEFB4
:101F0000180739F460E271E082ED93E00E947D06EB
:101F100057C044E050E0B80182ED93E00E9472089F
:101F200062ED73E08CEE92E00E940E036DEA72E0C7
:101F300082ED93E00E946207882359F061EB72E022
:101F40008CEE92E00E9420038AE090E00E94190D3E
:101F50002BC06FEB72E082ED93E00E946207882352
:101F600059F063EC72E08CEE92E00E9420038AE06C
:101F700090E00E944F0D18C062ED72E082ED93E098
:101F80000E946207882381F066ED72E08CEE92E099
:101F90000E9420038AE090E00E94850D68EE73E0C5
:101FA00080E090E00E942C0562ED73E088ED93E004
:101FB0000E94C30660E271E082ED93E00E947D061C
:101FC00081E00E9458059093A6038093A503833176
:101FD00022E092073CF12091A3033091A403232B2C
:101FE00009F58CEE92E00E94D40068EE72E08CEC71
:101FF00093E00E94CB0661EC72E08CEC93E00E94CF
:10200000CB066CEC73E089EA93E00E94EC0C60E292
:1020100071E08CEC93E00E947D06F092A403E092C4
:10202000A3030DC08231924054F48091A303909198
:10203000A403892B21F01092A4031092A30364EF50
:1020400071E080E090E00E942C058D2D10CFA1E280
:102050001A2EAA1BBB1BFD010DC0AA1FBB1FEE1F22
:10206000FF1FA217B307E407F50720F0A21BB30B6D
:10207000E40BF50B661F771F881F991F1A9469F7E9
:1020800060957095809590959B01AC01BD01CF0145
:102090000895EE0FFF1F0590F491E02D0994CF9362
:1020A000DF938230910510F482E090E0E091E0034C
:1020B000F091E10320E030E0A0E0B0E0309739F1AA
:1020C0004081518148175907B8F04817590771F4F2
:1020D00082819381109729F013969C938E93129787
:1020E0002CC09093E1038093E00327C021153105B4
:1020F00031F04217530718F0A901DB0101C0EF01CD
:102100009A01BD01DF010280F381E02DD7CF2115B7
:102110003105F9F0281B390B2430310580F48A8110
:102120009B816115710521F0FB019383828304C0BB
:102130009093E1038093E003FE01329644C0FE01D8
:10214000E20FF31F81939193225031093983288341
:102150003AC02091DE033091DF03232B41F420911C
:102160000201309103013093DF032093DE032091BD
:102170000001309101012115310541F42DB73EB721
:102180004091040150910501241B350BE091DE03C1
:10219000F091DF03E217F307A0F42E1B3F0B281783
:1021A000390778F0AC014E5F5F4F2417350748F0D0
:1021B0004E0F5F1F5093DF034093DE038193919393
:1021C00002C0E0E0F0E0CF01DF91CF910895CF931E
:1021D000DF93009709F487C0FC01329713821282C3
:1021E000C091E003D091E103209781F420813181F7
:1021F000280F391F8091DE039091DF038217930728
:1022000079F5F093DF03E093DE036DC0DE0120E09B
:1022100030E0AE17BF0750F412964D915C911397C2
:102220009D014115510509F1DA01F3CFB383A28372
:1022300040815181840F951F8A179B0771F48D91FE
:102240009C911197840F951F02969183808312961B
:102250008D919C911397938382832115310529F4E5
:10226000F093E103E093E0033EC0D9011396FC93A1
:10227000EE9312974D915D91A40FB51FEA17FB07DE
:1022800079F480819181840F951F0296D90111966E
:102290009C938E938281938113969C938E93129735
:1022A000E0E0F0E08A819B81009719F0FE01EC01EB
:1022B000F9CFCE01029628813981820F931F209198
:1022C000DE033091DF032817390769F4309729F4CA
:1022D0001092E1031092E00302C013821282D093A5
:1022E000DF03C093DE03DF91CF910895A0E0B0E05B
:1022F000ECE7F1E10C947A12EC01CB01209719F490
:102300000E944F10B8C0FE01E60FF71F9E01225039
:102310003109E217F30708F4ACC0D9010D911C9103
:10232000119706171707B8F00530110508F49FC07C
:10233000A801445051094617570708F498C00250A5
:102340001109061B170B019311936D937C93CF0119
:102350000E94E7108CC05B01A01AB10A4E01800EEA
:10236000911EA091E003B091E103612C712C60E01B
:1023700070E0109709F449C0A815B905C9F5ED90AA
:10238000FC901197670142E0C40ED11CCA14DB0413
:1023900078F147018A189B08640142E0C40ED11C01
:1023A0001296BC9012971396AC91B5E0CB16D1045F
:1023B00040F0B282A38391828082D9018D939C9355
:1023C00009C00E5F1F4F0E0D1F1DF9011183008301
:1023D000EB2DFA2F6115710531F0DB011396FC939B
:1023E000EE93129744C0F093E103E093E0033FC003
:1023F0006D917C9111976616770608F43B01BD013B
:1024000012960D90BC91A02DB4CF6091DE03709117
:10241000DF0368157905E9F468167906D0F4409170
:102420000001509101014115510541F44DB75EB7CE
:102430006091040170910501461B570BE417F507E5
:10244000C0F4F093DF03E093DE03F901918380830E
:102450000EC00E944F107C01009759F0A801BE01E8
:102460000E944012CE010E94E710C70104C0CE01B5
:1024700002C080E090E0CDB7DEB7EEE00C9496129B
:10248000FB01DC0102C001900D9241505040D8F791
:102490000895FB01DC018D91019080190110D9F3A1
:1024A000990B0895FB01DC0101900D920020E1F7EA
:1024B0000895FB01DC014150504030F08D910190B6
:1024C000801919F40020B9F7881B990B0895FB01B6
:1024D000DC014150504048F001900D920020C9F7B6
:1024E00001C01D9241505040E0F708952F923F9255
:1024F0004F925F926F927F928F929F92AF92BF9214
:10250000CF92DF92EF92FF920F931F93CF93DF93BF
:10251000CDB7DEB7CA1BDB0B0FB6F894DEBF0FBE1C
:10252000CDBF09942A88398848885F846E847D8469
:102530008C849B84AA84B984C884DF80EE80FD806B
:102540000C811B81AA81B981CE0FD11D0FB6F894E1
:10255000DEBF0FBECDBFED01089510E0C6EBD0E0A9
:1025600004C0FE010E944B102296C83BD107C9F758
:04257000F894FFCF0D
:102574000000E2032000FF0100000000F9009F02B8
:1025840086009F009100D4000000000048020A0D5C
:1025940000455252005645520D00455200426C759A
:1025A4006574004F4B005254520057525400534527
:1025B4005420003030304100303032380030303474
:1025C40045003030394500303045420055415254C1
:1025D4000043454E54004745542000525354005282
:1025E400450053434E204F4646005354530D005369
:1025F400545300534E44200053657269616C206843
:10260400617320737461727465642E2E2E004D6F95
:1026140064756C65207265736574206572726F727F
:1026240021004D6F64756C6520726573746F7265FB
:10263400206572726F7221004D6F64756C6520772E
:102644007269746520636F6E666967206572726F64
:102654007221005365636F6E64206D6F64756C65E1
:10266400207265736574206572726F722100526501
:102674007365742F526573746F72652F5772697422
:102684006520436F6E666967205041535345442E5D
:102694002E2E0052657365742F526573746F7265C4
:1026A4002F577269746520436F6E666967204641CF
:1026B400494C45442031302054494D45532E205334
:1026C400544F5020455845435554494F4E2E2E2EB5
:1026D4000052657365742F526573746F72652F575A
:1026E4007269746520436F6E66696720444F4E4576
:1026F400210043434F4E0046415354004144565039
:1027040000414456540030303030303030303030B6
:1027140030300041444452005243563D004C503145
:10272400004E41562053415953204C4546540052C3
:102734005032004E41562053415953205249474884
:1027440054004C5033004E415620534159532053AA
:0C275400545241494748540042520000D2
:00000001FF
