:100000000C9434000C943E000C943E000C943E0082
:100010000C943E000C943E000C943E000C943E0068
:100020000C943E000C943E000C943E000C943E0058
:100030000C943E000C943E000C943E000C943E0048
:100040000C943E000C943E000C943E000C943E0038
:100050000C943E000C943E000C943E000C943E0028
:100060000C943E000C943E0011241FBECFEFD8E04C
:10007000DEBFCDBF0E9440000C9456000C940000DF
:1000800080E18AB980E090E18A305CF42FEF36E7B6
:1000900041E0215030404040E1F700C000008F5F58
:1000A000F3CF8BB189278BB980E0F0CFF894FFCFE5
:00000001FF
